S00E000076696F6C65742E7372656383
S11300000C9446000C9465000C9465000C946500F7
S11300100C9465000C9465000C9465000C946500C8
S11300200C9465000C9465000C9465000C946500B8
S11300300C943F0B0C9465000C9465000C94210BFC
S11300400C9465000C9465000C945A0C0C94650097
S11300500C94310C0C941C0C0C9465000C946500ED
S11300600C9465000C9465000C9465000C94650078
S11300700C9465000C9465000C94E70B0C946500DB
S11300800C94BE0B0C9465000C94650011241FBEE7
S1130090CFEFD0E1DEBFCDBF13E0A0E0B1E0E6E9F1
S11300A0F7E200E00BBF02C007900D92A037B10742
S11300B0D9F72FE0A0E7B3E001C01D92A03DB2073D
S11300C0E1F70E94A5060C94C9130C9400008F92CA
S11300D0AF92CF92EF920F93CF93DF93CDB7DEB76A
S11300E09AE1899FF0011124E056FC4F608341831B
S11300F0228313820483E582C68212861386A48631
S113010085868A858687128A138A8B85848B8C855B
S1130110858B118EDF91CF910F91EF90CF90AF909F
S11301208F9008958F92AF92CF92EF92FF920F9398
S11301301F93CF93DF9380E687B98FE886B91F9228
S1130140D3E0DF93C1EECF9386E0882EA12C91EE0D
S1130150C92E2BE0E22E00E021E047E060E080E0E1
S11301600E94670087E08F93FF24F394FF92CF935C
S113017037E0832E47E1E42E21E048E061E081E0AE
S11301800E9467001F92DF93CF93812CAA24A3942B
S113019053E1E52E01E021E041E062E082E00E94CB
S11301A067001F92DF93CF936EE0862E72E0A72E36
S11301B0EDE0EE2E02E021E041E063E083E00E9406
S11301C067001F92DF93CF9388248394AA24A39477
S11301D0F5E1EF2E01E021E042E064E084E00E94DA
S11301E067001F92DF93CF93A2E08A2EBAE1EB2E31
S11301F021E043E065E085E00E9467001F92DF9301
S1130200CF9313E0812E8DE1E82E21E044E066E0F7
S113021086E00E9467001F92DF93CF939FE1892EAF
S11302202EE0E22E21E045E067E087E00E946700CF
S11302301F92DF93CF9334E0832E4BE1E42E21E031
S113024046E068E088E00E9467001F92DF93CF9346
S113025058E0852E6FE0E62E21E049E069E089E070
S11302600E9467001F92DF93CF9379E0872EE9E124
S1130270EE2E21E04AE06AE08AE00E9467008DB732
S11302809EB781960FB6F8949EBF0FBE8DBF1F9286
S1130290DF93CF93FAE08F2EA8E1EA2E20E04BE023
S11302A06BE08BE00E9467001F92DF93CF93B0E175
S11302B08B2E11E1E12E20E04CE06CE08CE00E94FA
S11302C0670088E08F9312E01F93CF938CE0882E11
S11302D096E1E92E21E04DE06DE08DE00E9467009B
S11302E01F92DF93CF9326E0822EA12C34E0E32EDD
S11302F000E021E04EE06EE08EE00E9467001F9275
S1130300DF93CF93812C43E0A42E55E1E52E02E048
S113031021E040E16FE08FE00E9467001F92DF93CD
S1130320CF936DE0862EAA24A39472E1E72E01E018
S113033021E04FE060E180E10E9467001F92DF93BB
S1130340CF93E5E08E2EFCE1EF2E20E04FEF61E14C
S113035081E10E9467001F92DF93CF93A0E18A2E70
S1130360B2E0AB2E0FE0E02E02E020E04FEF62E1BE
S113037082E10E9467001F92DF93CF9382E1882E6F
S113038091E1E92E20E04FEF63E183E10E946700F1
S113039089E08F931F93CF9322E0822EA12CEE2429
S11303A0E39400E021E04FEF64E184E10E94670000
S11303B08BE08F931F93CF933EE1832E42E0A42ED4
S11303C054E1E52E02E021E04FEF65E185E10E9472
S11303D067008DB79EB781960FB6F8949EBF0FBE87
S11303E08DBF1F92DF93CF9363E0862EA12C77E01D
S11303F0E72E00E021E04FEF66E186E10E9467000E
S11304001F921F93CF93E4E18E2EF2E1EF2E21E0B1
S11304104FEF67E187E10E946700FF921F93CF933C
S1130420A5E18A2EB3E1EB2E21E04FEF68E188E1EC
S11304300E9467001F931F93CF9386E1882E9AE052
S1130440E92E21E04FEF69E189E10E946700DF9323
S11304501F93CF9327E1822E3FE0E32E21E04FEF5D
S11304606AE18AE10E94670084E08F931F93CF932F
S113047048E1842E59E0E52E21E04FEF6BE18BE15A
S11304800E9467001F92DF93CF9369E1862E7EE07E
S1130490E72E21E04FEF6CE18CE10E9467001F9290
S11304A0DF93CF93EAE18E2EF0E1EF2E21E04FEFC0
S11304B06DE18DE10E9467001F92DF93CF93ABE162
S11304C08A2EB8E0EB2E21E04FEF6EE18EE10E9420
S11304D0670085E08F931F93CF938CE1882E9DE076
S11304E0E92E21E04FEF6FE18FE10E9467001F9238
S11304F0DF93CF932DE1822E3CE0E32E21E04FEFFA
S113050060E280E20E9467008DB79EB781960FB6C5
S1130510F8949EBF0FBE8DBF1F92DF93CF934EE121
S1130520842E5BE0E52E21E04FEF61E281E20E9440
S113053067001F92DF93CF936FE1862E71E1E72E60
S113054021E04FEF62E282E20E94670086E08F932F
S11305501F93CF93812CE5E0EE2E21E04FEF63E271
S113056083E20E9467008DB79EB709960FB6F89490
S11305709EBF0FBE8DBFDF91CF911F910F91FF9052
S1130580EF90CF90AF908F900895FF920F931F93A9
S1130590CF93DF93F82EFB01C1819081933009F44E
S11305A05AC030F40C2F10E0913011F190F50CC0CA
S11305B0953009F455C008F450C0963009F460C071
S11305C0973009F07BC06BC08CE28093BB0D8AE14D
S11305D0809FE001819FD00D1124C056DC4F89819A
S11305E08F3F21F00E94B40781E08A8340E00FC06E
S11305F08AE1809FE001819FD00D1124C056DC4F19
S113060089818F3F19F00E94F7071A8241E062E066
S113061057C08AE1809FE001819FD00D1124C0560C
S1130620DC4F89818F3F19F00E94F7071A8285E019
S11306308A95F1F78AE1809FE001819FD00D112412
S1130640C056DC4F89818F3F21F00E94B40781E0BE
S11306508A8342E0DCCF43E0DACF40E060E030C0A0
S11306608AE1C89FE0011124C056DC4F89818F3F85
S113067029F00E94B40781E08A838B8345E0C7CFC9
S11306808AE1C89FE0011124C056DC4F89818F3F65
S1130690F9F082818E83828180939F0B19C08AE155
S11306A0C89FE0011124C056DC4F89818F3F81F03F
S11306B082818E87828180939A0B0AC040E061E038
S11306C08F2DDF91CF911F910F91FF900C942A10E1
S11306D0DF91CF911F910F91FF90089580918F0921
S11306E08F3F09F46AC090917909992309F465C090
S11306F090919009992321F091E09093C60D02C046
S11307001092C60D982F95569A3108F043C09091D7
S113071070039F5F909370032091C60D90E0222395
S1130720A1F0FC01EE0FFF1FE45CFD4F60817181BD
S11307306B50710980E090E00E94A81128EB3EE123
S113074049E251E40E9440111CC0E7E7F0E0E81BD5
S1130750F90BEE0FFF1FE25CFC4F6081718180E0BA
S113076090E00E94A81128EB3EE141E251E40E948E
S113077040119B01AC0160E070E088EC92E40E94BF
S1130780D71060934F07709350078093510790934D
S1130790520713C0853628F480E090E0A0E8BFEB50
S11307A004C080E090E0A8EDB2E480934F079093FA
S11307B05007A0935107B09352078091900981503C
S11307C08E3F28F4809170038F5F809370030895A7
S11307D080E090E3AFE1B6E48093960990939709A3
S11307E0A0939809B09399098CE59FE8A4E9B1E432
S11307F08093680990936909A0936A09B0936B097F
S11308008DEC9CECA8E3B3E480938D0390938E036A
S1130810A0938F03B093900386E696EEA5E2B4E42A
S11308208093AE0D9093AF0DA093B00DB093B10D26
S113083086E696EAA1E5B4E48093C90D9093CA0DC7
S1130840A093CB0DB093CC0D81EE9AEFACE9B2E45A
S113085080938A0990938B09A0938C09B0938D0996
S113086086E696ECA7E0B4E48093480790934907A2
S1130870A0934A07B0934B0780E090EBA7E1B5E45F
S11308808093860990938709A0938809B093890976
S113089080E098E9AEEAB5E48093BE0D9093BF0D75
S11308A0A093C00DB093C10D089580E096E1A9E82E
S11308B0B6E480935D0790935E07A0935F07B093BF
S11308C0600788EB93EC9093AB0D8093AA0D8AEEAE
S11308D098EB9093B50D8093B40D8FE69CE99093BB
S11308E04D0780934C0785E99CE290937F098093A0
S11308F07E0981E79AEA90938B0380938A038AECBA
S113090098E3909373098093720982E093E0909343
S1130910AD0D8093AC0D8DEA97E09093B30D809369
S1130920B20D80E895E190936707809366078EE4A3
S11309309CEF90936507809364078BE393E0909317
S1130940A90D8093A80D8CED9BE6AEE2B0E48093F4
S1130950530790935407A0935507B093560780E824
S113096095E5A2ECB1E180937A0990937B09A09379
S11309707C09B0937D0980EA9CE3A3E7BCE0809303
S1130980950390939603A0939703B093980380EAFA
S113099096E6ACEFB9E180939A0390939B03A093FE
S11309A09C03B0939D0380E295EBA4EAB6EF809399
S11309B0750990937609A0937709B093780980E933
S11309C092ECADEBBBE080936D0990936E09A0931C
S11309D06F09B093700988E89BE7A5E8BBEF8093A3
S11309E0B60D9093B70DA093B80DB093B90D8CEDDF
S11309F093ECA6E0BFEF8093860390938703A093C4
S1130A008803B09389038AE69DEAA7EDBFEF80933C
S1130A109F0D9093A00DA093A10DB093A20D8CEB0C
S1130A2090EEA4E6BFEF8093710390937203A093BA
S1130A307303B093740382EC96ECAAEBBEE3809349
S1130A409B0B90939C0BA0939D0BB0939E0B0895CE
S1130A50EF92FF920F931F93CF93DF931FEF1ABB75
S1130A6087E08BBB17BB80EE88BB14BB15BB8BEF39
S1130A7081BB80EF82BB9EEF92B913B88093610073
S1130A80109262008FE18093640004E0009365009B
S1130A9082E087BF87E481BF8FE083BF83E68093D2
S1130AA0980B87EC8093990B80E890E79BBD8ABDF7
S1130AB08DE08EBD84E88093BA0D8CE28093BB0DEB
S1130AC00E948D0910929203109291031092940344
S1130AD01092930310926107109262078AE090E0EB
S1130AE00E9486127C01E2ECFDE08083F1828AE0C0
S1130AF090E00E948612C4ECDDE0888399834FEF76
S1130B0050E061EA7BE0C7010E94B3094FEF50E077
S1130B1060EA7CE0888199810E94B3091092C70D34
S1130B201092C80D0E9492007894C1E0C0936709A6
S1130B3010929F03009374091092850910929F0BE1
S1130B4010929A0B1092710910926C091092A70DD1
S1130B5010929903109291090E94E8030E9455048F
S1130B6010938F091093A00B109358071092BD0D8A
S1130B7010929E03109257071092630710924F072A
S1130B801092500710925107109252071092CB0FF7
S1130B901092800910928E0910924E071092C60D81
S1130BA01092790910928C03C0937503A09181036C
S1130BB0CAE1CA9FD0011124A056BC4F11968C9152
S1130BC00E94F707E0918203CE9FF0011124E056C2
S1130BD0FC4F81810E94F70710925C051092760504
S1130BE01092900581E10E947D0782E10E947D07B9
S1130BF083E1DF91CF911F910F91FF90EF900C94BF
S1130C007D0787EB95E00E943A088093BD0D833001
S1130C1010F08DED01C08CEC809358070895CF92AD
S1130C20DF92EF92FF920F931F93CF93DF93C090C5
S1130C304F07D0905007E0905107F090520720E002
S1130C4030E0A901C701B6010E943C1187FF4CC0E6
S1130C5029E23CE54FE05FEBC701B6010E943C117D
S1130C6087FF0AC025E83BEE41E15FEBC701B6010F
S1130C700E945A121816C4F181E08093710906E7A4
S1130C8013E0CAE1FC2EF801C1918F01FC9EE00142
S1130C901124C056DC4F89810E94F7071A82F3E0C1
S1130CA006381F0781F710925C05109276051092A2
S1130CB0900581E10E947D0782E10E947D0783E126
S1130CC00E947D0780916C09811108C0809199036D
S1130CD0811104C040E062E00E942A1081E0809308
S1130CE0990380936C0928C020E030E048EC52E47A
S1130CF0C701B6010E945A121816F4F48091C60D69
S1130D008823D1F0109271098091F3040E94B407F2
S1130D1081E08093F4048091A70D811108C0809133
S1130D209109811104C044E662E00E942A1081E026
S1130D30809391098093A70DDF91CF911F910F911B
S1130D40FF90EF90DF90CF9008950E9428051092B5
S1130D50660911E0C7ECDCE280916609912F981BCB
S1130D60909366098091990B811107C0C093990BE8
S1130D7040E060E081E00E942A108091980B81118C
S1130D8006C0C093980B40E060E00E942A10809156
S1130D90C70D8823C9F08091C70D81508093C70D7A
S1130DA0E091C20DF091C30D61817281478180E0B1
S1130DB00E94C5024FEF50E061EA7BE08091C20DD2
S1130DC09091C30D0E94B3098091C80D8823C9F086
S1130DD08091C80D81508093C80DE091C40DF091AD
S1130DE0C50D61817281478181E00E94C5024FEF88
S1130DF050E060EA7CE08091C40D9091C50D0E94A2
S1130E00B30980916709813091F4109267090E94B7
S1130E1071080E946E0380914E07811102C00E94E6
S1130E200F0680919F03873111F40E94010680917F
S1130E308C03813009F090CF10928C03D093BB0DBA
S1130E408BCFA898E5E6F0E080818D7F80830895BC
S1130E508130F9F020F0823009F04EC034C064FFD4
S1130E6002C0DF9A01C0DF9863FF02C0DE9A01C0AE
S1130E70DE9862FF02C0DD9A01C0DD9861FF02C006
S1130E80DC9A01C0DC9860FF02C0DB9A0895DB980D
S1130E90089564FF02C0C09A01C0C09863FF02C0F5
S1130EA0C19A01C0C19862FF02C0C29A01C0C2982F
S1130EB061FF02C0C39A01C0C39860FF02C0C49A14
S1130EC00895C498089564FF02C01B9A01C01B983A
S1130ED063FF02C01C9A01C01C9862FF02C01D9AE5
S1130EE001C01D9861FF02C01E9A01C01E9860FFD8
S1130EF002C01F9A08951F980895823131F08331FA
S1130F0059F0813199F40C942107809165008E7F0A
S1130F10809365009098089580916500877F809301
S1130F206500809165008F7E80936500089582310D
S1130F3049F0833171F08131B1F4A89A8091650050
S1130F4082600FC080916500816080936500909AF3
S1130F5008958091650088608093650080916500A4
S1130F608061809365000895883059F168F4843075
S1130F7001F130F48230C9F0D0F48130B9F513C0F6
S1130F808630D9F0E0F417C08C3039F120F48A307F
S1130F9001F108F518C08E3021F108F18F3019F1F4
S1130FA0803121F522C0D89A0895D99A0895DA9A01
S1130FB00895C59A0895C69A0895C79A0895949A6B
S1130FC00895959A089580916500846080936500E2
S1130FD00895AF9A0895AE9A0895AD9A0895AC9A7B
S1130FE00895AB9A0895AA9A0895A99A0895883005
S1130FF059F168F4843001F130F48230C9F0D0F44E
S11310008130B9F513C08630D9F0E0F417C08C30C4
S113101039F120F48A3001F108F518C08E3021F13D
S113102008F18F3019F1803121F522C0D898089544
S1131030D9980895DA980895C5980895C69808959A
S1131040C798089594980895959808958091650097
S11310508B7F809365000895AF980895AE980895A6
S1131060AD980895AC980895AB980895AA980895FA
S1131070A9980895FC012181808190E0820F911D3F
S11310802281820F911D63E070E00E945E12862F20
S113109008959AE1899FF0011124E056FC4F838959
S11310A0882311F0138A0895CF010F960C943A08FF
S11310B09AE1899FF0011124E056FC4F838588232F
S11310C011F013860895CF0107960C943A0890E620
S11310D097B997B19C7F97B997B1982B97B9369ADE
S11310E008951F93CF93DF9380917409C0919F0358
S11310F0823009F45DC020F4813009F0F4C007C0E7
S1131100833009F4B4C0843009F0EDC0D8C08AE15A
S1131110C89FE0011124C056DC4F2A8530E0C90184
S1131120019663E070E00E9472128A87988194317C
S113113069F48091850980938F0980918509809352
S113114080098091BC0D80938E0906C0953121F4ED
S1131150809185098093A00B80918509FE01E20F9F
S1131160F31F8783209185098E818217D8F48B81A0
S11311708130C1F089818F3F19F00E94F7070EC0BA
S1131180923139F0933139F0913141F40E942107C1
S113119005C082E101C083E10E947D071A8280912B
S11311A085098B8782E0809374091C856D8592C0C4
S11311B09AE1C99FE0011124C056DC4F2A8930E02E
S11311C0C901019663E070E00E9472128A8B9881D3
S11311D0973139F4809185098093900981E0809357
S11311E0790980918509FE01E20FF31F8787209119
S11311F085098E858217D8F48B818130C1F089816D
S11312008F3F19F00E94F7070EC0923139F09331E5
S113121039F0913141F40E94210705C082E101C0F7
S113122083E10E947D071A82809185098B8B1C893A
S1131230133029F083E0809374096D894BC081E0F9
S11312408093740980919F0390E0019664E270E0BA
S11312500E94721280939F032AE1289FF001299F24
S1131260F00D1124E056FC4F1481658133C0D0E0A9
S11312704AE14C9FF0014D9FF00D1124E056FC4FC4
S1131280218D30E0C901019663E070E00E94721282
S1131290818F80918509E20FF31F868B81E0809313
S11312A07409CE01019664E270E00E947212809388
S11312B09F03489FF001499FF00D11241DC081E058
S11312C0809374099AE1C99FE0011124C056DC4F50
S11312D01C816D81812F0E94280783E393E7019786
S11312E0F1F7812F15C081E080937409E0919F0389
S11312F09AE1E99FF0011124E056FC4FC481658115
S11313008C2F0E94280783E393E70197F1F78C2F32
S1131310DF91CF911F910C94670887E08093990027
S113132089B988E18AB9EAE9F0E080838081806440
S11313308083808180688083569A579A0895FB0140
S113134020813181F901E827FF27EE0FFF1FEA5FB3
S1131350FE4F232F33278081918182279327FB011E
S1131360918380830895FC01108272836183568384
S113137045831086178214821382118608954F9232
S11313805F926F927F928F929F92AF92BF92CF9211
S1131390DF92EF92FF920F931F93CF93DF9300D0CE
S11313A01F92CDB7DEB76C015B0179011A821982F5
S11313B0009709F458C02115310509F454C04C3084
S11313C018F0483309F051C044244394512C4C0E76
S11313D05D1EB201842F4B830E949F093701600E6A
S11313E0711E470107C0B201F40181914F014B8383
S11313F00E949F094B8186149704A9F789819A81D9
S1131400F701E00FF11F908381830E5F1F4F80EC83
S1131410F60180834183D70142E050E02DED3BED9E
S11314206CED0FC08D91803C19F43083618304C04E
S113143080838B3D21F421834E5F5F4F02C04F5F59
S11314405F4FCD018E199F09F601E40FF51F801738
S1131450910740F380EC80834F5F5F4FF501518328
S1131460408381E003C085E001C086E00F900F90C7
S11314700F90DF91CF911F910F91FF90EF90DF902C
S1131480CF90BF90AF909F908F907F906F905F9020
S11314904F900895CF92DF92EF92FF920F931F9394
S11314A0CF93DF93EC0129813A812115310509F4A9
S11314B084C08F8198854D815E8141505109841784
S11314C0950708F07CC04985423039F118F444236B
S11314D031F038C0403131F04032A1F50AC0603CEF
S11314E091F50DC06C3018F0683309F06AC0688358
S11314F026C0603C31F4892B11F081E021C080E1E9
S11315001FC06B3D11F482E01BC0F901E80FF91F05
S11315106083019698878F8316C06C3D29F4F90186
S1131520E80FF91F40EC07C06D3D09F04CC0F9010C
S1131530E80FF91F4BED4083019698878F8380E273
S1131540898701C019868985813011F089853CC05D
S113155089819A814F815885840F951FFC013297A8
S1131560308120E0FC01319780816901C80ED11CD3
S11315704250510958874F837E0183E0E80EF11CE5
S1131580B70188810E949F0900E010E00AC0E98148
S1131590FA81E00FF11FB70180810E949F090F5F5C
S11315A01F4F8F8198850817190788F38B819C81B9
S11315B08C159D0559F284E007C085E005C083E0E1
S11315C003C086E001C087E0DF91CF911F910F91A6
S11315D0FF90EF90DF90CF900895282F30E0F9012D
S11315E0EF59F84F6081D901AA0FBB1FAF56BC4F0A
S11315F04D915C9170E06417750710F581110EC070
S113160080819FEF929FD001939FB00D1124A80F6A
S1131610B11DA859B84F9C919CB910C0813081F478
S113162080819FEF929FD001939FB00D1124A80F4A
S1131630B11DA859B84F9C9190939C008F5F8083F3
S113164008951F920F920FB60F9211248F938091D9
S1131650980B882329F08091980B81508093980BE4
S11316608091990B882329F08091990B8150809364
S1131670990B8F910F900FBE0F901F9018951F928A
S11316800F920FB60F9211240BB60F922F933F9324
S11316904F935F936F937F938F939F93AF93BF9376
S11316A0CF93EF93FF938091BA0D811131C0809154
S11316B07503882369F184E88093BA0D8091BF048F
S11316C00E94B407C1E0C093C0048091D9040E9471
S11316D0B407C093DA0480915B050E94B407C093F9
S11316E05C05809175050E94B407C09376058091CE
S11316F08F050E94B407C093900581E10E9497076B
S113170082E10E94970783E10E9497071092750374
S11317108091BB0D811107C080918C03811103C09E
S113172081E080938C0385B391E0892785BB2FEFFB
S11317308FE796E1215080409040E1F700C000001F
S11317408091BA0D81508093BA0D8091BB0D815068
S11317508093BB0DFF91EF91CF91BF91AF919F917A
S11317608F917F916F915F914F913F912F910F9046
S11317700BBE0F900FBE0F901F9018951F920F92E3
S11317800FB60F9211240BB60F922F933F934F93E2
S11317905F936F937F938F939F93AF93BF93EF93D5
S11317A0FF9381E00E94ED0AFF91EF91BF91AF9109
S11317B09F918F917F916F915F914F913F912F9165
S11317C00F900BBE0F900FBE0F901F9018951F9295
S11317D00F920FB60F9211240BB60F922F933F93D3
S11317E04F935F936F937F938F939F93AF93BF9325
S11317F0EF93FF9360919C008091C40D9091C50D6F
S11318000E944A0A813029F48091C80D8F5F809329
S1131810C80DFF91EF91BF91AF919F918F917F91EF
S11318206F915F914F913F912F910F900BBE0F904D
S11318300FBE0F901F9018951F920F920FB60F9224
S113184011248F9384B18093BC0D85B18093850955
S113185081E0809367098F910F900FBE0F901F90C6
S113186018951F920F920FB60F9211240BB60F9278
S11318702F933F934F935F936F937F938F939F9394
S1131880AF93BF93EF93FF9380E00E94ED0AFF9123
S1131890EF91BF91AF919F918F917F916F915F91E4
S11318A04F913F912F910F900BBE0F900FBE0F9051
S11318B01F9018951F920F920FB60F9211240BB61A
S11318C00F922F933F934F935F936F937F938F93D5
S11318D09F93AF93BF93EF93FF936CB18091C20D2D
S11318E09091C30D0E944A0A813029F48091C70D5A
S11318F08F5F8093C70DFF91EF91BF91AF919F913F
S11319008F917F916F915F914F913F912F910F90A4
S11319100BBE0F900FBE0F901F901895823010F4DD
S11319200C94ED0A08952F923F924F925F926F921A
S11319307F928F929F92AF92BF92CF92DF92EF925B
S1131940FF920F931F93CF93DF93CDB7DEB7289702
S11319500FB6F894DEBF0FBECDBF98878F83DC012E
S11319601C923091A604330F8091C004B4E08B9F85
S1131970C0011124382B80918C04382B8091DA0417
S1131980E8E08E9FC0011124382B80912805F0E1F6
S11319908F9FC0011124382B8091420520E2829F41
S11319A0C0011124382B40917605440F8091900595
S11319B054E0859FC0011124482B80915C05482B7D
S11319C0E4EFF4E08081A8E08A9FC0011124482B51
S11319D02091BC03220F8091D603B4E08B9FC001F9
S11319E01124282B8091A203282B80910A0458E00B
S11319F0859FC0011124282B80912404A0E18A9F93
S1131A00C0011124282B80913E04B0E28B9FC001B9
S1131A101124282B8091580450E4859FC00111247F
S1131A20282B80917204A0E88A9FC0011124282BDE
S1131A30AF81B88511962C93119712963C93129707
S1131A4013964C93139789E914968C931497808179
S1131A5015968C9320EA622E23E0722EF301808186
S1131A600E945808AF81B88516968C933AEB832E62
S1131A7033E0932EF40180810E945808AF81B88529
S1131A8017968C9344EDA42E43E0B42EF501808187
S1131A900E945808AF81B88518968C935EEEC52EC7
S1131AA053E0D52EF60180810E945808AF81B88595
S1131AB019968C9368E0E62E64E0F62EF701808197
S1131AC00E945808AF81B8851A968C930CE314E0F1
S1131AD0F80180810E945808AF81B8851B968C93C9
S1131AE0E6E5F4E080810E945808AF81B8851C9631
S1131AF08C9370E7472E74E0572EF20180810E9488
S1131B005808AF81B8851D968C93EAE82E2EE4E040
S1131B103E2EF10180810E945808AF81B8851E963F
S1131B208C9324EA34E0F901808129833A830E946A
S1131B305808AF81B8851F968C934EEB54E0FA0198
S1131B4080814B835C830E945808AF81B88550968E
S1131B508C9368ED74E0FB0180816D837E830E9429
S1131B605808AF81B88551968C93E6E2F5E0808100
S1131B700E945808AF81B88552968C93E0E4F5E052
S1131B8080810E945808AF81B88553968C93EAE50A
S1131B90F5E080810E945808AF81B88554968C93F3
S1131BA0E4E7F5E080810E945808AF81B885559636
S1131BB08C93EEE8F5E080810E945808AF81B885E7
S1131BC056968C93E8EAF5E080810E945808AF812C
S1131BD0B88557968C93E2ECF5E080810E94580812
S1131BE0AF81B88558968C93ECEDF5E080810E9426
S1131BF05808AF81B88559968C93E6EFF5E080815B
S1131C000E945808AF81B8855A968C93E0E1F6E0BB
S1131C1080810E945808AF81B8855B968C93EAE274
S1131C20F6E080810E945808AF81B8855C968C9359
S1131C30E4E4F6E080810E945808AF81B8855D969F
S1131C408C93EEE5F6E080810E945808AF81B88558
S1131C505E968C93E8E7F6E080810E945808AF8195
S1131C60B8855F968C93E2E9F6E080810E9458087B
S1131C70AF81B88590968C93ECEAF6E080810E945F
S1131C805808AF81B88591968C93E6ECF6E0808194
S1131C900E945808AF81B88592968C93E0EEF6E0E6
S1131CA080810E945808AF81B88593968C93EAEF9F
S1131CB0F6E080810E945808AF81B88594968C9391
S1131CC0E4E1F7E080810E945808AF81B8859596D9
S1131CD08C9380912E070E945808EF81F88586A383
S1131CE017A210A611A612A613A6D3018C910E94C6
S1131CF04908EF81F88584A7D4018C910E94490892
S1131D00EF81F88585A7D5018C910E944908EF8160
S1131D10F88586A7D6018C910E944908EF81F88541
S1131D2087A7D7018C910E944908EF81F88580AB81
S1131D30D8018C910E944908EF81F88581ABA6E512
S1131D40B4E08C910E944908EF81F88582ABD201FE
S1131D508C910E944908EF81F88583ABD1018C9165
S1131D600E944908EF81F88584AB29813A81D90121
S1131D708C910E944908EF81F88585AB4B815C8189
S1131D80DA018C910E944908EF81F88586AB6D8158
S1131D907E81DB018C910E944908EF81F88587AB35
S1131DA0A6E2B5E08C910E944908EF81F88580AFE6
S1131DB0A0E4B5E08C910E944908EF81F88581AFD9
S1131DC0AAE5B5E08C910E944908EF81F88582AFBD
S1131DD0A4E7B5E08C910E944908EF81F88583AFB0
S1131DE0AEE8B5E08C910E944908EF81F88584AF94
S1131DF0A8EAB5E08C910E944908EF81F88585AF87
S1131E00A2ECB5E08C910E944908EF81F88586AF79
S1131E10ACEDB5E08C910E944908EF81F88587AF5D
S1131E20A6EFB5E08C910E944908EF81F885E05C4B
S1131E30FF4F8083E0E1F6E080810E944908EF8152
S1131E40F885EF5BFF4F8083AAE2B6E08C910E9495
S1131E504908EF81F885EE5BFF4F8083E4E4F6E008
S1131E6080810E944908EF81F885ED5BFF4F8083F4
S1131E70AEE5B6E08C910E944908EF81F885EC5BF1
S1131E80FF4F8083E8E7F6E080810E944908EF81F4
S1131E90F885EB5BFF4F8083A2E9B6E08C910E944A
S1131EA04908EF81F885EA5BFF4F8083ECEAF6E0AE
S1131EB080810E944908EF81F885E95BFF4F8083A8
S1131EC0A6ECB6E08C910E944908EF81F885E85BA6
S1131ED0FF4F8083E0EEF6E080810E944908EF81A5
S1131EE0F885E75BFF4F8083AAEFB6E08C910E94F0
S1131EF04908EF81F885E65BFF4F8083E4E1F7E072
S1131F0080810E944908EF81F885E55BFF4F80835B
S1131F10EF81F885E45BFF4F8FEF8083EF81F885D5
S1131F20E35BFF4F90918F099083EF81F885E25B2B
S1131F30FF4F9091CB0F9083EF81F885E15BFF4FCA
S1131F401082EF81F885E05BFF4F1082EF81F88506
S1131F50EF5AFF4F1082EF81F885EE5AFF4F9091B0
S1131F6057079083EF81F885ED5AFF4F808388ED02
S1131F7095E00E943A08EF81F885EC5AFF4F808380
S1131F808CE096E00E943A08EF81F885EB5AFF4F07
S1131F90808386E296E00E943A08EF81F885EA5A47
S1131FA0FF4F808380E496E00E943A08EF81F88531
S1131FB0E95AFF4F80838AE596E00E943A08EF8150
S1131FC0F885E85AFF4F808384E796E00E943A0838
S1131FD0EF81F885E75AFF4F80838CED96E00E94ED
S1131FE03A08EF81F885E65AFF4F808384E497E04E
S1131FF00E943A08EF81F885E55AFF4F808380916B
S11320009F0B10929F0BEF81F885E45AFF4F80835A
S113201080919A0B10929A0BEF81F885E35AFF4F47
S1132020808328960FB6F894DEBF0FBECDBFDF9134
S1132030CF911F910F91FF90EF90DF90CF90BF90C1
S1132040AF909F908F907F906F905F904F903F9054
S11320502F9008956F927F928F929F92BF92CF920A
S1132060DF92EF92FF920F931F93CF93DF93B82EDB
S11320706130B9F020F0623009F08BC022C0C82F63
S1132080D0E02FEF829FC00111248353924F0E940E
S1132090930CFE01EE0FFF1FE75AF84F80E690E025
S11320A021C0E82FF0E08FEFB89ED0011124A35394
S11320B0B24F6C93EE0FFF1FE75AF84F81E090E0A8
S11320C011C0E82FF0E02FEF829FD0011124A35319
S11320D0B24F6C9311964C93EE0FFF1FE75AF84FD3
S11320E082E090E0918380838B2C912C8FEFB89EBB
S11320F070011124E701C656D64F6401CC0CDD1CD7
S1132100F601E75AF84F0081118197012353324FAA
S1132110A3EA6A2EADE07A2E6C0C7D1C41E0B3017B
S1132120CE010E94BF098130A1F5F3018081918124
S1132130F601EF56FC4F9183808380819181970152
S11321402859384FAC01BE01C9010E94C013F401E3
S1132150EF59F84F1082F1E0BF1206C080919B0046
S11321608823B9F081E006C0B11013C08BB1882375
S113217081F080E0DF91CF911F910F91FF90EF905C
S1132180DF90CF90BF909F908F907F906F900C9432
S11321908E0CDF91CF911F910F91FF90EF90DF9004
S11321A0CF90BF909F908F907F906F9008955058DC
S11321B0BB27AA270ED044C135D130F03AD120F044
S11321C031F49F3F11F41EF42AC10EF4E095E7FBAD
S11321D020C1E92F46D180F3BA1762077307840739
S11321E0950718F071F49EF55EC10EF4E0950B2E80
S11321F0BA2FA02D0B01B90190010C01CA01A00155
S11322001124FF27591B99F0593F50F4503E68F1AF
S11322101A16F040A22F232F342F4427585FF3CFF0
S1132220469537952795A795F0405395C9F77EF4C1
S11322301F16BA0B620B730B840BBAF09150A1F00A
S1132240FF0FBB1F661F771F881FC2F70EC0BA0F90
S1132250621F731F841F48F4879577956795B79518
S1132260F7959E3F08F0B3CF9395880F08F0992710
S1132270EE0F979587950895A8D008F481E0089506
S11322800CD0DEC0D6D040F0CDD030F021F45F3F8A
S113229019F0BFC0511108C1C2C0E3D098F399230B
S11322A0C9F35523B1F3951B550BBB27AA27621716
S11322B07307840738F09F5F5F4F220F331F441F5B
S11322C0AA1FA9F333D00E2E3AF0E0E830D0915093
S11322D05040E695001CCAF729D0FE2F27D0660F80
S11322E0771F881FBB1F261737074807AB07B0E8BF
S11322F009F0BB0B802DBF01FF2793585F4F2AF0D5
S11323009E3F510568F085C0CFC05F3FECF3983E17
S1132310DCF3869577956795B795F7959F5FC9F731
S1132320880F911D9695879597F90895E1E0660FBA
S1132330771F881FBB1F621773078407BA0720F033
S1132340621B730B840BBA0BEE1F88F7E09508959C
S1132350E89409C097FB3EF490958095709561953B
S11323607F4F8F4F9F4F9923A9F0F92F96E9BB27F1
S11323709395F695879577956795B795F111F8CF6D
S1132380FAF4BB0F11F460FF1BC06F5F7F4F8F4FD8
S11323909F4F16C0882311F096E911C0772321F0CE
S11323A09EE8872F762F05C0662371F096E8862F66
S11323B070E060E02AF09A95660F771F881FDAF7BD
S11323C0880F9695879597F90895990F0008550FEA
S11323D0AA0BE0E8FEEF16161706E807F907C0F0A7
S11323E012161306E407F50798F0621B730B840BAF
S11323F0950B39F40A2661F0232B242B252B21F489
S113240008950A2609F4A140A6958FEF811D811D28
S1132410089597F99F6780E870E060E008959FEF62
S113242080EC089500240A94161617061806090667
S1132430089500240A941216130614060506089536
S1132440092E0394000C11F4882352F0BB0F40F4BE
S1132450BF2B11F460FF04C06F5F7F4F8F4F9F4FFE
S1132460089557FD9058440F551F59F05F3F71F080
S11324704795880F97FB991F61F09F3F79F08795E7
S11324800895121613061406551FF2CF4695F1DF70
S113249008C0161617061806991FF1CF8695710500
S11324A0610508940895E894BB2766277727CB0134
S11324B097F908958ADF08F48FEF0895AA1BBB1BD0
S11324C051E107C0AA1FBB1FA617B70710F0A61B30
S11324D0B70B881F991F5A95A9F780959095BC0151
S11324E0CD01089597FB072E16F4009407D077FDCD
S11324F009D00E945E1207FC05D03EF490958195A8
S11325009F4F0895709561957F4F08950F931F9382
S1132510CF93DF938230910510F482E090E0E09154
S1132520CE0FF091CF0F20E030E0C0E0D0E023C028
S11325304081518148175907A8F04817590761F499
S113254082819381209719F09B838A832EC0909374
S1132550CF0F8093CE0F29C02115310529F04217E2
S1132560530710F0A90102C0BE01DF0102811381EB
S1132570EF019A01F8013097D9F62115310509F1D7
S1132580281B390B2430310590F412968D919C91BF
S113259013976115710521F0FB019383828304C0B5
S11325A09093CF0F8093CE0FFD01329644C0FD016E
S11325B0E20FF31F81939193225031092D933C93A1
S11325C03AC02091CC0F3091CD0F232B41F42091B0
S11325D00201309103013093CD0F2093CC0F209151
S11325E00001309101012115310541F42DB73EB7A9
S11325F04091040150910501241B350BE091CC0F4F
S1132600F091CD0FE217F307A0F42E1B3F0B281710
S1132610390778F0AC014E5F5F4F2417350748F057
S11326204E0F5F1F5093CD0F4093CC0F8193919326
S113263002C0E0E0F0E0CF01DF91CF911F910F9154
S11326400895EF92FF920F931F93CF93DF93009718
S113265009F48FC0DC01129713961C921E921297F4
S1132660E090CE0FF090CF0FE114F10489F42D9196
S11326703C911197280F391F8091CC0F9091CD0F69
S11326808217930789F5B093CD0FA093CC0F71C037
S1132690E70120E030E001C0EA01CA17DB0738F4A3
S11326A04A815B819E0141155105B1F722C0BC01ED
S11326B062507109FB01D383C28300811181AC0193
S11326C0400F511F4C175D0761F448815981400F39
S11326D0511F4E5F5F4F518340834A815B81538317
S11326E042832115310529F4B093CF0FA093CE0F67
S11326F040C0F901B383A283E90169917991C60FBE
S1132700D71FAC17BD0779F4DC015E914E91460FDB
S1132710571F4E5F5F4F5183408312968D919C915A
S1132720139793838283A0E0B0E002C0D7017C01B9
S1132730F701828193810097C9F7C701029620812E
S11327403181820F931F2091CC0F3091CD0F281728
S1132750390779F4109729F41092CF0F1092CE0F05
S113276004C013961C921E921297F092CD0FE09221
S1132770CC0FDF91CF911F910F91FF90EF900895AF
S1132780FB01DC0102C001900D9241505040D8F78A
S10927900895F894FFCF48
S11327960000D00F20000000891112239B3224462A
S11327A6AD573665BF74488CC19D5AAFD3BE6CCA4B
S11327B6E5DB7EE9F7F88110080193331A22A55662
S11327C62C47B7753E64C99C408DDBBF52AEEDDA2B
S11327D664CBFFF976E802218B3010029913266741
S11327E6AF763444BD554AADC3BC588ED19F6EEB0B
S11327F6E7FA7CC8F5D983310A2091121803A77722
S11328062E66B5543C45CBBD42ACD99E508FEFFBEA
S113281666EAFDD874C904428D5316619F7020047C
S1132826A9153227BB364CCEC5DF5EEDD7FC6888CA
S1132836E1997AABF3BA85520C4397711E60A114E1
S11328462805B3373A26CDDE44CFDFFD56ECE998AA
S11328566089FBBB72AA06638F7214409D512225C0
S1132866AB343006B9174EEFC7FE5CCCD5DD6AA98A
S1132876E3B8788AF19B87730E6295501C41A335A1
S11328862A24B1163807CFFF46EEDDDC54CDEBB96A
S113289662A8F99A708B088481951AA793B62CC2FC
S11328A6A5D33EE1B7F04008C919522BDB3A644E72
S11328B6ED5F766DFF7C899400859BB712A6ADD239
S11328C624C3BFF136E0C1184809D33B5A2AE55E52
S11328D66C4FF77D7E6C0AA583B4188691972EE318
S11328E6A7F23CC0B5D14229CB38500AD91B666F32
S11328F6EF7E744CFD5D8BB502A499961087AFF3F9
S113290626E2BDD034C1C3394A28D11A580BE77F11
S11329166E6EF55C7C4D0CC685D71EE597F4288053
S1132926A1913AA3B3B2444ACD5B5669DF78600CF1
S1132936E91D722FFB3E8DD604C79FF516E4A990B8
S11329462081BBB332A2C55A4C4BD7795E68E11CD1
S1132956680DF33F7A2E0EE787F61CC495D52AA197
S1132966A3B03882B193466BCF7A5448DD59622DB1
S1132976EB3C700EF91F8FF706E69DD414C5ABB178
S113298622A0B9923083C77B4E6AD5585C49E33D91
S11329966A2CF11E780F08000B000E0012001600B8
S11329A61B00210027002E0036003F004C007F004C
S11329B6B300EA002B01A50128027D02D602160304
S11329C64D038303B403DF0305042C0474040000DD
S11329D6030003000300030004001800400068001D
S11329E69900CD00FF00390197012602A902400390
S11329F69103EF0318042A0434043E0445044D04E9
S9030000FC
