:100000000C9446000C9465000C9465000C946500FB
:100010000C9465000C9465000C9465000C946500CC
:100020000C9465000C9465000C9465000C946500BC
:100030000C949D0B0C9465000C9465000C947F0B44
:100040000C9465000C9465000C94B80C0C9465003D
:100050000C948F0C0C947A0C0C9465000C94650035
:100060000C9465000C9465000C9465000C9465007C
:100070000C9465000C9465000C94450C0C94650080
:100080000C941C0C0C9465000C94650011241FBE8C
:10009000CFEFD0E1DEBFCDBF14E0A0E0B1E0E2E5FC
:1000A000F8E200E00BBF02C007900D92A236B10744
:1000B000D9F720E1A2E6B4E001C01D92A43CB2074A
:1000C000E1F70E94FF060C9427140C9400008F9215
:1000D000AF92CF92EF920F93CF93DF93CDB7DEB76E
:1000E0009AE1899FF0011124EE56FB4F6083418312
:1000F000228313820483E582C68212861386A48635
:1001000085868A858687128A138A8B85848B8C855F
:10011000858B118EDF91CF910F91EF90CF90AF90A3
:100120008F9008958F92AF92CF92EF92FF920F939C
:100130001F93CF93DF9380E687B98FE886B91F922C
:10014000D3E0DF93C1EECF9386E0882EA12C91EE11
:10015000C92E2BE0E22E00E021E047E060E080E0E5
:100160000E94670087E08F93FF24F394FF92CF9360
:1001700037E0832E47E1E42E21E048E061E081E0B2
:100180000E9467001F92DF93CF93812CAA24A3942F
:1001900053E1E52E01E021E041E062E082E00E94CF
:1001A00067001F92DF93CF936EE0862E72E0A72E3A
:1001B000EDE0EE2E02E021E041E063E083E00E940A
:1001C00067001F92DF93CF9388248394AA24A3947B
:1001D000F5E1EF2E01E021E042E064E084E00E94DE
:1001E00067001F92DF93CF93A2E08A2EBAE1EB2E35
:1001F00021E043E065E085E00E9467001F92DF9305
:10020000CF9313E0812E8DE1E82E21E044E066E0FB
:1002100086E00E9467001F92DF93CF939FE1892EB3
:100220002EE0E22E21E045E067E087E00E946700D3
:100230001F92DF93CF9334E0832E4BE1E42E21E035
:1002400046E068E088E00E9467001F92DF93CF934A
:1002500058E0852E6FE0E62E21E049E069E089E074
:100260000E9467001F92DF93CF9379E0872EE9E128
:10027000EE2E21E04AE06AE08AE00E9467008DB736
:100280009EB781960FB6F8949EBF0FBE8DBF1F928A
:10029000DF93CF93FAE08F2EA8E1EA2E20E04BE027
:1002A0006BE08BE00E9467001F92DF93CF93B0E179
:1002B0008B2E11E1E12E20E04CE06CE08CE00E94FE
:1002C000670088E08F9312E01F93CF938CE0882E15
:1002D00096E1E92E21E04DE06DE08DE00E9467009F
:1002E0001F92DF93CF9326E0822EA12C34E0E32EE1
:1002F00000E021E04EE06EE08EE00E9467001F9279
:10030000DF93CF93812C43E0A42E55E1E52E02E04C
:1003100021E040E16FE08FE00E9467001F92DF93D1
:10032000CF936DE0862EAA24A39472E1E72E01E01C
:1003300021E04FE060E180E10E9467001F92DF93BF
:10034000CF93E5E08E2EFCE1EF2E20E04FEF61E150
:1003500081E10E9467001F92DF93CF93A0E18A2E74
:10036000B2E0AB2E0FE0E02E02E020E04FEF62E1C2
:1003700082E10E9467001F92DF93CF9382E1882E73
:1003800091E1E92E20E04FEF63E183E10E946700F5
:1003900089E08F931F93CF9322E0822EA12CEE242D
:1003A000E39400E021E04FEF64E184E10E94670004
:1003B0008BE08F931F93CF933EE1832E42E0A42ED8
:1003C00054E1E52E02E021E04FEF65E185E10E9476
:1003D00067008DB79EB781960FB6F8949EBF0FBE8B
:1003E0008DBF1F92DF93CF9363E0862EA12C77E021
:1003F000E72E00E021E04FEF66E186E10E94670012
:100400001F921F93CF93E4E18E2EF2E1EF2E21E0B5
:100410004FEF67E187E10E946700FF921F93CF9340
:10042000A5E18A2EB3E1EB2E21E04FEF68E188E1F0
:100430000E9467001F931F93CF9386E1882E9AE056
:10044000E92E21E04FEF69E189E10E946700DF9327
:100450001F93CF9327E1822E3FE0E32E21E04FEF61
:100460006AE18AE10E94670084E08F931F93CF9333
:1004700048E1842E59E0E52E21E04FEF6BE18BE15E
:100480000E9467001F92DF93CF9369E1862E7EE082
:10049000E72E21E04FEF6CE18CE10E9467001F9294
:1004A000DF93CF93EAE18E2EF0E1EF2E21E04FEFC4
:1004B0006DE18DE10E9467001F92DF93CF93ABE166
:1004C0008A2EB8E0EB2E21E04FEF6EE18EE10E9424
:1004D000670085E08F931F93CF938CE1882E9DE07A
:1004E000E92E21E04FEF6FE18FE10E9467001F923C
:1004F000DF93CF932DE1822E3CE0E32E21E04FEFFE
:1005000060E280E20E9467008DB79EB781960FB6C9
:10051000F8949EBF0FBE8DBF1F92DF93CF934EE125
:10052000842E5BE0E52E21E04FEF61E281E20E9444
:1005300067001F92DF93CF936FE1862E71E1E72E64
:1005400021E04FEF62E282E20E94670086E08F9333
:100550001F93CF93812CE5E0EE2E21E04FEF63E275
:1005600083E20E9467008DB79EB709960FB6F89494
:100570009EBF0FBE8DBFDF91CF911F910F91FF9056
:10058000EF90CF90AF908F900895FF920F931F93AD
:10059000CF93DF93F82EFB01C1819081933009F452
:1005A0005AC030F40C2F10E0913011F190F50CC0CE
:1005B000953009F455C008F450C0963009F460C075
:1005C000973009F07BC06BC08CE28093AF0E8AE15C
:1005D000809FE001819FD00D1124CE56DB4F898191
:1005E0008F3F21F00E940E0881E08A8340E00FC017
:1005F0008AE1809FE001819FD00D1124CE56DB4F10
:1006000089818F3F19F00E9451081A8241E062E00F
:1006100057C08AE1809FE001819FD00D1124CE5602
:10062000DB4F89818F3F19F00E9451081A8285E0C3
:100630008A95F1F78AE1809FE001819FD00D112416
:10064000CE56DB4F89818F3F21F00E940E0881E05A
:100650008A8342E0DCCF43E0DACF40E060E030C0A4
:100660008AE1C89FE0011124CE56DB4F89818F3F7C
:1006700029F00E940E0881E08A838B8345E0C7CF72
:100680008AE1C89FE0011124CE56DB4F89818F3F5C
:10069000F9F082818E8382818093910C19C08AE166
:1006A000C89FE0011124CE56DB4F89818F3F81F036
:1006B00082818E87828180938C0C0AC040E061E049
:1006C0008F2DDF91CF911F910F91FF900C94881087
:1006D000DF91CF911F910F91FF900895CF9390914B
:1006E000810A9F3F09F4C2C080916B0A882309F4F4
:1006F000BDC08091820A882321F081E08093BA0EE8
:1007000002C01092BA0E8091BA0E882319F09F375A
:1007100020F0A0C0983708F09DC0953608F495C029
:10072000C09162042C2F2F5F209362048823F1F183
:100730008091950E9A3620F48295869586950BC009
:10074000292F2A5682958695869583702A3010F433
:100750008F5F01C08E5F83708093AD0EE92FF0E054
:10076000E556F109EE0FFF1FEE0FFF1FE80FF11D19
:10077000EE0FFF1FEA5FFC4F608171816B507109C2
:1007800080E090E00E94061228EB3EE149E251E44D
:100790000E949E1160934108709342088093430821
:1007A00090934408C95FC093620460C09A3630F4E5
:1007B0008091950E82958695869517C0892F8A56C9
:1007C0008A3040F48091950E829586958695837047
:1007D0008F5F0BC0892F8457833048F48091950E2A
:1007E00082958695869583708E5F837001C080E0C8
:1007F0008093AD0EE7E7F0E0E91BF109EE0FFF1F74
:10080000EE0FFF1FE81BF109EE0FFF1FEE51FC4F2B
:100810006081718180E090E00E94061228EB3EE149
:1008200041E251E40E949E119B01AC0160E070E046
:1008300088EC92E40E94351160934108709342085D
:10084000809343089093440811C080E090E0A0E8B2
:10085000BFEB04C080E090E0A8EDB2E480934108D3
:1008600090934208A0934308B09344088091820A71
:1008700081508E3F28F4809162048F5F80936204E0
:10088000CF91089580E090E3AFE1B6E48093880AC9
:100890009093890AA0938A0AB0938B0A8CE59FE80B
:1008A000A4E9B1E480935A0A90935B0AA0935C0A8E
:1008B000B0935D0A8DEC9CECA8E3B3E480937F04D5
:1008C00090938004A0938104B093820486E696EE10
:1008D000A5E2B4E48093A10E9093A20EA093A30E80
:1008E000B093A40E86E696EAA1E5B4E48093BD0E2B
:1008F0009093BE0EA093BF0EB093C00E81EE9AEF00
:10090000ACE9B2E480937C0A90937D0AA0937E0ABE
:10091000B0937F0A86E696ECA7E0B4E480933A08A9
:1009200090933B08A0933C08B0933D0880E090EB87
:10093000A7E1B5E48093780A9093790AA0937A0AA4
:10094000B0937B0A80E098E9AEEAB5E48093B20EFA
:100950009093B30EA093B40EB093B50E089580E0BB
:1009600096E1A9E8B6E480934F0890935008A093CD
:100970005108B093520888EB93EC90939E0E8093AD
:100980009D0E8AEE98EB9093A80E8093A70E8FE6AB
:100990009CE990933F0880933E0885E99CE2909300
:1009A000710A8093700A81E79AEA90937D0480939C
:1009B0007C048AEC98E39093650A8093640A82E051
:1009C00093E09093A00E80939F0E8DEA97E0909312
:1009D000A60E8093A50E80E895E190935908809328
:1009E00058088EE49CEF90935708809356088BE349
:1009F00093E090939C0E80939B0E8CED9BE6AEE271
:100A0000B0E48093450890934608A0934708B093BC
:100A1000480880E895E5A2ECB1E180936C0A9093D8
:100A20006D0AA0936E0AB0936F0A80EA9CE3A3E775
:100A3000BCE08093870490938804A0938904B093CA
:100A40008A0480EA96E6ACEFB9E180938C04909337
:100A50008D04A0938E04B0938F0480E295EBA4EAFA
:100A6000B6EF8093670A9093680AA093690AB093DF
:100A70006A0A80E992ECADEBBBE080935F0A909349
:100A8000600AA093610AB093620A88E89BE7A5E830
:100A9000BBEF8093A90E9093AA0EA093AB0EB093D8
:100AA000AC0E8CED93ECA6E0BFEF809378049093AE
:100AB0007904A0937A04B0937B048AE69DEAA7EDBB
:100AC000BFEF8093910E9093920EA093930EB093EC
:100AD000940E8CEB90EEA4E6BFEF809363049093AA
:100AE0006404A0936504B093660482EC96ECAAEBD0
:100AF000BEE380938D0C90938E0CA0938F0CB093DB
:100B0000900C0895EF92FF920F931F93CF93DF9372
:100B10001FEF1ABB87E08BBB17BB80EE88BB14BBF3
:100B200015BB8BEF81BB80EF82BB9EEF92B913B8F0
:100B300080936100109262008FE18093640004E072
:100B40000093650082E087BF87E481BF8FE083BFA9
:100B500083E680938A0C87EC80938B0C80E890E787
:100B60009BBD8ABD8DE08EBD84E88093AE0E8CE285
:100B70008093AF0E0E94EB091092840410928304BC
:100B80001092860410928504109253081092540813
:100B90008AE090E00E94E4127C01E6EBFEE08083B4
:100BA000F1828AE090E00E94E412C8EBDEE08883E4
:100BB00099834FEF50E063E97CE0C7010E94110A7E
:100BC0004FEF50E062E97DE0888199810E94110A2F
:100BD0001092BB0E1092BC0E0E9492007894C1E05D
:100BE000C093590A109291040093660A1092770AF2
:100BF0001092910C10928C0C1092630A10925E0A63
:100C000010929A0E10928B041092830A0E94420452
:100C10000E94AF041093810A1093920C10934A081B
:100C20001092B10E1092900410924908109255083B
:100C30001092410810924208109243081092440802
:100C40001092BF101092720A1092800A10924008FF
:100C50001092BA0E10926B0A10927E04C093670431
:100C6000A0917304CAE1CA9FD0011124AE56BB4FB4
:100C700011968C910E945108E0917404CE9FF0016E
:100C80001124EE56FB4F81810E94510810924E06AE
:100C9000109268061092820681E10E94D70782E1D5
:100CA0000E94D70783E1DF91CF911F910F91FF90B1
:100CB000EF900C94D70789EA96E00E9494088093FD
:100CC000B10E833010F08DED01C08CEC80934A089A
:100CD0000895CF92DF92EF92FF920F931F93CF93DD
:100CE000DF93C0904108D0904208E0904308F09014
:100CF000440820E030E0A901C701B6010E949A1122
:100D000087FF4CC029E23CE54FE05FEBC701B6012D
:100D10000E949A1187FF0AC025E83BEE41E15FEB94
:100D2000C701B6010E94B8121816C4F181E0809381
:100D3000630A08E614E03AE1F32EF801C1918F014D
:100D4000FC9EE0011124CE56DB4F89810E945108A0
:100D50001A82F4E008371F0781F710924E061092AE
:100D600068061092820681E10E94D70782E10E9404
:100D7000D70783E10E94D70780915E0A811108C0DE
:100D800080918B04811104C040E062E00E948810D1
:100D900081E080938B0480935E0A28C020E030E0DD
:100DA00048EC52E4C701B6010E94B8121816F4F4D8
:100DB0008091BA0E8823D1F01092630A8091E505E4
:100DC0000E940E0881E08093E60580919A0E8111C1
:100DD00008C08091830A811104C044E662E00E9449
:100DE000881081E08093830A80939A0EDF91CF91DF
:100DF0001F910F91FF90EF90DF90CF9008950E9488
:100E000082051092580A11E0C7ECDCE28091580A82
:100E1000912F981B9093580A80918B0C811107C0D9
:100E2000C0938B0C40E060E081E00E9488108091CC
:100E30008A0C811106C0C0938A0C40E060E00E94D9
:100E400088108091BB0E8823C9F08091BB0E815021
:100E50008093BB0EE091B60EF091B70E6181728166
:100E6000478180E00E94C5024FEF50E063E97CE0DB
:100E70008091B60E9091B70E0E94110A8091BC0E1F
:100E80008823C9F08091BC0E81508093BC0EE09104
:100E9000B80EF091B90E61817281478181E00E94A4
:100EA000C5024FEF50E062E97DE08091B80E90916D
:100EB000B90E0E94110A8091590A813091F4109262
:100EC000590A0E94CB080E946E038091400881114C
:100ED00002C00E94690680919104873111F40E943A
:100EE0005B0680917E04813009F090CF10927E04E1
:100EF000D093AF0E8BCFA898E5E6F0E080818D7F90
:100F0000808308958130F9F020F0823009F04EC0DE
:100F100034C064FF02C0DF9A01C0DF9863FF02C0E3
:100F2000DE9A01C0DE9862FF02C0DD9A01C0DD9842
:100F300061FF02C0DC9A01C0DC9860FF02C0DB9A4E
:100F40000895DB98089564FF02C0C09A01C0C0985C
:100F500063FF02C0C19A01C0C19862FF02C0C29A79
:100F600001C0C29861FF02C0C39A01C0C39860FF6C
:100F700002C0C49A0895C498089564FF02C01B9AE1
:100F800001C01B9863FF02C01C9A01C01C9862FF3D
:100F900002C01D9A01C01D9861FF02C01E9A01C0C7
:100FA0001E9860FF02C01F9A08951F98089582310D
:100FB00031F0833159F0813199F40C947B078091A1
:100FC00065008E7F809365009098089580916500FC
:100FD000877F80936500809165008F7E8093650098
:100FE0000895823149F0833171F08131B1F4A89ACA
:100FF0008091650082600FC0809165008160809360
:101000006500909A089580916500886080936500DE
:10101000809165008061809365000895883059F162
:1010200068F4843001F130F48230C9F0D0F48130BA
:10103000B9F513C08630D9F0E0F417C08C3039F11F
:1010400020F48A3001F108F518C08E3021F108F142
:101050008F3019F1803121F522C0D89A0895D99A9C
:101060000895DA9A0895C59A0895C69A0895C79A78
:101070000895949A0895959A0895809165008460E2
:10108000809365000895AF9A0895AE9A0895AD9A39
:101090000895AC9A0895AB9A0895AA9A0895A99ACA
:1010A0000895883059F168F4843001F130F48230C9
:1010B000C9F0D0F48130B9F513C08630D9F0E0F42E
:1010C00017C08C3039F120F48A3001F108F518C0CE
:1010D0008E3021F108F18F3019F1803121F522C0D5
:1010E000D8980895D9980895DA980895C5980895DC
:1010F000C6980895C7980895949808959598089566
:10110000809165008B7F809365000895AF98089566
:10111000AE980895AD980895AC980895AB98089549
:10112000AA980895A9980895FC012181808190E0F2
:10113000820F911D2281820F911D63E070E00E9459
:10114000BC12862F08959AE1899FF0011124EE5672
:10115000FB4F8389882311F0138A0895CF010F96DE
:101160000C9494089AE1899FF0011124EE56FB4FEC
:101170008385882311F013860895CF0107960C9478
:10118000940890E697B997B19C7F97B997B1982B3F
:1011900097B9369A08951F93CF93DF938091660A8B
:1011A000C0919104823009F461C020F4813009F0CB
:1011B000F8C007C0833009F4B8C0843009F0F1C02A
:1011C000DCC08AE1C89FE0011124CE56DB4F2A859E
:1011D00030E0C901019663E070E00E94D0128A8776
:1011E0009881943189F48091770A8093810A809163
:1011F000B00E8093950E8091770A8093720A809149
:10120000B00E8093800A06C0953121F48091770A50
:101210008093920C8091770AFE01E20FF31F87837F
:101220002091770A8E818217D8F48B818130C1F0AA
:1012300089818F3F19F00E9451080EC0923139F018
:10124000933139F0913141F40E947B0705C082E16E
:1012500001C083E10E94D7071A828091770A8B87A9
:1012600082E08093660A1C856D8592C09AE1C99FD1
:10127000E0011124CE56DB4F2A8930E0C9010196E6
:1012800063E070E00E94D0128A8B9881973139F424
:101290008091770A8093820A81E080936B0A809123
:1012A000770AFE01E20FF31F87872091770A8E8568
:1012B0008217D8F48B818130C1F089818F3F19F07A
:1012C0000E9451080EC0923139F0933139F09131BA
:1012D00041F40E947B0705C082E101C083E10E94C6
:1012E000D7071A828091770A8B8B1C89133029F0DB
:1012F00083E08093660A6D894BC081E08093660A23
:101300008091910490E0019664E270E00E94D01216
:10131000809391042AE1289FF001299FF00D112468
:10132000EE56FB4F1481658133C0D0E04AE14C9FFB
:10133000F0014D9FF00D1124EE56FB4F218D30E052
:10134000C901019663E070E00E94D012818F809104
:10135000770AE20FF31F868B81E08093660ACE0145
:10136000019664E270E00E94D01280939104489F3D
:10137000F001499FF00D11241DC081E08093660AA1
:101380009AE1C99FE0011124CE56DB4F1C816D818B
:10139000812F0E94820783E393E70197F1F7812F62
:1013A00015C081E08093660AE09191049AE1E99F7B
:1013B000F0011124EE56FB4FC48165818C2F0E94F1
:1013C000820783E393E70197F1F78C2FDF91CF91A9
:1013D0001F910C94C10887E08093990089B988E136
:1013E0008AB9EAE9F0E0808380818064808380812B
:1013F00080688083569A579A0895FB012081318135
:10140000F901E827FF27EE0FFF1FEA5FFE4F232FAA
:1014100033278081918182279327FB0191838083E9
:101420000895FC0110827283618356834583108680
:10143000178214821382118608954F925F926F92E1
:101440007F928F929F92AF92BF92CF92DF92EF9254
:10145000FF920F931F93CF93DF9300D01F92CDB7CE
:10146000DEB76C015B0179011A821982009709F4D9
:1014700058C02115310509F454C04C3018F04833D8
:1014800009F051C044244394512C4C0E5D1EB2010E
:10149000842F4B830E94FD093701600E711E4701A6
:1014A00007C0B201F40181914F014B830E94FD09F5
:1014B0004B8186149704A9F789819A81F701E00F7F
:1014C000F11F908381830E5F1F4F80ECF6018083B4
:1014D0004183D70142E050E02DED3BED6CED0FC0B4
:1014E0008D91803C19F43083618304C080838B3DEF
:1014F00021F421834E5F5F4F02C04F5F5F4FCD01EC
:101500008E199F09F601E40FF51F8017910740F32C
:1015100080EC80834F5F5F4FF5015183408381E012
:1015200003C085E001C086E00F900F900F90DF911F
:10153000CF911F910F91FF90EF90DF90CF90BF90D0
:10154000AF909F908F907F906F905F904F90089595
:10155000CF92DF92EF92FF920F931F93CF93DF937F
:10156000EC0129813A812115310509F484C08F816C
:1015700098854D815E81415051098417950708F087
:101580007CC04985423039F118F4442331F038C029
:10159000403131F04032A1F50AC0603C91F50DC0F8
:1015A0006C3018F0683309F06AC0688326C0603C6C
:1015B00031F4892B11F081E021C080E11FC06B3D27
:1015C00011F482E01BC0F901E80FF91F6083019656
:1015D00098878F8316C06C3D29F4F901E80FF91F35
:1015E00040EC07C06D3D09F04CC0F901E80FF91F50
:1015F0004BED4083019698878F8380E2898701C0F5
:1016000019868985813011F089853CC089819A814C
:101610004F815885840F951FFC013297308120E05F
:10162000FC01319780816901C80ED11C42505109DB
:1016300058874F837E0183E0E80EF11CB701888153
:101640000E94FD0900E010E00AC0E981FA81E00F84
:10165000F11FB70180810E94FD090F5F1F4F8F812D
:1016600098850817190788F38B819C818C159D0537
:1016700059F284E007C085E005C083E003C086E03E
:1016800001C087E0DF91CF911F910F91FF90EF9004
:10169000DF90CF900895282F30E0F901ED5AF74FF1
:1016A0006081D901AA0FBB1FAD57BB4F4D915C9113
:1016B00070E06417750710F581110EC080819FEFEF
:1016C000929FD001939FB00D1124A80FB11DA65A6F
:1016D000B74F9C919CB910C0813081F480819FEFFD
:1016E000929FD001939FB00D1124A80FB11DA65A4F
:1016F000B74F9C9190939C008F5F808308951F92B9
:101700000F920FB60F9211248F9380918A0C882329
:1017100029F080918A0C815080938A0C80918B0CE7
:10172000882329F080918B0C815080938B0C8F91B2
:101730000F900FBE0F901F9018951F920F920FB62B
:101740000F9211240BB60F922F933F934F935F93F9
:101750006F937F938F939F93AF93BF93CF93EF93A9
:10176000FF938091AE0E811131C080916704882370
:1017700069F184E88093AE0E8091B1050E940E0855
:10178000C1E0C093B2058091CB050E940E08C093C2
:10179000CC0580914D060E940E08C0934E068091A4
:1017A00067060E940E08C0936806809181060E9419
:1017B0000E08C093820681E10E94F10782E10E9437
:1017C000F10783E10E94F107109267048091AF0E48
:1017D000811107C080917E04811103C081E0809354
:1017E0007E0485B391E0892785BB2FEF8FE796E1D3
:1017F000215080409040E1F700C000008091AE0E83
:1018000081508093AE0E8091AF0E81508093AF0EC9
:10181000FF91EF91CF91BF91AF919F918F917F9168
:101820006F915F914F913F912F910F900BBE0F9051
:101830000FBE0F901F9018951F920F920FB60F9228
:1018400011240BB60F922F933F934F935F936F9397
:101850007F938F939F93AF93BF93EF93FF9381E019
:101860000E944B0BFF91EF91BF91AF919F918F9190
:101870007F916F915F914F913F912F910F900BBE90
:101880000F900FBE0F901F9018951F920F920FB6DA
:101890000F9211240BB60F922F933F934F935F93A8
:1018A0006F937F938F939F93AF93BF93EF93FF9328
:1018B00060919C008091B80E9091B90E0E94A80A88
:1018C000813029F48091BC0E8F5F8093BC0EFF9114
:1018D000EF91BF91AF919F918F917F916F915F91A8
:1018E0004F913F912F910F900BBE0F900FBE0F9015
:1018F0001F9018951F920F920FB60F9211248F937D
:1019000084B18093B00E85B18093770A81E0809393
:10191000590A8F910F900FBE0F901F9018951F922C
:101920000F920FB60F9211240BB60F922F933F9385
:101930004F935F936F937F938F939F93AF93BF93D7
:10194000EF93FF9380E00E944B0BFF91EF91BF91CB
:10195000AF919F918F917F916F915F914F913F9147
:101960002F910F900BBE0F900FBE0F901F901895E8
:101970001F920F920FB60F9211240BB60F922F9356
:101980003F934F935F936F937F938F939F93AF9307
:10199000BF93EF93FF936CB18091B60E9091B70E09
:1019A0000E94A80A813029F48091BB0E8F5F80933A
:1019B000BB0EFF91EF91BF91AF919F918F917F915E
:1019C0006F915F914F913F912F910F900BBE0F90B0
:1019D0000FBE0F901F901895823010F40C944B0B93
:1019E00008952F923F924F925F926F927F928F92C3
:1019F0009F92AF92BF92CF92DF92EF92FF920F939E
:101A00001F93CF93DF93CDB7DEB728970FB6F89427
:101A1000DEBF0FBECDBF98878F83DC011C92309153
:101A20009805330F8091B205B4E08B9FC00111245B
:101A3000382B80917E05382B8091CC05E8E08E9F75
:101A4000C0011124382B80911A06F0E18F9FC0014C
:101A50001124382B8091340620E2829FC00111248A
:101A6000382B40916806440F8091820654E0859F90
:101A7000C0011124482B80914E06482BE6EEF5E07C
:101A80008081A8E08A9FC0011124482B2091AE04D8
:101A9000220F8091C804B4E08B9FC0011124282B31
:101AA00080919404282B8091FC0458E0859FC0010C
:101AB0001124282B80911605A0E18A9FC0011124D2
:101AC000282B80913005B0E28B9FC0011124282B78
:101AD00080914A0550E4859FC0011124282B8091F4
:101AE0006405A0E88A9FC0011124282BAF81B88526
:101AF00011962C93119712963C93129713964C9330
:101B0000139789E914968C931497808115968C937A
:101B100022E9622E24E0722EF30180810E94B20835
:101B2000AF81B88516968C933CEA832E34E0932ED1
:101B3000F40180810E94B208AF81B88517968C931A
:101B400046ECA42E44E0B42EF50180810E94B20838
:101B5000AF81B88518968C9350EEC52E54E0D52EE3
:101B6000F60180810E94B208AF81B88519968C93E6
:101B70006AEFE62E64E0F62EF70180810E94B2083B
:101B8000AF81B8851A968C930EE215E0F80180813A
:101B90000E94B208AF81B8851B968C93E8E4F5E00B
:101BA00080810E94B208AF81B8851C968C9372E642
:101BB000472E75E0572EF20180810E94B208AF8156
:101BC000B8851D968C93ECE72E2EE5E03E2EF101B4
:101BD00080810E94B208AF81B8851E968C9326E959
:101BE00035E0F901808129833A830E94B208AF81F0
:101BF000B8851F968C9340EB55E0FA0180814B83AA
:101C00005C830E94B208AF81B88550968C936AECD1
:101C100075E0FB0180816D837E830E94B208AF81F5
:101C2000B88551968C93E8E1F6E080810E94B20875
:101C3000AF81B88552968C93E2E3F6E080810E94F2
:101C4000B208AF81B88553968C93ECE4F6E08081BE
:101C50000E94B208AF81B88554968C93E6E6F6E010
:101C600080810E94B208AF81B88555968C93E0E8D8
:101C7000F6E080810E94B208AF81B88556968C93B9
:101C8000EAE9F6E080810E94B208AF81B8855796F4
:101C90008C93E4EBF6E080810E94B208AF81B885B6
:101CA00058968C93EEECF6E080810E94B208AF81EA
:101CB000B88559968C93E8EEF6E080810E94B208D0
:101CC000AF81B8855A968C93E2E0F7E080810E945C
:101CD000B208AF81B8855B968C93ECE1F7E0808128
:101CE0000E94B208AF81B8855C968C93E6E3F7E07A
:101CF00080810E94B208AF81B8855D968C93E0E543
:101D0000F7E080810E94B208AF81B8855E968C931F
:101D1000EAE6F7E080810E94B208AF81B8855F965D
:101D20008C93E4E8F7E080810E94B208AF81B88527
:101D300090968C93EEE9F7E080810E94B208AF8123
:101D4000B88591968C93E8EBF7E080810E94B20809
:101D5000AF81B88592968C93E2EDF7E080810E9486
:101D6000B208AF81B88593968C93ECEEF7E0808152
:101D70000E94B208AF81B88594968C93E6E0F8E0B3
:101D800080810E94B208AF81B88595968C9380912E
:101D900020080E94B208EF81F88586A317A210A63A
:101DA00011A612A613A6D3018C910E94A308EF815D
:101DB000F88584A7D4018C910E94A308EF81F8854F
:101DC00085A7D5018C910E94A308EF81F88586A78D
:101DD000D6018C910E94A308EF81F88587A7D701CF
:101DE0008C910E94A308EF81F88580ABD8018C917B
:101DF0000E94A308EF81F88581ABA8E4B5E08C913F
:101E00000E94A308EF81F88582ABD2018C910E94D9
:101E1000A308EF81F88583ABD1018C910E94A308C0
:101E2000EF81F88584AB29813A81D9018C910E9498
:101E3000A308EF81F88585AB4B815C81DA018C9139
:101E40000E94A308EF81F88586AB6D817E81DB015E
:101E50008C910E94A308EF81F88587ABA8E1B6E0DA
:101E60008C910E94A308EF81F88580AFA2E3B6E0D1
:101E70008C910E94A308EF81F88581AFACE4B6E0B5
:101E80008C910E94A308EF81F88582AFA6E6B6E0A8
:101E90008C910E94A308EF81F88583AFA0E8B6E09B
:101EA0008C910E94A308EF81F88584AFAAE9B6E07F
:101EB0008C910E94A308EF81F88585AFA4EBB6E072
:101EC0008C910E94A308EF81F88586AFAEECB6E056
:101ED0008C910E94A308EF81F88587AFA8EEB6E049
:101EE0008C910E94A308EF81F885E05CFF4F80830E
:101EF000E2E0F7E080810E94A308EF81F885EF5BC4
:101F0000FF4F8083ACE1B7E08C910E94A308EF8182
:101F1000F885EE5BFF4F8083E6E3F7E080810E9467
:101F2000A308EF81F885ED5BFF4F8083A0E5B7E064
:101F30008C910E94A308EF81F885EC5BFF4F8083B2
:101F4000EAE6F7E080810E94A308EF81F885EB5B69
:101F5000FF4F8083A4E8B7E08C910E94A308EF8133
:101F6000F885EA5BFF4F8083EEE9F7E080810E940D
:101F7000A308EF81F885E95BFF4F8083A8EBB7E00A
:101F80008C910E94A308EF81F885E85BFF4F808366
:101F9000E2EDF7E080810E94A308EF81F885E75B1E
:101FA000FF4F8083ACEEB7E08C910E94A308EF81D5
:101FB000F885E65BFF4F8083E6E0F8E080810E94D1
:101FC000A308EF81F885E55BFF4F8083EF81F885FB
:101FD000E45BFF4F8FEF8083EF81F885E35BFF4F7A
:101FE0009091810A9083EF81F885E25BFF4F909199
:101FF000BF109083EF81F885E15BFF4F1082EF8186
:10200000F885E05BFF4F1082EF81F885EF5AFF4FB4
:102010001082EF81F885EE5AFF4F90914908908326
:10202000EF81F885ED5AFF4F80838AEC96E00E949D
:102030009408EF81F885EC5AFF4F80838EEF96E08D
:102040000E949408EF81F885EB5AFF4F808388E166
:1020500097E00E949408EF81F885EA5AFF4F808349
:1020600082E397E00E949408EF81F885E95AFF4FD8
:1020700080838CE497E00E949408EF81F885E85A09
:10208000FF4F808386E697E00E949408EF81F885F1
:10209000E75AFF4F80838EEC97E00E949408EF810F
:1020A000F885E65AFF4F808386E398E00E94940803
:1020B000EF81F885E55AFF4F80838091910C109253
:1020C000910CEF81F885E45AFF4F808380918C0C4E
:1020D00010928C0CEF81F885E35AFF4F808328968D
:1020E0000FB6F894DEBF0FBECDBFDF91CF911F9129
:1020F0000F91FF90EF90DF90CF90BF90AF909F90A7
:102100008F907F906F905F904F903F902F900895A9
:102110006F927F928F929F92BF92CF92DF92EF92B7
:10212000FF920F931F93CF93DF93B82E6130B9F0D6
:1021300020F0623009F08BC022C0C82FD0E02FEF12
:10214000829FC00111248F53914F0E94F10CFE0118
:10215000EE0FFF1FE55BF74F80E690E021C0E82F10
:10216000F0E08FEFB89ED0011124AF53B14F6C93C4
:10217000EE0FFF1FE55BF74F81E090E011C0E82F05
:10218000F0E02FEF829FD0011124AF53B14F6C9339
:1021900011964C93EE0FFF1FE55BF74F82E090E046
:1021A000918380838B2C912C8FEFB89E700111242A
:1021B000E701C457D54F6401CC0CDD1CF601E55B8B
:1021C000F74F0081118197012F53314FA6E96A2EF5
:1021D000AEE07A2E6C0C7D1C41E0B301CE010E9472
:1021E0001D0A8130A1F5F30180819181F601ED573F
:1021F000FB4F91838083808191819701265A374FCD
:10220000AC01BE01C9010E941E14F401ED5AF74F42
:102210001082F1E0BF1206C080919B008823B9F0C4
:1022200081E006C0B11013C08BB1882381F080E03B
:10223000DF91CF911F910F91FF90EF90DF90CF90A2
:10224000BF909F908F907F906F900C94EC0CDF91DB
:10225000CF911F910F91FF90EF90DF90CF90BF90A3
:102260009F908F907F906F9008955058BB27AA271A
:102270000ED044C135D130F03AD120F031F49F3F37
:1022800011F41EF42AC10EF4E095E7FB20C1E92FFA
:1022900046D180F3BA17620773078407950718F0D1
:1022A00071F49EF55EC10EF4E0950B2EBA2FA02DB1
:1022B0000B01B90190010C01CA01A0011124FF27F3
:1022C000591B99F0593F50F4503E68F11A16F040EE
:1022D000A22F232F342F4427585FF3CF46953795ED
:1022E0002795A795F0405395C9F77EF41F16BA0BB2
:1022F000620B730B840BBAF09150A1F0FF0FBB1F60
:10230000661F771F881FC2F70EC0BA0F621F731FA8
:10231000841F48F4879577956795B795F7959E3F05
:1023200008F0B3CF9395880F08F09927EE0F979593
:1023300087950895A8D008F481E008950CD0DEC0F8
:10234000D6D040F0CDD030F021F45F3F19F0BFC0BF
:10235000511108C1C2C0E3D098F39923C9F35523A2
:10236000B1F3951B550BBB27AA2762177307840788
:1023700038F09F5F5F4F220F331F441FAA1FA9F33E
:1023800033D00E2E3AF0E0E830D091505040E69530
:10239000001CCAF729D0FE2F27D0660F771F881F91
:1023A000BB1F261737074807AB07B0E809F0BB0B80
:1023B000802DBF01FF2793585F4F2AF09E3F5105A4
:1023C00068F085C0CFC05F3FECF3983EDCF38695A4
:1023D00077956795B795F7959F5FC9F7880F911D1A
:1023E0009695879597F90895E1E0660F771F881F06
:1023F000BB1F621773078407BA0720F0621B730BB9
:10240000840BBA0BEE1F88F7E0950895E89409C095
:1024100097FB3EF490958095709561957F4F8F4F17
:102420009F4F9923A9F0F92F96E9BB279395F6952D
:10243000879577956795B795F111F8CFFAF4BB0FAB
:1024400011F460FF1BC06F5F7F4F8F4F9F4F16C00F
:10245000882311F096E911C0772321F09EE8872F99
:10246000762F05C0662371F096E8862F70E060E055
:102470002AF09A95660F771F881FDAF7880F9695CE
:10248000879597F90895990F0008550FAA0BE0E872
:10249000FEEF16161706E807F907C0F01216130626
:1024A000E407F50798F0621B730B840B950B39F466
:1024B0000A2661F0232B242B252B21F408950A26CC
:1024C00009F4A140A6958FEF811D811D089597F90C
:1024D0009F6780E870E060E008959FEF80EC0895CA
:1024E00000240A94161617061806090608950024F3
:1024F0000A9412161306140605060895092E03946D
:10250000000C11F4882352F0BB0F40F4BF2B11F4E0
:1025100060FF04C06F5F7F4F8F4F9F4F089557FD3F
:102520009058440F551F59F05F3F71F04795880F41
:1025300097FB991F61F09F3F79F0879508951216D8
:1025400013061406551FF2CF4695F1DF08C0161684
:1025500017061806991FF1CF869571056105089435
:102560000895E894BB2766277727CB0197F908954C
:102570008ADF08F48FEF0895AA1BBB1B51E107C047
:10258000AA1FBB1FA617B70710F0A61BB70B881F03
:10259000991F5A95A9F780959095BC01CD01089592
:1025A00097FB072E16F4009407D077FD09D00E9400
:1025B000BC1207FC05D03EF4909581959F4F08957D
:1025C000709561957F4F08950F931F93CF93DF937D
:1025D0008230910510F482E090E0E091C210F09119
:1025E000C31020E030E0C0E0D0E023C04081518142
:1025F00048175907A8F04817590761F48281938159
:10260000209719F09B838A832EC09093C3108093E8
:10261000C21029C02115310529F04217530710F0C7
:10262000A90102C0BE01DF0102811381EF019A01FD
:10263000F8013097D9F62115310509F1281B390B1E
:102640002430310590F412968D919C911397611569
:10265000710521F0FB019383828304C09093C31022
:102660008093C210FD01329644C0FD01E20FF31FBA
:1026700081939193225031092D933C933AC020913C
:10268000C0103091C110232B41F4209102013091F0
:1026900003013093C1102093C010209100013091AC
:1026A00001012115310541F42DB73EB740910401D8
:1026B00050910501241B350BE091C010F091C11021
:1026C000E217F307A0F42E1B3F0B2817390778F009
:1026D000AC014E5F5F4F2417350748F04E0F5F1F68
:1026E0005093C1104093C0108193919302C0E0E0D9
:1026F000F0E0CF01DF91CF911F910F910895EF92FC
:10270000FF920F931F93CF93DF93009709F48FC02D
:10271000DC01129713961C921E921297E090C21041
:10272000F090C310E114F10489F42D913C911197BC
:10273000280F391F8091C0109091C1108217930704
:1027400089F5B093C110A093C01071C0E70120E0DB
:1027500030E001C0EA01CA17DB0738F44A815B8127
:102760009E0141155105B1F722C0BC0162507109AB
:10277000FB01D383C28300811181AC01400F511F43
:102780004C175D0761F448815981400F511F4E5F1E
:102790005F4F518340834A815B815383428321157C
:1027A000310529F4B093C310A093C21040C0F901C1
:1027B000B383A283E90169917991C60FD71FAC1742
:1027C000BD0779F4DC015E914E91460F571F4E5FB5
:1027D0005F4F5183408312968D919C911397938301
:1027E0008283A0E0B0E002C0D7017C01F7018281C2
:1027F00093810097C9F7C701029620813181820F2A
:10280000931F2091C0103091C1102817390779F417
:10281000109729F41092C3101092C21004C013969E
:102820001C921E921297F092C110E092C010DF919C
:10283000CF911F910F91FF90EF900895FB01DC0164
:1028400002C001900D9241505040D8F70895F8947D
:02285000FFCFB8
:102852000000C41020000000891112239B3224467C
:10286200AD573665BF74488CC19D5AAFD3BE6CCA92
:10287200E5DB7EE9F7F88110080193331A22A556A9
:102882002C47B7753E64C99C408DDBBF52AEEDDA72
:1028920064CBFFF976E802218B3010029913266788
:1028A200AF763444BD554AADC3BC588ED19F6EEB52
:1028B200E7FA7CC8F5D983310A2091121803A77769
:1028C2002E66B5543C45CBBD42ACD99E508FEFFB32
:1028D20066EAFDD874C904428D5316619F702004C4
:1028E200A9153227BB364CCEC5DF5EEDD7FC688812
:1028F200E1997AABF3BA85520C4397711E60A11429
:102902002805B3373A26CDDE44CFDFFD56ECE998F1
:102912006089FBBB72AA06638F7214409D51222507
:10292200AB343006B9174EEFC7FE5CCCD5DD6AA9D1
:10293200E3B8788AF19B87730E6295501C41A335E8
:102942002A24B1163807CFFF46EEDDDC54CDEBB9B1
:1029520062A8F99A708B088481951AA793B62CC243
:10296200A5D33EE1B7F04008C919522BDB3A644EB9
:10297200ED5F766DFF7C899400859BB712A6ADD280
:1029820024C3BFF136E0C1184809D33B5A2AE55E99
:102992006C4FF77D7E6C0AA583B4188691972EE35F
:1029A200A7F23CC0B5D14229CB38500AD91B666F79
:1029B200EF7E744CFD5D8BB502A499961087AFF340
:1029C20026E2BDD034C1C3394A28D11A580BE77F59
:1029D2006E6EF55C7C4D0CC685D71EE597F428809B
:1029E200A1913AA3B3B2444ACD5B5669DF78600C39
:1029F200E91D722FFB3E8DD604C79FF516E4A99000
:102A02002081BBB332A2C55A4C4BD7795E68E11C18
:102A1200680DF33F7A2E0EE787F61CC495D52AA1DE
:102A2200A3B03882B193466BCF7A5448DD59622DF8
:102A3200EB3C700EF91F8FF706E69DD414C5ABB1BF
:102A420022A0B9923083C77B4E6AD5585C49E33DD8
:102A52006A2CF11E780F0800090009000A000B0019
:102A62000C000D000D000E000F00100011001200EE
:102A72001300140015001600170019001A001B009D
:102A82001D001E001F002100220024002500270037
:102A920028002B002C002E003000320034003600BB
:102AA20038003B003E003F004200450048004C0019
:102AB200500059006B007F008A009C00A800B30000
:102AC200C100CE00DD00EA00F9000D011F012B015B
:102AD2003F017E01A901B701E101FF0118022802AD
:102AE2003D024D0262027D029002B802C502D60288
:102AF200E902FA02080316032503320340034D03D9
:102B020060036F037703830395039F03AA03B40350
:102B1200C003C903D503DF03EB03F5030004050477
:102B22001204190422042C043404370440047404EB
:102B32007E040000030003000300030003000300FF
:102B4200030003000300030003000300030003006B
:102B5200030003000400040004000400180018002D
:102B62001800180040004000400040006800680063
:102B7200680068009900990099009900CD00CD0085
:102B8200CD00CD00FF00FF00FF00FF003901390139
:102B92003901390197019701970197012602A9028C
:102BA20040039103EF0318042A0434043E0445044D
:022BB2004D04D0
:00000001FF
