S00E000076696F6C65742E7372656383
S11300000C9446000C9465000C9465000C946500F7
S11300100C9465000C9465000C9465000C946500C8
S11300200C9465000C9465000C9465000C946500B8
S11300300C94F10A0C9465000C9465000C94D30A9A
S11300400C9465000C9465000C940C0C0C946500E5
S11300500C94E30B0C94CE0B0C9465000C9465008B
S11300600C9465000C9465000C9465000C94650078
S11300700C9465000C9465000C94990B0C94650029
S11300800C94700B0C9465000C94650011241FBE35
S1130090CFEFD0E1DEBFCDBF13E0A0E0B1E0E0E3FD
S11300A0F6E200E00BBF02C007900D92AE33B10739
S11300B0D9F72FE0AEE3B3E001C01D92AB39B2072C
S11300C0E1F70E9460060C9416130C9400008F92C2
S11300D0AF92CF92EF920F93CF93DF93CDB7DEB76A
S11300E09AE1899FF0011124E259FC4F6083418316
S11300F0228313820483E582C68212861386A48631
S113010085868A858687128A138A8B85848B8C855B
S1130110858B118EDF91CF910F91EF90CF90AF909F
S11301208F9008958F92AF92CF92EF92FF920F9398
S11301301F93CF93DF9380E687B98FE886B91F9228
S1130140D3E0DF93C1EECF9386E0882EA12C91EE0D
S1130150C92E2BE0E22E00E021E047E060E080E0E1
S11301600E94670087E08F93FF24F394FF92CF935C
S113017037E0832E47E1E42E21E048E061E081E0AE
S11301800E9467001F92DF93CF93812CAA24A3942B
S113019053E1E52E01E021E041E062E082E00E94CB
S11301A067001F92DF93CF936EE0862E72E0A72E36
S11301B0EDE0EE2E02E021E041E063E083E00E9406
S11301C067001F92DF93CF9388248394AA24A39477
S11301D0F5E1EF2E01E021E042E064E084E00E94DA
S11301E067001F92DF93CF93A2E08A2EBAE1EB2E31
S11301F021E043E065E085E00E9467001F92DF9301
S1130200CF9313E0812E8DE1E82E21E044E066E0F7
S113021086E00E9467001F92DF93CF939FE1892EAF
S11302202EE0E22E21E045E067E087E00E946700CF
S11302301F92DF93CF9334E0832E4BE1E42E21E031
S113024046E068E088E00E9467001F92DF93CF9346
S113025058E0852E6FE0E62E21E049E069E089E070
S11302600E9467001F92DF93CF9379E0872EE9E124
S1130270EE2E21E04AE06AE08AE00E9467008DB732
S11302809EB781960FB6F8949EBF0FBE8DBF1F9286
S1130290DF93CF93FAE08F2EA8E1EA2E20E04BE023
S11302A06BE08BE00E9467001F92DF93CF93B0E175
S11302B08B2E11E1E12E20E04CE06CE08CE00E94FA
S11302C0670088E08F9312E01F93CF938CE0882E11
S11302D096E1E92E21E04DE06DE08DE00E9467009B
S11302E01F92DF93CF9326E0822EA12C34E0E32EDD
S11302F000E021E04EE06EE08EE00E9467001F9275
S1130300DF93CF93812C43E0A42E55E1E52E02E048
S113031021E040E16FE08FE00E9467001F92DF93CD
S1130320CF936DE0862EAA24A39472E1E72E01E018
S113033021E04FE060E180E10E9467001F92DF93BB
S1130340CF93E5E08E2EFCE1EF2E20E04FEF61E14C
S113035081E10E9467001F92DF93CF93A0E18A2E70
S1130360B2E0AB2E0FE0E02E02E020E04FEF62E1BE
S113037082E10E9467001F92DF93CF9382E1882E6F
S113038091E1E92E20E04FEF63E183E10E946700F1
S113039089E08F931F93CF9322E0822EA12CEE2429
S11303A0E39400E021E04FEF64E184E10E94670000
S11303B08BE08F931F93CF933EE1832E42E0A42ED4
S11303C054E1E52E02E021E04FEF65E185E10E9472
S11303D067008DB79EB781960FB6F8949EBF0FBE87
S11303E08DBF1F92DF93CF9363E0862EA12C77E01D
S11303F0E72E00E021E04FEF66E186E10E9467000E
S11304001F921F93CF93E4E18E2EF2E1EF2E21E0B1
S11304104FEF67E187E10E946700FF921F93CF933C
S1130420A5E18A2EB3E1EB2E21E04FEF68E188E1EC
S11304300E9467001F931F93CF9386E1882E9AE052
S1130440E92E21E04FEF69E189E10E946700DF9323
S11304501F93CF9327E1822E3FE0E32E21E04FEF5D
S11304606AE18AE10E94670084E08F931F93CF932F
S113047048E1842E59E0E52E21E04FEF6BE18BE15A
S11304800E9467001F92DF93CF9369E1862E7EE07E
S1130490E72E21E04FEF6CE18CE10E9467001F9290
S11304A0DF93CF93EAE18E2EF0E1EF2E21E04FEFC0
S11304B06DE18DE10E9467001F92DF93CF93ABE162
S11304C08A2EB8E0EB2E21E04FEF6EE18EE10E9420
S11304D0670085E08F931F93CF938CE1882E9DE076
S11304E0E92E21E04FEF6FE18FE10E9467001F9238
S11304F0DF93CF932DE1822E3CE0E32E21E04FEFFA
S113050060E280E20E9467008DB79EB781960FB6C5
S1130510F8949EBF0FBE8DBF1F92DF93CF934EE121
S1130520842E5BE0E52E21E04FEF61E281E20E9440
S113053067001F92DF93CF936FE1862E71E1E72E60
S113054021E04FEF62E282E20E94670086E08F932F
S11305501F93CF93812CE5E0EE2E21E04FEF63E271
S113056083E20E9467008DB79EB709960FB6F89490
S11305709EBF0FBE8DBFDF91CF911F910F91FF9052
S1130580EF90CF90AF908F900895FF920F931F93A9
S1130590CF93DF93F82EFB01C1819081933009F44E
S11305A05AC030F40C2F10E0913011F190F50CC0CA
S11305B0953009F455C008F450C0963009F460C071
S11305C0973009F07BC06BC08CE28093870D8AE181
S11305D0809FE001819FD00D1124C259DC4F898195
S11305E08F3F21F00E946F0781E08A8340E00FC0B3
S11305F08AE1809FE001819FD00D1124C259DC4F14
S113060089818F3F19F00E94B2071A8241E062E0AB
S113061057C08AE1809FE001819FD00D1124C25907
S1130620DC4F89818F3F19F00E94B2071A8285E05E
S11306308A95F1F78AE1809FE001819FD00D112412
S1130640C259DC4F89818F3F21F00E946F0781E0FE
S11306508A8342E0DCCF43E0DACF40E060E030C0A0
S11306608AE1C89FE0011124C259DC4F89818F3F80
S113067029F00E946F0781E08A838B8345E0C7CF0E
S11306808AE1C89FE0011124C259DC4F89818F3F60
S1130690F9F082818E83828180936B0B19C08AE189
S11306A0C89FE0011124C259DC4F89818F3F81F03A
S11306B082818E8782818093660B0AC040E061E06C
S11306C08F2DDF91CF911F910F91FF900C94DC0F30
S11306D0DF91CF911F910F91FF900895E0915C09F4
S11306E0EF3FC1F18E2F84568B3108F580913E0384
S11306F08F5F80933E03F0E0EE0FFF1FE45CFD4F3D
S1130700608171816B50710980E090E00E94F51066
S113071028EB3EE149E251E40E948D1060931D07ED
S113072070931E0780931F07909320070895E43663
S113073028F480E090E0A0E8BFEB04C080E090E003
S1130740A8EDB2E480931D0790931E07A0931F07A2
S1130750B0932007089580E090E3AFE1B6E480937E
S1130760620990936309A0936409B09365098CE5C9
S11307709FE8A4E9B1E48093360990933709A093E4
S11307803809B09339098DEC9CECA8E3B3E4809369
S11307905B0390935C03A0935D03B0935E0386E6D2
S11307A096EEA5E2B4E480937A0D90937B0DA0932A
S11307B07C0DB0937D0D86E696EAA1E5B4E48093C2
S11307C0940D9093950DA093960DB093970D81EE93
S11307D09AEFACE9B2E48093570990935809A09337
S11307E05909B0935A0986E696ECA7E0B4E48093DD
S11307F0160790931707A0931807B093190780E082
S113080090EBA7E1B5E48093530990935409A09326
S11308105509B093560980E098E9AEEAB5E48093AF
S11308208A0D90938B0DA0938C0DB0938D0D08952C
S113083080E096E1A9E8B6E480932B0790932C0717
S1130840A0932D07B0932E0788EB93EC9093770D2C
S11308508093760D8AEE98EB9093810D8093800DB2
S11308608FE69CE990931B0780931A0785E99CE225
S113087090934C0980934B0981E79AEA909359032A
S1130880809358038AEC98E390934109809340093C
S113089082E093E09093790D8093780D8DEA97E050
S11308A090937F0D80937E0D80E895E190933507BA
S11308B0809334078EE49CEF909333078093320740
S11308C08BE393E09093750D8093740D8CED9BE610
S11308D0AEE2B0E48093210790932207A09323070C
S11308E0B093240780E895E5A2ECB1E18093470931
S11308F090934809A0934909B0934A0980EA9CE37C
S1130900A3E7BCE08093630390936403A09365031F
S1130910B093660380EA96E6ACEFB9E1809368038E
S113092090936903A0936A03B0936B0380E295EB01
S1130930A4EAB6EF8093430990934409A093450930
S1130940B093460980E992ECADEBBBE080933B09A0
S113095090933C09A0933D09B0933E0988E89BE736
S1130960A5E8BBEF8093820D9093830DA093840D33
S1130970B093850D8CED93ECA6E0BFEF8093540308
S113098090935503A0935603B09357038AE69DEAC8
S1130990A7EDBFEF80936B0D90936C0DA0936D0D3D
S11309A0B0936E0D8CEB90EEA4E6BFEF80933F0303
S11309B090934003A0934103B093420382EC96ECDE
S11309C0AAEBBEE38093670B9093680BA093690B2B
S11309D0B0936A0B0895EF92FF920F931F93CF93F6
S11309E0DF931FEF1ABB87E08BBB17BB80EE88BB7E
S11309F014BB15BB8BEF81BB80EF82BB9EEF92B91A
S1130A0013B880936100109262008FE180936400B8
S1130A1004E00093650082E087BF87E481BF8FE034
S1130A2083BF83E68093640B87EC8093650B80E837
S1130A3090E79BBD8ABD8DE08EBD84E88093860DD2
S1130A408CE28093870D0E943F09109260031092FC
S1130A505F03109262031092610310922F071092A9
S1130A6030078AE090E00E94D3117C01EEE8FDE0BB
S1130A708083F1828AE090E00E94D311C0E9DDE036
S1130A80888399834FEF50E06DE67BE0C7010E94B5
S1130A9065094FEF50E06CE67CE0888199810E9403
S1130AA065091092920D1092930D0E949200789411
S1130AB0C1E0C093350910926D030093420910926E
S1130AC0520910926B0B1092660B10923F09109210
S1130AD03A091092730D1092670310925D090E94F7
S1130AE0AB030E94180410935C0910936C0B1093D1
S1130AF026071092890D10926C031092250710920C
S1130B00310710921D0710921E0710921F071092B2
S1130B1020071092960F10924D0910925B091092C3
S1130B201C0710925A03C0934303A0914F03CAE1D8
S1130B30CA9FD0011124A259BC4F11968C910E94D6
S1130B40B207E0915003CE9FF0011124E259FC4F0B
S1130B5081810E94B20710922A05109244051092D6
S1130B605E0581E10E94380782E10E94380783E133
S1130B70DF91CF911F910F91FF90EF900C94380764
S1130B8085E895E00E94F5078093890D833010F085
S1130B908DED01C08CEC809326070895CF92DF92EF
S1130BA0EF92FF920F931F93CF93DF93C0901D0793
S1130BB0D0901E07E0901F07F090200720E030E05F
S1130BC0A901C701B6010E94891087FF4CC029E220
S1130BD03CE54FE05FEBC701B6010E94891087FF37
S1130BE00AC025E83BEE41E15FEBC701B6010E9474
S1130BF0A7111816C4F181E080933F0904E413E0BF
S1130C00BAE1FB2EF801C1918F01FC9EE001112491
S1130C10C259DC4F89810E94B2071A82F3E004357D
S1130C201F0781F710922A051092440510925E0561
S1130C3081E10E94380782E10E94380783E10E9423
S1130C40380780913A09811108C0809167038111A6
S1130C5004C040E062E00E94DC0F81E080936703FF
S1130C6080933A0924C020E030E048EC52E4C70104
S1130C70B6010E94A7111816D4F410923F0980916E
S1130C80C1040E946F0781E08093C2048091730DB8
S1130C90811108C080915D09811104C044E662E0BD
S1130CA00E94DC0F81E080935D098093730DDF91D6
S1130CB0CF911F910F91FF90EF90DF90CF90089507
S1130CC00E94EB041092340911E0C7ECDCE280913D
S1130CD03409912F981B909334098091650B8111ED
S1130CE007C0C093650B40E060E081E00E94DC0F28
S1130CF08091640B811106C0C093640B40E060E0F6
S1130D000E94DC0F8091920D8823C9F08091920D8E
S1130D1081508093920DE0918E0DF0918F0D618141
S1130D207281478180E00E94C5024FEF50E06DE67A
S1130D307BE080918E0D90918F0D0E9465098091CA
S1130D40930D8823C9F08091930D81508093930D66
S1130D50E091900DF091910D61817281478181E064
S1130D600E94C5024FEF50E06CE67CE08091900D4C
S1130D709091910D0E94650980913509813091F41B
S1130D80109235090E942C080E946E0380911C0762
S1130D90811102C00E94CE0580916D03873111F448
S1130DA00E94C00580915A03813009F090CF1092BF
S1130DB05A03D093870D8BCFA898E5E6F0E08081A5
S1130DC08D7F808308958130F9F020F0823009F01E
S1130DD04EC034C064FF02C0DF9A01C0DF9863FFD5
S1130DE002C0DE9A01C0DE9862FF02C0DD9A01C033
S1130DF0DD9861FF02C0DC9A01C0DC9860FF02C08C
S1130E00DB9A0895DB98089564FF02C0C09A01C07C
S1130E10C09863FF02C0C19A01C0C19862FF02C0BA
S1130E20C29A01C0C29861FF02C0C39A01C0C398AC
S1130E3060FF02C0C49A0895C498089564FF02C074
S1130E401B9A01C01B9863FF02C01C9A01C01C9826
S1130E5062FF02C01D9A01C01D9861FF02C01E9A64
S1130E6001C01E9860FF02C01F9A08951F9808953C
S1130E70823131F0833159F0813199F40C94DC06DC
S1130E80809165008E7F809365009098089580918D
S1130E906500877F80936500809165008F7E8093D5
S1130EA065000895823149F0833171F08131B1F4E4
S1130EB0A89A8091650082600FC08091650081606E
S1130EC080936500909A089580916500886080936E
S1130ED06500809165008061809365000895883085
S1130EE059F168F4843001F130F48230C9F0D0F45F
S1130EF08130B9F513C08630D9F0E0F417C08C30D6
S1130F0039F120F48A3001F108F518C08E3021F14E
S1130F1008F18F3019F1803121F522C0D89A089553
S1130F20D99A0895DA9A0895C59A0895C69A0895A3
S1130F30C79A0895949A0895959A089580916500A2
S1130F408460809365000895AF9A0895AE9A0895D9
S1130F50AD9A0895AC9A0895AB9A0895AA9A089503
S1130F60A99A0895883059F168F4843001F130F475
S1130F708230C9F0D0F48130B9F513C08630D9F08D
S1130F80E0F417C08C3039F120F48A3001F108F50F
S1130F9018C08E3021F108F18F3019F1803121F51C
S1130FA022C0D8980895D9980895DA980895C598D4
S1130FB00895C6980895C7980895949808959598A3
S1130FC00895809165008B7F809365000895AF98A4
S1130FD00895AE980895AD980895AC980895AB9887
S1130FE00895AA980895A9980895FC012181808103
S1130FF090E0820F911D2281820F911D63E070E0C9
S11310000E94AB11862F08959AE1899FF001112463
S1131010E259FC4F8389882311F0138A0895CF0184
S11310200F960C94F5079AE1899FF0011124E25977
S1131030FC4F8385882311F013860895CF0107960A
S11310400C94F50790E697B997B19C7F97B997B13F
S1131050982B97B9369A08951F93CF93DF93809175
S11310604209C0916D03823009F45DC020F48130DF
S113107009F0EBC007C0833009F4ABC0843009F039
S1131080E4C0CFC08AE1C89FE0011124C259DC4FFB
S11310902A8530E0C901019663E070E00E94BF1127
S11310A08A879881943169F48091520980935C090C
S11310B08091520980934D098091880D80935B093A
S11310C006C0953121F48091520980936C0B809174
S11310D05209FE01E20FF31F8783209152098E818A
S11310E08217D8F48B818130C1F089818F3F19F048
S11310F00E94B2070EC0923139F0933139F0913128
S113110041F40E94DC0605C082E101C083E10E9433
S113111038071A82809152098B8782E080934209B2
S11311201C856D8589C09AE1C99FE0011124C259CB
S1131130DC4F2A8930E0C901019663E070E00E9427
S1131140BF118A8B80915209FE01E20FF31F87873A
S1131150909152098E858917E0F48B818130C9F012
S113116089818F3F19F00E94B2070FC088818231B4
S113117039F0833139F0813141F40E94DC0605C035
S113118082E101C083E10E9438071A8280915209EA
S11311908B8B1C89133029F083E0809342096D897D
S11311A04BC081E08093420980916D0390E00196E9
S11311B064E270E00E94BF1180936D032AE1289FCE
S11311C0F001299FF00D1124E259FC4F148165812F
S11311D033C0D0E04AE14C9FF0014D9FF00D112443
S11311E0E259FC4F218D30E0C901019663E070E0C3
S11311F00E94BF11818F80915209E20FF31F868BE9
S113120081E080934209CE01019664E270E00E947D
S1131210BF1180936D03489FF001499FF00D112485
S11312201DC081E0809342099AE1C99FE001112425
S1131230C259DC4F1C816D81812F0E94E30683E338
S113124093E70197F1F7812F15C081E0809342095C
S1131250E0916D039AE1E99FF0011124E259FC4FFA
S1131260C48165818C2F0E94E30683E393E7019791
S1131270F1F78C2FDF91CF911F910C94220887E016
S11312808093990089B988E18AB9EAE9F0E080831A
S1131290808180648083808180688083569A579A95
S11312A00895FB0120813181F901E827FF27EE0F22
S11312B0FF1FEA5FFE4F232F33278081918182270E
S11312C09327FB01918380830895FC01108272832C
S11312D06183568345831086178214821382118694
S11312E008954F925F926F927F928F929F92AF92E6
S11312F0BF92CF92DF92EF92FF920F931F93CF93FF
S1131300DF9300D01F92CDB7DEB76C015B0179018A
S11313101A821982009709F458C02115310509F47D
S113132054C04C3018F0483309F051C0442443945D
S1131330512C4C0E5D1EB201842F4B830E94510927
S11313403701600E711E470107C0B201F40181919B
S11313504F014B830E9451094B8186149704A9F7CE
S113136089819A81F701E00FF11F908381830E5FD9
S11313701F4F80ECF60180834183D70142E050E0A7
S11313802DED3BED6CED0FC08D91803C19F4308355
S1131390618304C080838B3D21F421834E5F5F4FC2
S11313A002C04F5F5F4FCD018E199F09F601E40F14
S11313B0F51F8017910740F380EC80834F5F5F4FE8
S11313C0F5015183408381E003C085E001C086E0DC
S11313D00F900F900F90DF91CF911F910F91FF907D
S11313E0EF90DF90CF90BF90AF909F908F907F90C1
S11313F06F905F904F900895CF92DF92EF92FF929B
S11314000F931F93CF93DF93EC0129813A81211528
S1131410310509F484C08F8198854D815E814150E6
S113142051098417950708F07CC04985423039F189
S113143018F4442331F038C0403131F04032A1F582
S11314400AC0603C91F50DC06C3018F0683309F0A7
S11314506AC0688326C0603C31F4892B11F081E0B6
S113146021C080E11FC06B3D11F482E01BC0F90173
S1131470E80FF91F6083019698878F8316C06C3D2F
S113148029F4F901E80FF91F40EC07C06D3D09F09C
S11314904CC0F901E80FF91F4BED40830196988782
S11314A08F8380E2898701C019868985813011F094
S11314B089853CC089819A814F815885840F951F05
S11314C0FC013297308120E0FC0131978081690171
S11314D0C80ED11C4250510958874F837E0183E0C6
S11314E0E80EF11CB70188810E94510900E010E068
S11314F00AC0E981FA81E00FF11FB70180810E94DF
S113150051090F5F1F4F8F8198850817190788F3BA
S11315108B819C818C159D0559F284E007C085E080
S113152005C083E003C086E001C087E0DF91CF916E
S11315301F910F91FF90EF90DF90CF900895282F87
S113154030E0F901E15DF84F6081D901AA0FBB1FBA
S1131550A15ABC4F4D915C9170E06417750710F56A
S113156081110EC080819FEF929FD001939FB00D97
S11315701124A80FB11DAA5CB84F9C919CB910C04E
S1131580813081F480819FEF929FD001939FB00DB1
S11315901124A80FB11DAA5CB84F9C9190939C0094
S11315A08F5F808308951F920F920FB60F921124BC
S11315B08F938091640B882329F08091640B815070
S11315C08093640B8091650B882329F08091650BCF
S11315D081508093650B8F910F900FBE0F901F90D9
S11315E018951F920F920FB60F9211240BB60F92FB
S11315F02F933F934F935F936F937F938F939F9317
S1131600AF93BF93CF93EF93FF938091860D811196
S113161031C080914303882369F184E88093860D67
S113162080918D040E946F07C1E0C0938E04809165
S1131630A7040E946F07C093A804809129050E9403
S11316406F07C0932A05809143050E946F07C093DA
S1131650440580915D050E946F07C0935E0581E19A
S11316600E94520782E10E94520783E10E945207BE
S1131670109243038091870D811107C080915A0312
S1131680811103C081E080935A0385B391E08927D7
S113169085BB2FEF8FE796E1215080409040E1F722
S11316A000C000008091860D81508093860D80914A
S11316B0870D81508093870DFF91EF91CF91BF915A
S11316C0AF919F918F917F916F915F914F913F91D6
S11316D02F910F900BBE0F900FBE0F901F90189577
S11316E01F920F920FB60F9211240BB60F922F93E5
S11316F03F934F935F936F937F938F939F93AF9396
S1131700BF93EF93FF9381E00E949F0AFF91EF91B3
S1131710BF91AF919F918F917F916F915F914F9105
S11317203F912F910F900BBE0F900FBE0F901F9003
S113173018951F920F920FB60F9211240BB60F92A9
S11317402F933F934F935F936F937F938F939F93C5
S1131750AF93BF93EF93FF9360919C008091900DA2
S11317609091910D0E94FC09813029F48091930D90
S11317708F5F8093930DFF91EF91BF91AF919F91F4
S11317808F917F916F915F914F913F912F910F9026
S11317900BBE0F900FBE0F901F9018951F920F92C3
S11317A00FB60F9211248F9384B18093880D85B165
S11317B08093520981E0809335098F910F900FBE79
S11317C00F901F9018951F920F920FB60F9211242D
S11317D00BB60F922F933F934F935F936F937F9327
S11317E08F939F93AF93BF93EF93FF9380E00E94F7
S11317F09F0AFF91EF91BF91AF919F918F917F913C
S11318006F915F914F913F912F910F900BBE0F906D
S11318100FBE0F901F9018951F920F920FB60F9244
S113182011240BB60F922F933F934F935F936F93B3
S11318307F938F939F93AF93BF93EF93FF936CB179
S113184080918E0D90918F0D0E94FC09813029F4B6
S11318508091920D8F5F8093920DFF91EF91BF91D4
S1131860AF919F918F917F916F915F914F913F9134
S11318702F910F900BBE0F900FBE0F901F901895D5
S1131880823010F40C949F0A08952F923F924F9245
S11318905F926F927F928F929F92AF92BF92CF92FC
S11318A0DF92EF92FF920F931F93CF93DF93CDB705
S11318B0DEB728970FB6F894DEBF0FBECDBF98876A
S11318C08F83DC011C9230917404330F80918E0459
S11318D0B4E08B9FC0011124382B80915A04382B1B
S11318E08091A804E8E08E9FC0011124382B8091D8
S11318F0F604F0E18F9FC0011124382B809110056C
S113190020E2829FC0011124382B40914405440FEA
S113191080915E0554E0859FC0011124482B80917D
S11319202A05482BE2ECF4E08081A8E08A9FC001FC
S11319301124482B20918A03220F8091A403B4E040
S11319408B9FC0011124282B80917003282B809138
S1131950D80358E0859FC0011124282B8091F203FD
S1131960A0E18A9FC0011124282B80910C04B0E2CD
S11319708B9FC0011124282B8091260450E4859F5D
S1131980C0011124282B80914004A0E88A9FC00143
S11319901124282BAF81B88511962C931197129698
S11319A03C93129713964C93139789E914968C934E
S11319B01497808115968C932EE6622E23E0722E66
S11319C0F30180810E941308AF81B88516968C9329
S11319D038E8832E33E0932EF40180810E941308AB
S11319E0AF81B88517968C9342EAA42E43E0B42EB7
S11319F0F50180810E941308AF81B88518968C93F5
S1131A005CEBC52E53E0D52EF60180810E941308AD
S1131A10AF81B88519968C9366EDE62E63E0F62EB9
S1131A20F70180810E941308AF81B8851A968C93C0
S1131A300AE014E0F80180810E941308AF81B885A0
S1131A401B968C93E4E2F4E080810E941308AF813A
S1131A50B8851C968C937EE3472E74E0572EF201D2
S1131A6080810E941308AF81B8851D968C93E8E5A8
S1131A702E2EE4E03E2EF10180810E941308AF81F6
S1131A80B8851E968C9322E734E0F901808129837E
S1131A903A830E941308AF81B8851F968C934CE853
S1131AA054E0FA0180814B835C830E941308AF8168
S1131AB0B88550968C9366EA74E0FB0180816D834F
S1131AC07E830E941308AF81B88551968C93E4EF0E
S1131AD0F4E080810E941308AF81B88552968C93FC
S1131AE0EEE0F5E080810E941308AF81B88553963B
S1131AF08C93E8E2F5E080810E941308AF81B885F9
S1131B0054968C93E2E4F5E080810E941308AF813F
S1131B10B88555968C93ECE5F5E080810E94130816
S1131B20AF81B88556968C93E6E7F5E080810E94F4
S1131B301308AF81B88557968C93E0E9F5E080816E
S1131B400E941308AF81B88558968C93EAEAF5E0B1
S1131B5080810E941308AF81B88559968C93E4EC78
S1131B60F5E080810E941308AF81B8855A968C9362
S1131B70EEEDF5E080810E941308AF81B8855B9695
S1131B808C93E8EFF5E080810E941308AF81B8855B
S1131B905C968C93E2E1F6E080810E941308AF81A9
S1131BA0B8855D968C93ECE2F6E080810E94130880
S1131BB0AF81B8855E968C93E6E4F6E080810E945E
S1131BC01308AF81B8855F968C93E0E6F6E08081D8
S1131BD00E941308AF81B88590968C93EAE7F6E0EB
S1131BE080810E941308AF81B88591968C93E4E9B3
S1131BF0F6E080810E941308AF81B88592968C9399
S1131C00EEEAF6E080810E941308AF81B8859396CE
S1131C108C93E8ECF6E080810E941308AF81B885CC
S1131C2094968C93E2EEF6E080810E941308AF81D3
S1131C30B88595968C938091FC060E941308EF81D9
S1131C40F88586A317A210A611A612A613A6D3017F
S1131C508C910E940408EF81F88584A7D4018C91AB
S1131C600E940408EF81F88585A7D5018C910E9414
S1131C700408EF81F88586A7D6018C910E94040898
S1131C80EF81F88587A7D7018C910E940408EF8122
S1131C90F88580ABD8018C910E940408EF81F88507
S1131CA081ABA4E2B4E08C910E940408EF81F88532
S1131CB082ABD2018C910E940408EF81F88583AB3A
S1131CC0D1018C910E940408EF81F88584AB2981AD
S1131CD03A81D9018C910E940408EF81F88585AB83
S1131CE04B815C81DA018C910E940408EF81F885B4
S1131CF086AB6D817E81DB018C910E940408EF81AB
S1131D00F88587ABA4EFB4E08C910E940408EF81BE
S1131D10F88580AFAEE0B5E08C910E940408EF81B5
S1131D20F88581AFA8E2B5E08C910E940408EF81A8
S1131D30F88582AFA2E4B5E08C910E940408EF819B
S1131D40F88583AFACE5B5E08C910E940408EF817F
S1131D50F88584AFA6E7B5E08C910E940408EF8172
S1131D60F88585AFA0E9B5E08C910E940408EF8165
S1131D70F88586AFAAEAB5E08C910E940408EF8149
S1131D80F88587AFA4ECB5E08C910E940408EF813C
S1131D90F885E05CFF4F8083EEEDF5E080810E94E2
S1131DA00408EF81F885EF5BFF4F8083A8EFB5E06F
S1131DB08C910E940408EF81F885EE5BFF4F8083CD
S1131DC0E2E1F6E080810E940408EF81F885ED5B92
S1131DD0FF4F8083ACE2B6E08C910E940408EF814F
S1131DE0F885EC5BFF4F8083E6E4F6E080810E9497
S1131DF00408EF81F885EB5BFF4F8083A0E6B6E033
S1131E008C910E940408EF81F885EA5BFF4F808380
S1131E10EAE7F6E080810E940408EF81F885E95B37
S1131E20FF4F8083A4E9B6E08C910E940408EF81FF
S1131E30F885E85BFF4F8083EEEAF6E080810E943C
S1131E400408EF81F885E75BFF4F8083A8ECB6E0D8
S1131E508C910E940408EF81F885E65BFF4F808334
S1131E60E2EEF6E080810E940408EF81F885E55BEC
S1131E70FF4F8083EF81F885E45BFF4F8FEF808312
S1131E80EF81F885E35BFF4F90915C099083EF81CC
S1131E90F885E25BFF4F9091960F9083EF81F88570
S1131EA0E15BFF4F1082EF81F885E05BFF4F10820A
S1131EB0EF81F885EF5AFF4F1082EF81F885EE5AD3
S1131EC0FF4F909125079083EF81F885ED5AFF4FDE
S1131ED0808386EA95E00E94F507EF81F885EC5A45
S1131EE0FF4F80838AED95E00E94F507EF81F88526
S1131EF0EB5AFF4F808384EF95E00E94F507EF8152
S1131F00F885EA5AFF4F80838EE096E00E94F50739
S1131F10EF81F885E95AFF4F808388E296E00E94BA
S1131F20F507EF81F885E85AFF4F808382E496E055
S1131F300E94F507EF81F885E75AFF4F80838AEA0C
S1131F4096E00E94F507EF81F885E65AFF4F8083FB
S1131F5082E197E00E94F507EF81F885E55AFF4F8B
S1131F60808380916B0B10926B0BEF81F885E45AA0
S1131F70FF4F80838091660B1092660BEF81F8858A
S1131F80E35AFF4F808328960FB6F894DEBF0FBE46
S1131F90CDBFDF91CF911F910F91FF90EF90DF9014
S1131FA0CF90BF90AF909F908F907F906F905F90F5
S1131FB04F903F902F9008956F927F928F929F92AF
S1131FC0BF92CF92DF92EF92FF920F931F93CF9322
S1131FD0DF93B82E6130B9F020F0623009F08BC085
S1131FE022C0C82FD0E02FEF829FC0011124885651
S1131FF0924F0E94450CFE01EE0FFF1FE95DF84F62
S113200080E690E021C0E82FF0E08FEFB89ED00189
S11320101124A856B24F6C93EE0FFF1FE95DF84FE1
S113202081E090E011C0E82FF0E02FEF829FD00113
S11320301124A856B24F6C9311964C93EE0FFF1FC8
S1132040E95DF84F82E090E0918380838B2C912CA2
S11320508FEFB89E70011124E701CA59D64F64016D
S1132060CC0CDD1CF601E95DF84F0081118197016C
S11320702856324FAFE66A2EADE07A2E6C0C7D1CEA
S113208041E0B301CE010E9471098130A1F5F30151
S113209080819181F601E15AFC4F91838083808194
S11320A0918197012A5C384FAC01BE01C9010E949D
S11320B00D13F401E15DF84F1082F1E0BF1206C088
S11320C080919B008823B9F081E006C0B11013C051
S11320D08BB1882381F080E0DF91CF911F910F9124
S11320E0FF90EF90DF90CF90BF909F908F907F9064
S11320F06F900C94400CDF91CF911F910F91FF9042
S1132100EF90DF90CF90BF909F908F907F906F90D3
S11321100895A8D008F481E008950CD0DEC0D6D08C
S113212040F0CDD030F021F45F3F19F0BFC0511121
S113213008C1C2C0E3D098F39923C9F35523B1F37E
S1132140951B550BBB27AA2762177307840738F022
S11321509F5F5F4F220F331F441FAA1FA9F333D081
S11321600E2E3AF0E0E830D091505040E695001C35
S1132170CAF729D0FE2F27D0660F771F881FBB1FF1
S1132180261737074807AB07B0E809F0BB0B802DCB
S1132190BF01FF2793585F4F2AF09E3F510568F017
S11321A085C0CFC05F3FECF3983EDCF3869577950E
S11321B06795B795F7959F5FC9F7880F911D969519
S11321C0879597F90895E1E0660F771F881FBB1F75
S11321D0621773078407BA0720F0621B730B840B22
S11321E0BA0BEE1F88F7E0950895E89409C097FBB1
S11321F03EF490958095709561957F4F8F4F9F4FDA
S11322009923A9F0F92F96E9BB279395F69587951D
S113221077956795B795F111F8CFFAF4BB0F11F4E0
S113222060FF1BC06F5F7F4F8F4F9F4F16C0882387
S113223011F096E911C0772321F09EE8872F762FBD
S113224005C0662371F096E8862F70E060E02AF0FE
S11322509A95660F771F881FDAF7880F96958795EA
S113226097F90895990F0008550FAA0BE0E8FEEFBF
S113227016161706E807F907C0F012161306E40746
S1132280F50798F0621B730B840B950B39F40A263F
S113229061F0232B242B252B21F408950A2609F41D
S11322A0A140A6958FEF811D811D089597F99F6721
S11322B080E870E060E008959FEF80EC08950024CA
S11322C00A941616170618060906089500240A9497
S11322D012161306140605060895092E0394000C1D
S11322E011F4882352F0BB0F40F4BF2B11F460FFAC
S11322F004C06F5F7F4F8F4F9F4F089557FD9058D5
S1132300440F551F59F05F3F71F04795880F97FBB5
S1132310991F61F09F3F79F087950895121613066F
S11323201406551FF2CF4695F1DF08C0161617069E
S11323301806991FF1CF86957105610508940895D3
S1132340E894BB2766277727CB0197F908958ADF9E
S113235008F48FEF0895AA1BBB1B51E107C0AA1F05
S1132360BB1FA617B70710F0A61BB70B881F991F32
S11323705A95A9F780959095BC01CD01089597FBD6
S1132380072E16F4009407D077FD09D00E94AB11F4
S113239007FC05D03EF4909581959F4F0895709564
S11323A061957F4F08950F931F93CF93DF938230EE
S11323B0910510F482E090E0E091990FF0919A0F6A
S11323C020E030E0C0E0D0E023C0408151814817D4
S11323D05907A8F04817590761F48281938120971F
S11323E019F09B838A832EC090939A0F8093990F40
S11323F029C02115310529F04217530710F0A9010E
S113240002C0BE01DF0102811381EF019A01F801CC
S11324103097D9F62115310509F1281B390B2430E1
S1132420310590F412968D919C9113976115710565
S113243021F0FB019383828304C090939A0F8093CD
S1132440990FFD01329644C0FD01E20FF31F819301
S11324509193225031092D933C933AC02091970FC8
S11324603091980F232B41F4209102013091030104
S11324703093980F2093970F209100013091010120
S11324802115310541F42DB73EB740910401509117
S11324900501241B350BE091970FF091980FE2177B
S11324A0F307A0F42E1B3F0B2817390778F0AC0173
S11324B04E5F5F4F2417350748F04E0F5F1F509350
S11324C0980F4093970F8193919302C0E0E0F0E05E
S11324D0CF01DF91CF911F910F910895EF92FF9259
S11324E00F931F93CF93DF93009709F48FC0DC0100
S11324F0129713961C921E921297E090990FF090E7
S11325009A0FE114F10489F42D913C911197280F4D
S1132510391F8091970F9091980F8217930789F52F
S1132520B093980FA093970F71C0E70120E030E0BB
S113253001C0EA01CA17DB0738F44A815B819E01B6
S113254041155105B1F722C0BC0162507109FB016C
S1132550D383C28300811181AC01400F511F4C17FA
S11325605D0761F448815981400F511F4E5F5F4FF1
S1132570518340834A815B81538342832115310512
S113258029F4B0939A0FA093990F40C0F901B38333
S1132590A283E90169917991C60FD71FAC17BD07D2
S11325A079F4DC015E914E91460F571F4E5F5F4FE9
S11325B05183408312968D919C91139793838283C8
S11325C0A0E0B0E002C0D7017C01F70182819381D1
S11325D00097C9F7C701029620813181820F931FAA
S11325E02091970F3091980F2817390779F4109795
S11325F029F410929A0F1092990F04C013961C920A
S11326001E921297F092980FE092970FDF91CF915C
S11326101F910F91FF90EF900895FB01DC0102C020
S113262001900D9241505040D8F70895F894FFCF8F
S113263000009B0F20000000891112239B322446C6
S1132640AD573665BF74488CC19D5AAFD3BE6CCAB2
S1132650E5DB7EE9F7F88110080193331A22A556C9
S11326602C47B7753E64C99C408DDBBF52AEEDDA92
S113267064CBFFF976E802218B30100299132667A8
S1132680AF763444BD554AADC3BC588ED19F6EEB72
S1132690E7FA7CC8F5D983310A2091121803A77789
S11326A02E66B5543C45CBBD42ACD99E508FEFFB52
S11326B066EAFDD874C904428D5316619F702004E4
S11326C0A9153227BB364CCEC5DF5EEDD7FC688832
S11326D0E1997AABF3BA85520C4397711E60A11449
S11326E02805B3373A26CDDE44CFDFFD56ECE99812
S11326F06089FBBB72AA06638F7214409D51222528
S1132700AB343006B9174EEFC7FE5CCCD5DD6AA9F1
S1132710E3B8788AF19B87730E6295501C41A33508
S11327202A24B1163807CFFF46EEDDDC54CDEBB9D1
S113273062A8F99A708B088481951AA793B62CC263
S1132740A5D33EE1B7F04008C919522BDB3A644ED9
S1132750ED5F766DFF7C899400859BB712A6ADD2A0
S113276024C3BFF136E0C1184809D33B5A2AE55EB9
S11327706C4FF77D7E6C0AA583B4188691972EE37F
S1132780A7F23CC0B5D14229CB38500AD91B666F99
S1132790EF7E744CFD5D8BB502A499961087AFF360
S11327A026E2BDD034C1C3394A28D11A580BE77F79
S11327B06E6EF55C7C4D0CC685D71EE597F42880BB
S11327C0A1913AA3B3B2444ACD5B5669DF78600C59
S11327D0E91D722FFB3E8DD604C79FF516E4A99020
S11327E02081BBB332A2C55A4C4BD7795E68E11C39
S11327F0680DF33F7A2E0EE787F61CC495D52AA1FF
S1132800A3B03882B193466BCF7A5448DD59622D18
S1132810EB3C700EF91F8FF706E69DD414C5ABB1DF
S113282022A0B9923083C77B4E6AD5585C49E33DF8
S11328306A2CF11E780F08000B000E00120016001F
S11328401B0024002E0036003F004C007F00B30024
S1132850EA002B01A50128027D02D60216034D03CE
S11128608303B403DF0305042C0474047E0414
S9030000FC
