:100000000C9446000C9465000C9465000C946500FB
:100010000C9465000C9465000C9465000C946500CC
:100020000C9465000C9465000C9465000C946500BC
:100030000C946E0B0C9465000C9465000C94500BA2
:100040000C9465000C9465000C94890C0C9465006C
:100050000C94600C0C944B0C0C9465000C94650093
:100060000C9465000C9465000C9465000C9465007C
:100070000C9465000C9465000C94160C0C946500AF
:100080000C94ED0B0C9465000C94650011241FBEBC
:10009000CFEFD0E1DEBFCDBF14E0A0E0B1E0E4EFF0
:1000A000F7E200E00BBF02C007900D92A431B10748
:1000B000D9F720E1A4E1B4E001C01D92A637B20750
:1000C000E1F70E94D0060C94F8130C9400008F9274
:1000D000AF92CF92EF920F93CF93DF93CDB7DEB76E
:1000E0009AE1899FF0011124EC5BFB4F608341830F
:1000F000228313820483E582C68212861386A48635
:1001000085868A858687128A138A8B85848B8C855F
:10011000858B118EDF91CF910F91EF90CF90AF90A3
:100120008F9008958F92AF92CF92EF92FF920F939C
:100130001F93CF93DF9380E687B98FE886B91F922C
:10014000D3E0DF93C1EECF9386E0882EA12C91EE11
:10015000C92E2BE0E22E00E021E047E060E080E0E5
:100160000E94670087E08F93FF24F394FF92CF9360
:1001700037E0832E47E1E42E21E048E061E081E0B2
:100180000E9467001F92DF93CF93812CAA24A3942F
:1001900053E1E52E01E021E041E062E082E00E94CF
:1001A00067001F92DF93CF936EE0862E72E0A72E3A
:1001B000EDE0EE2E02E021E041E063E083E00E940A
:1001C00067001F92DF93CF9388248394AA24A3947B
:1001D000F5E1EF2E01E021E042E064E084E00E94DE
:1001E00067001F92DF93CF93A2E08A2EBAE1EB2E35
:1001F00021E043E065E085E00E9467001F92DF9305
:10020000CF9313E0812E8DE1E82E21E044E066E0FB
:1002100086E00E9467001F92DF93CF939FE1892EB3
:100220002EE0E22E21E045E067E087E00E946700D3
:100230001F92DF93CF9334E0832E4BE1E42E21E035
:1002400046E068E088E00E9467001F92DF93CF934A
:1002500058E0852E6FE0E62E21E049E069E089E074
:100260000E9467001F92DF93CF9379E0872EE9E128
:10027000EE2E21E04AE06AE08AE00E9467008DB736
:100280009EB781960FB6F8949EBF0FBE8DBF1F928A
:10029000DF93CF93FAE08F2EA8E1EA2E20E04BE027
:1002A0006BE08BE00E9467001F92DF93CF93B0E179
:1002B0008B2E11E1E12E20E04CE06CE08CE00E94FE
:1002C000670088E08F9312E01F93CF938CE0882E15
:1002D00096E1E92E21E04DE06DE08DE00E9467009F
:1002E0001F92DF93CF9326E0822EA12C34E0E32EE1
:1002F00000E021E04EE06EE08EE00E9467001F9279
:10030000DF93CF93812C43E0A42E55E1E52E02E04C
:1003100021E040E16FE08FE00E9467001F92DF93D1
:10032000CF936DE0862EAA24A39472E1E72E01E01C
:1003300021E04FE060E180E10E9467001F92DF93BF
:10034000CF93E5E08E2EFCE1EF2E20E04FEF61E150
:1003500081E10E9467001F92DF93CF93A0E18A2E74
:10036000B2E0AB2E0FE0E02E02E020E04FEF62E1C2
:1003700082E10E9467001F92DF93CF9382E1882E73
:1003800091E1E92E20E04FEF63E183E10E946700F5
:1003900089E08F931F93CF9322E0822EA12CEE242D
:1003A000E39400E021E04FEF64E184E10E94670004
:1003B0008BE08F931F93CF933EE1832E42E0A42ED8
:1003C00054E1E52E02E021E04FEF65E185E10E9476
:1003D00067008DB79EB781960FB6F8949EBF0FBE8B
:1003E0008DBF1F92DF93CF9363E0862EA12C77E021
:1003F000E72E00E021E04FEF66E186E10E94670012
:100400001F921F93CF93E4E18E2EF2E1EF2E21E0B5
:100410004FEF67E187E10E946700FF921F93CF9340
:10042000A5E18A2EB3E1EB2E21E04FEF68E188E1F0
:100430000E9467001F931F93CF9386E1882E9AE056
:10044000E92E21E04FEF69E189E10E946700DF9327
:100450001F93CF9327E1822E3FE0E32E21E04FEF61
:100460006AE18AE10E94670084E08F931F93CF9333
:1004700048E1842E59E0E52E21E04FEF6BE18BE15E
:100480000E9467001F92DF93CF9369E1862E7EE082
:10049000E72E21E04FEF6CE18CE10E9467001F9294
:1004A000DF93CF93EAE18E2EF0E1EF2E21E04FEFC4
:1004B0006DE18DE10E9467001F92DF93CF93ABE166
:1004C0008A2EB8E0EB2E21E04FEF6EE18EE10E9424
:1004D000670085E08F931F93CF938CE1882E9DE07A
:1004E000E92E21E04FEF6FE18FE10E9467001F923C
:1004F000DF93CF932DE1822E3CE0E32E21E04FEFFE
:1005000060E280E20E9467008DB79EB781960FB6C9
:10051000F8949EBF0FBE8DBF1F92DF93CF934EE125
:10052000842E5BE0E52E21E04FEF61E281E20E9444
:1005300067001F92DF93CF936FE1862E71E1E72E64
:1005400021E04FEF62E282E20E94670086E08F9333
:100550001F93CF93812CE5E0EE2E21E04FEF63E275
:1005600083E20E9467008DB79EB709960FB6F89494
:100570009EBF0FBE8DBFDF91CF911F910F91FF9056
:10058000EF90CF90AF908F900895FF920F931F93AD
:10059000CF93DF93F82EFB01C1819081933009F452
:1005A0005AC030F40C2F10E0913011F190F50CC0CE
:1005B000953009F455C008F450C0963009F460C075
:1005C000973009F07BC06BC08CE28093610E8AE1AA
:1005D000809FE001819FD00D1124CC5BDB4F89818E
:1005E0008F3F21F00E94DF0781E08A8340E00FC047
:1005F0008AE1809FE001819FD00D1124CC5BDB4F0D
:1006000089818F3F19F00E9422081A8241E062E03E
:1006100057C08AE1809FE001819FD00D1124CC5BFF
:10062000DB4F89818F3F19F00E9422081A8285E0F2
:100630008A95F1F78AE1809FE001819FD00D112416
:10064000CC5BDB4F89818F3F21F00E94DF0781E087
:100650008A8342E0DCCF43E0DACF40E060E030C0A4
:100660008AE1C89FE0011124CC5BDB4F89818F3F79
:1006700029F00E94DF0781E08A838B8345E0C7CFA2
:100680008AE1C89FE0011124CC5BDB4F89818F3F59
:10069000F9F082818E8382818093430C19C08AE1B4
:1006A000C89FE0011124CC5BDB4F89818F3F81F033
:1006B00082818E87828180933E0C0AC040E061E097
:1006C0008F2DDF91CF911F910F91FF900C945910B6
:1006D000DF91CF911F910F91FF900895CF93E091FB
:1006E000330AEF3F09F493C080911D0A882309F46F
:1006F0008EC08091340A882321F081E080936C0EB3
:1007000002C010926C0E8E2F85568A3108F06CC094
:10071000C09114048C2F8F5F8093140480916C0E11
:100720008823E9F18091470EEA3620F48295869578
:1007300086950BC09E2F9A568295869586958370D6
:100740009A3010F48F5F01C08E5F837080935F0ECC
:10075000F0E0E556F109EE0FFF1FEE0FFF1FE80F67
:10076000F11DEE0FFF1FEA5FFC4F608171816B503E
:10077000710980E090E00E94D71128EB3EE149E248
:1007800051E40E946F116093F3077093F407809314
:10079000F5079093F607C95FC093140438C0A7E724
:1007A000B0E0AE1BB109AA0FBB1FAE51BC4F6D919B
:1007B0007C9180E090E00E94D71128EB3EE141E27D
:1007C00051E40E946F119B01AC0160E070E088EC85
:1007D00092E40E9406116093F3077093F4078093EC
:1007E000F5079093F60713C0E53628F480E090E013
:1007F000A0E8BFEB04C080E090E0A8EDB2E48093F5
:10080000F3079093F407A093F507B093F607809150
:10081000340A81508E3F28F4809114048F5F8093B6
:100820001404CF91089580E090E3AFE1B6E48093A3
:100830003A0A90933B0AA0933C0AB0933D0A8CE598
:100840009FE8A4E9B1E480930C0A90930D0AA09369
:100850000E0AB0930F0A8DEC9CECA8E3B3E48093EE
:10086000310490933204A0933304B093340486E6A9
:1008700096EEA5E2B4E48093530E9093540EA093A9
:10088000550EB093560E86E696EAA1E5B4E4809341
:100890006F0E9093700EA093710EB093720E81EE56
:1008A0009AEFACE9B2E480932E0A90932F0AA093BA
:1008B000300AB093310A86E696ECA7E0B4E4809360
:1008C000EC079093ED07A093EE07B093EF0780E05D
:1008D00090EBA7E1B5E480932A0A90932B0AA093AA
:1008E0002C0AB0932D0A80E098E9AEEAB5E4809333
:1008F000640E9093650EA093660EB093670E0895F4
:1009000080E096E1A9E8B6E480930108909302089C
:10091000A0930308B093040888EB93EC9093500ED7
:1009200080934F0E8AEE98EB90935A0E8093590E57
:100930008FE69CE99093F1078093F00785E99CE2AC
:100940009093230A8093220A81E79AEA90932F04D6
:1009500080932E048AEC98E39093170A8093160AEA
:1009600082E093E09093520E8093510E8DEA97E0CF
:100970009093580E8093570E80E895E190930B0862
:1009800080930A088EE49CEF9093090880930808EE
:100990008BE393E090934E0E80934D0E8CED9BE68F
:1009A000AEE2B0E48093F7079093F807A093F907BD
:1009B000B093FA0780E895E5A2ECB1E180931E0AB6
:1009C00090931F0AA093200AB093210A80EA9CE327
:1009D000A3E7BCE08093390490933A04A0933B04CE
:1009E000B0933C0480EA96E6ACEFB9E180933E0414
:1009F00090933F04A0934004B093410480E295EBB0
:100A0000A4EAB6EF8093190A90931A0AA0931B0ADE
:100A1000B0931C0A80E992ECADEBBBE08093110A25
:100A20009093120AA093130AB093140A88E89BE7E4
:100A3000A5E8BBEF80935B0E90935C0EA0935D0ED8
:100A4000B0935E0E8CED93ECA6E0BFEF80932A048A
:100A500090932B04A0932C04B0932D048AE69DEA76
:100A6000A7EDBFEF8093430E9093440EA093450EE5
:100A7000B093460E8CEB90EEA4E6BFEF8093150486
:100A800090931604A0931704B093180482EC96EC8C
:100A9000AAEBBEE380933F0C9093400CA093410CD3
:100AA000B093420C0895EF92FF920F931F93CF9350
:100AB000DF931FEF1ABB87E08BBB17BB80EE88BBB1
:100AC00014BB15BB8BEF81BB80EF82BB9EEF92B94D
:100AD00013B880936100109262008FE180936400EC
:100AE00004E00093650082E087BF87E481BF8FE068
:100AF00083BF83E680933C0C87EC80933D0C80E8B9
:100B000090E79BBD8ABD8DE08EBD84E88093600E2A
:100B10008CE28093610E0E94BC0910923604109200
:100B20003504109238041092370410920508109280
:100B300006088AE090E00E94B5127C01E8E6FEE03B
:100B40008083F1828AE090E00E94B512CAE6DEE07E
:100B5000888399834FEF50E065E47CE0C7010E94F1
:100B6000E2094FEF50E064E47DE0888199810E94C2
:100B7000E20910926D0E10926E0E0E94920078940F
:100B8000C1E0C0930B0A109243040093180A10921C
:100B9000290A1092430C10923E0C1092150A1092E2
:100BA000100A10924C0E10923D041092350A0E94C9
:100BB00013040E9480041093330A1093440C109382
:100BC000FC071092630E109242041092FB071092E1
:100BD00007081092F3071092F4071092F50710928D
:100BE000F607109271101092240A1092320A109295
:100BF000F20710926C0E10921D0A10923004C093EE
:100C00001904A0912504CAE1CA9FD0011124AC5B4C
:100C1000BB4F11968C910E942208E0912604CE9F32
:100C2000F0011124EC5BFB4F81810E94220810929D
:100C3000000610921A061092340681E10E94A8075D
:100C400082E10E94A80783E1DF91CF911F910F916C
:100C5000FF90EF900C94A8078BE596E00E94650842
:100C60008093630E833010F08DED01C08CEC809387
:100C7000FC070895CF92DF92EF92FF920F931F939C
:100C8000CF93DF93C090F307D090F407E090F5077F
:100C9000F090F60720E030E0A901C701B6010E94FC
:100CA0006B1187FF4CC029E23CE54FE05FEBC701C9
:100CB000B6010E946B1187FF0AC025E83BEE41E1B7
:100CC0005FEBC701B6010E9489121816C4F181E0DA
:100CD0008093150A0AE114E0CAE1FC2EF801C191E3
:100CE0008F01FC9EE0011124CC5BDB4F89810E94C7
:100CF00022081A82F4E00A321F0781F710920006D8
:100D000010921A061092340681E10E94A80782E12F
:100D10000E94A80783E10E94A8078091100A811110
:100D200008C080913D04811104C040E062E00E944F
:100D3000591081E080933D048093100A28C020E080
:100D400030E048EC52E4C701B6010E94891218163F
:100D5000F4F480916C0E8823D1F01092150A8091E2
:100D600097050E94DF0781E08093980580914C0EE3
:100D7000811108C08091350A811104C044E662E007
:100D80000E94591081E08093350A80934C0EDF91C8
:100D9000CF911F910F91FF90EF90DF90CF9008952A
:100DA0000E94530510920A0A11E0C7ECDCE2809120
:100DB0000A0A912F981B90930A0A80913D0C811189
:100DC00007C0C0933D0C40E060E081E00E945910F4
:100DD00080913C0C811106C0C0933C0C40E060E067
:100DE0000E94591080916D0E8823C9F080916D0E7C
:100DF000815080936D0EE091680EF091690E6181D3
:100E00007281478180E00E94C5024FEF50E065E4A7
:100E10007CE08091680E9091690E0E94E2098091B9
:100E20006E0E8823C9F080916E0E815080936E0EF5
:100E3000E0916A0EF0916B0E61817281478181E0D1
:100E40000E94C5024FEF50E064E47DE080916A0E9D
:100E500090916B0E0E94E20980910B0A813091F40F
:100E600010920B0A0E949C080E946E038091F20768
:100E7000811102C00E943A0680914304873111F427
:100E80000E942C0680913004813009F090CF10929E
:100E90003004D093610E8BCFA898E5E6F0E0808116
:100EA0008D7F808308958130F9F020F0823009F041
:100EB0004EC034C064FF02C0DF9A01C0DF9863FFF8
:100EC00002C0DE9A01C0DE9862FF02C0DD9A01C056
:100ED000DD9861FF02C0DC9A01C0DC9860FF02C0AF
:100EE000DB9A0895DB98089564FF02C0C09A01C0A0
:100EF000C09863FF02C0C19A01C0C19862FF02C0DE
:100F0000C29A01C0C29861FF02C0C39A01C0C398CF
:100F100060FF02C0C49A0895C498089564FF02C097
:100F20001B9A01C01B9863FF02C01C9A01C01C9849
:100F300062FF02C01D9A01C01D9861FF02C01E9A87
:100F400001C01E9860FF02C01F9A08951F9808955F
:100F5000823131F0833159F0813199F40C944C078E
:100F6000809165008E7F80936500909808958091B0
:100F70006500877F80936500809165008F7E8093F8
:100F800065000895823149F0833171F08131B1F407
:100F9000A89A8091650082600FC080916500816091
:100FA00080936500909A0895809165008860809391
:100FB00065008091650080618093650008958830A8
:100FC00059F168F4843001F130F48230C9F0D0F482
:100FD0008130B9F513C08630D9F0E0F417C08C30F9
:100FE00039F120F48A3001F108F518C08E3021F172
:100FF00008F18F3019F1803121F522C0D89A089577
:10100000D99A0895DA9A0895C59A0895C69A0895C6
:10101000C79A0895949A0895959A089580916500C5
:101020008460809365000895AF9A0895AE9A0895FC
:10103000AD9A0895AC9A0895AB9A0895AA9A089526
:10104000A99A0895883059F168F4843001F130F498
:101050008230C9F0D0F48130B9F513C08630D9F0B0
:10106000E0F417C08C3039F120F48A3001F108F532
:1010700018C08E3021F108F18F3019F1803121F53F
:1010800022C0D8980895D9980895DA980895C598F7
:101090000895C6980895C7980895949808959598C6
:1010A0000895809165008B7F809365000895AF98C7
:1010B0000895AE980895AD980895AC980895AB98AA
:1010C0000895AA980895A9980895FC012181808126
:1010D00090E0820F911D2281820F911D63E070E0EC
:1010E0000E948D12862F08959AE1899FF0011124A4
:1010F000EC5BFB4F8389882311F0138A0895CF019D
:101100000F960C9465089AE1899FF0011124EC5B1D
:10111000FB4F8385882311F013860895CF0107962E
:101120000C94650890E697B997B19C7F97B997B1F1
:10113000982B97B9369A08951F93CF93DF93809198
:10114000180AC0914304823009F461C020F4813050
:1011500009F0F8C007C0833009F4B8C0843009F042
:10116000F1C0DCC08AE1C89FE0011124CC5BDB4FF9
:101170002A8530E0C901019663E070E00E94A11267
:101180008A879881943189F48091290A8093330A5F
:101190008091620E8093470E8091290A8093240AE1
:1011A0008091620E8093320A06C0953121F48091BD
:1011B000290A8093440C8091290AFE01E20FF31F53
:1011C00087832091290A8E818217D8F48B81813000
:1011D000C1F089818F3F19F00E9422080EC0923120
:1011E00039F0933139F0913141F40E944C0705C038
:1011F00082E101C083E10E94A8071A828091290A36
:101200008B8782E08093180A1C856D8592C09AE1D5
:10121000C99FE0011124CC5BDB4F2A8930E0C90172
:10122000019663E070E00E94A1128A8B9881973149
:1012300039F48091290A8093340A81E080931D0A51
:101240008091290AFE01E20FF31F87872091290A66
:101250008E858217D8F48B818130C1F089818F3FD0
:1012600019F00E9422080EC0923139F0933139F002
:10127000913141F40E944C0705C082E101C083E135
:101280000E94A8071A828091290A8B8B1C8913302F
:1012900029F083E08093180A6D894BC081E0809328
:1012A000180A8091430490E0019664E270E00E9485
:1012B000A112809343042AE1289FF001299FF00D99
:1012C0001124EC5BFB4F1481658133C0D0E04AE10F
:1012D0004C9FF0014D9FF00D1124EC5BFB4F218DD5
:1012E00030E0C901019663E070E00E94A112818F95
:1012F0008091290AE20FF31F868B81E08093180A00
:10130000CE01019664E270E00E94A1128093430432
:10131000489FF001499FF00D11241DC081E080938A
:10132000180A9AE1C99FE0011124CC5BDB4F1C81B4
:101330006D81812F0E94530783E393E70197F1F7B3
:10134000812F15C081E08093180AE09143049AE14F
:10135000E99FF0011124EC5BFB4FC48165818C2F68
:101360000E94530783E393E70197F1F78C2FDF91F6
:10137000CF911F910C94920887E08093990089B9CE
:1013800088E18AB9EAE9F0E0808380818064808323
:10139000808180688083569A579A0895FB01208146
:1013A0003181F901E827FF27EE0FFF1FEA5FFE4FAB
:1013B000232F33278081918182279327FB019183FB
:1013C00080830895FC011082728361835683458374
:1013D0001086178214821382118608954F925F92AD
:1013E0006F927F928F929F92AF92BF92CF92DF9235
:1013F000EF92FF920F931F93CF93DF9300D01F9232
:10140000CDB7DEB76C015B0179011A8219820097B2
:1014100009F458C02115310509F454C04C3018F0B6
:10142000483309F051C044244394512C4C0E5D1EA6
:10143000B201842F4B830E94CE093701600E711ECA
:10144000470107C0B201F40181914F014B830E9413
:10145000CE094B8186149704A9F789819A81F701F7
:10146000E00FF11F908381830E5F1F4F80ECF60128
:1014700080834183D70142E050E02DED3BED6CEDE0
:101480000FC08D91803C19F43083618304C0808348
:101490008B3D21F421834E5F5F4F02C04F5F5F4F52
:1014A000CD018E199F09F601E40FF51F80179107F2
:1014B00040F380EC80834F5F5F4FF50151834083A1
:1014C00081E003C085E001C086E00F900F900F908F
:1014D000DF91CF911F910F91FF90EF90DF90CF9010
:1014E000BF90AF909F908F907F906F905F904F9044
:1014F0000895CF92DF92EF92FF920F931F93CF93B5
:10150000DF93EC0129813A812115310509F484C06A
:101510008F8198854D815E814150510984179507CF
:1015200008F07CC04985423039F118F4442331F089
:1015300038C0403131F04032A1F50AC0603C91F52D
:101540000DC06C3018F0683309F06AC0688326C09B
:10155000603C31F4892B11F081E021C080E11FC093
:101560006B3D11F482E01BC0F901E80FF91F6083A5
:10157000019698878F8316C06C3D29F4F901E80F16
:10158000F91F40EC07C06D3D09F04CC0F901E80FB0
:10159000F91F4BED4083019698878F8380E28987FE
:1015A00001C019868985813011F089853CC0898107
:1015B0009A814F815885840F951FFC0132973081A5
:1015C00020E0FC01319780816901C80ED11C425096
:1015D000510958874F837E0183E0E80EF11CB70163
:1015E00088810E94CE0900E010E00AC0E981FA81FA
:1015F000E00FF11FB70180810E94CE090F5F1F4FDE
:101600008F8198850817190788F38B819C818C1529
:101610009D0559F284E007C085E005C083E003C062
:1016200086E001C087E0DF91CF911F910F91FF907D
:10163000EF90DF90CF900895282F30E0F901EB5F15
:10164000F74F6081D901AA0FBB1FAB5CBB4F4D9117
:101650005C9170E06417750710F581110EC08081F0
:101660009FEF929FD001939FB00D1124A80FB11D41
:10167000A45FB74F9C919CB910C0813081F48081E8
:101680009FEF929FD001939FB00D1124A80FB11D21
:10169000A45FB74F9C9190939C008F5F80830895C7
:1016A0001F920F920FB60F9211248F9380913C0CD2
:1016B000882329F080913C0C815080933C0C8091D0
:1016C0003D0C882329F080913D0C815080933D0C86
:1016D0008F910F900FBE0F901F9018951F920F9231
:1016E0000FB60F9211240BB60F922F933F934F9387
:1016F0005F936F937F938F939F93AF93BF93CF939A
:10170000EF93FF938091600E811131C08091190495
:10171000882369F184E88093600E809163050E94BC
:10172000DF07C1E0C093640580917D050E94DF075B
:10173000C0937E058091FF050E94DF07C0930006DD
:10174000809119060E94DF07C0931A068091330624
:101750000E94DF07C093340681E10E94C20782E144
:101760000E94C20783E10E94C2071092190480916F
:10177000610E811107C080913004811103C081E0A6
:101780008093300485B391E0892785BB2FEF8FE7E5
:1017900096E1215080409040E1F700C00000809128
:1017A000600E81508093600E8091610E8150809315
:1017B000610EFF91EF91CF91BF91AF919F918F916A
:1017C0007F916F915F914F913F912F910F900BBE41
:1017D0000F900FBE0F901F9018951F920F920FB68B
:1017E0000F9211240BB60F922F933F934F935F9359
:1017F0006F937F938F939F93AF93BF93EF93FF93D9
:1018000081E00E941C0BFF91EF91BF91AF919F91DE
:101810008F917F916F915F914F913F912F910F9099
:101820000BBE0F900FBE0F901F9018951F920F9236
:101830000FB60F9211240BB60F922F933F934F9335
:101840005F936F937F938F939F93AF93BF93EF9328
:10185000FF9360919C0080916A0E90916B0E0E94A4
:10186000790A813029F480916E0E8F5F80936E0E1D
:10187000FF91EF91BF91AF919F918F917F916F9168
:101880005F914F913F912F910F900BBE0F900FBE24
:101890000F901F9018951F920F920FB60F92112460
:1018A0008F9384B18093620E85B18093290A81E081
:1018B00080930B0A8F910F900FBE0F901F90189579
:1018C0001F920F920FB60F9211240BB60F922F9307
:1018D0003F934F935F936F937F938F939F93AF93B8
:1018E000BF93EF93FF9380E00E941C0BFF91EF9159
:1018F000BF91AF919F918F917F916F915F914F9128
:101900003F912F910F900BBE0F900FBE0F901F9025
:1019100018951F920F920FB60F9211240BB60F92CB
:101920002F933F934F935F936F937F938F939F93E7
:10193000AF93BF93EF93FF936CB18091680E90913A
:10194000690E0E94790A813029F480916D0E8F5FB3
:1019500080936D0EFF91EF91BF91AF919F918F9109
:101960007F916F915F914F913F912F910F900BBE9F
:101970000F900FBE0F901F901895823010F40C94AA
:101980001C0B08952F923F924F925F926F927F921D
:101990008F929F92AF92BF92CF92DF92EF92FF927F
:1019A0000F931F93CF93DF93CDB7DEB728970FB672
:1019B000F894DEBF0FBECDBF98878F83DC011C92E9
:1019C00030914A05330F80916405B4E08B9FC001CC
:1019D0001124382B80913005382B80917E05E8E06A
:1019E0008E9FC0011124382B8091CC05F0E18F9F90
:1019F000C0011124382B8091E60520E2829FC001AE
:101A00001124382B40911A06440F8091340654E07B
:101A1000859FC0011124482B80910006482BE8E9DE
:101A2000F5E08081A8E08A9FC0011124482B209115
:101A30006004220F80917A04B4E08B9FC0011124CE
:101A4000282B80914604282B8091AE0458E0859F76
:101A5000C0011124282B8091C804A0E18A9FC001F5
:101A60001124282B8091E204B0E28B9FC001112445
:101A7000282B8091FC0450E4859FC0011124282B61
:101A800080911605A0E88A9FC0011124282BAF8100
:101A9000B88511962C93119712963C931297139632
:101AA0004C93139789E914968C931497808115961B
:101AB0008C9324E4622E24E0722EF30180810E9434
:101AC0008308AF81B88516968C933EE5832E34E06B
:101AD000932EF40180810E948308AF81B885179608
:101AE0008C9348E7A42E44E0B42EF50180810E9437
:101AF0008308AF81B88518968C9352E9C52E54E0BF
:101B0000D52EF60180810E948308AF81B885199691
:101B10008C936CEAE62E64E0F62EF70180810E9439
:101B20008308AF81B8851A968C9300EE14E0F80113
:101B300080810E948308AF81B8851B968C93EAEF61
:101B4000F4E080810E948308AF81B8851C968C9355
:101B500074E1472E75E0572EF20180810E948308C0
:101B6000AF81B8851D968C93EEE22E2EE5E03E2ED9
:101B7000F10180810E948308AF81B8851E968C9305
:101B800028E435E0F901808129833A830E948308A3
:101B9000AF81B8851F968C9342E655E0FA018081AB
:101BA0004B835C830E948308AF81B88550968C93E9
:101BB0006CE775E0FB0180816D837E830E94830862
:101BC000AF81B88551968C93EAECF5E080810E9454
:101BD0008308AF81B88552968C93E4EEF5E080815E
:101BE0000E948308AF81B88553968C93EEEFF5E0A1
:101BF00080810E948308AF81B88554968C93E8E178
:101C0000F6E080810E948308AF81B88555968C9359
:101C1000E2E3F6E080810E948308AF81B8855696A2
:101C20008C93ECE4F6E080810E948308AF81B88554
:101C300057968C93E6E6F6E080810E948308AF8198
:101C4000B88558968C93E0E8F6E080810E9483087E
:101C5000AF81B88559968C93EAE9F6E080810E94BD
:101C60008308AF81B8855A968C93E4EBF6E08081C7
:101C70000E948308AF81B8855B968C93EEECF6E00A
:101C800080810E948308AF81B8855C968C93E8EED2
:101C9000F6E080810E948308AF81B8855D968C93C1
:101CA000E2E0F7E080810E948308AF81B8855E960C
:101CB0008C93ECE1F7E080810E948308AF81B885C6
:101CC0005F968C93E6E3F7E080810E948308AF8102
:101CD000B88590968C93E0E5F7E080810E948308B8
:101CE000AF81B88591968C93EAE6F7E080810E94F7
:101CF0008308AF81B88592968C93E4E8F7E0808101
:101D00000E948308AF81B88593968C93EEE9F7E043
:101D100080810E948308AF81B88594968C93E8EB0C
:101D2000F7E080810E948308AF81B88595968C93F7
:101D30008091D2070E948308EF81F88586A317A2BD
:101D400010A611A612A613A6D3018C910E947408A6
:101D5000EF81F88584A7D4018C910E947408EF81EB
:101D6000F88585A7D5018C910E947408EF81F885CC
:101D700086A7D6018C910E947408EF81F88587A709
:101D8000D7018C910E947408EF81F88580ABD8014F
:101D90008C910E947408EF81F88581ABAAEFB4E0C2
:101DA0008C910E947408EF81F88582ABD2018C91EE
:101DB0000E947408EF81F88583ABD1018C910E9459
:101DC0007408EF81F88584AB29813A81D9018C911F
:101DD0000E947408EF81F88585AB4B815C81DA0144
:101DE0008C910E947408EF81F88586AB6D817E81AD
:101DF000DB018C910E947408EF81F88587ABAAEC17
:101E0000B5E08C910E947408EF81F88580AFA4EE54
:101E1000B5E08C910E947408EF81F88581AFAEEF38
:101E2000B5E08C910E947408EF81F88582AFA8E13B
:101E3000B6E08C910E947408EF81F88583AFA2E32D
:101E4000B6E08C910E947408EF81F88584AFACE411
:101E5000B6E08C910E947408EF81F88585AFA6E604
:101E6000B6E08C910E947408EF81F88586AFA0E8F7
:101E7000B6E08C910E947408EF81F88587AFAAE9DB
:101E8000B6E08C910E947408EF81F885E05CFF4F0A
:101E90008083E4EBF6E080810E947408EF81F8858E
:101EA000EF5BFF4F8083AEECB6E08C910E9474082C
:101EB000EF81F885EE5BFF4F8083E8EEF6E08081EE
:101EC0000E947408EF81F885ED5BFF4F8083A2E0EC
:101ED000B7E08C910E947408EF81F885EC5BFF4FAE
:101EE0008083ECE1F7E080810E947408EF81F8853F
:101EF000EB5BFF4F8083A6E3B7E08C910E947408F0
:101F0000EF81F885EA5BFF4F8083E0E5F7E08081B1
:101F10000E947408EF81F885E95BFF4F8083AAE691
:101F2000B7E08C910E947408EF81F885E85BFF4F61
:101F30008083E4E8F7E080810E947408EF81F885EF
:101F4000E75BFF4F8083AEE9B7E08C910E94740895
:101F5000EF81F885E65BFF4F8083E8EBF7E0808157
:101F60000E947408EF81F885E55BFF4F8083EF8165
:101F7000F885E45BFF4F8FEF8083EF81F885E35BAB
:101F8000FF4F9091330A9083EF81F885E25BFF4F1A
:101F9000909171109083EF81F885E15BFF4F108283
:101FA000EF81F885E05BFF4F1082EF81F885EF5AF3
:101FB000FF4F1082EF81F885EE5AFF4F9091FB079B
:101FC0009083EF81F885ED5AFF4F80838CE796E090
:101FD0000E946508EF81F885EC5AFF4F808380EB03
:101FE00096E00E946508EF81F885EB5AFF4F8083E9
:101FF0008AEC96E00E946508EF81F885EA5AFF4F67
:10200000808384EE96E00E946508EF81F885E95AA6
:10201000FF4F80838EEF96E00E946508EF81F88580
:10202000E85AFF4F808388E197E00E946508EF81BE
:10203000F885E75AFF4F808380E897E00E946508A3
:10204000EF81F885E65AFF4F808388EE97E00E9483
:102050006508EF81F885E55AFF4F80838091430C36
:102060001092430CEF81F885E45AFF4F80838091F2
:102070003E0C10923E0CEF81F885E35AFF4F8083AF
:1020800028960FB6F894DEBF0FBECDBFDF91CF917B
:102090001F910F91FF90EF90DF90CF90BF90AF9086
:1020A0009F908F907F906F905F904F903F902F9078
:1020B00008956F927F928F929F92BF92CF92DF92FC
:1020C000EF92FF920F931F93CF93DF93B82E61305F
:1020D000B9F020F0623009F08BC022C0C82FD0E0E8
:1020E0002FEF829FC00111248D58914F0E94C20C86
:1020F000FE01EE0FFF1FE350F84F80E690E021C095
:10210000E82FF0E08FEFB89ED0011124AD58B14F09
:102110006C93EE0FFF1FE350F84F81E090E011C089
:10212000E82FF0E02FEF829FD0011124AD58B14F7E
:102130006C9311964C93EE0FFF1FE350F84F82E023
:1021400090E0918380838B2C912C8FEFB89E70014F
:102150001124E701C25CD54F6401CC0CDD1CF601F3
:10216000E350F84F0081118197012D58314FA8E4B9
:102170006A2EAEE07A2E6C0C7D1C41E0B301CE01DC
:102180000E94EE098130A1F5F30180819181F60171
:10219000EB5CFB4F91838083808191819701245F69
:1021A000374FAC01BE01C9010E94EF13F401EB5F90
:1021B000F74F1082F1E0BF1206C080919B00882388
:1021C000B9F081E006C0B11013C08BB1882381F053
:1021D00080E0DF91CF911F910F91FF90EF90DF9002
:1021E000CF90BF909F908F907F906F900C94BD0C7C
:1021F000DF91CF911F910F91FF90EF90DF90CF90E3
:10220000BF909F908F907F906F9008955058BB27FC
:10221000AA270ED044C135D130F03AD120F031F4A4
:102220009F3F11F41EF42AC10EF4E095E7FB20C194
:10223000E92F46D180F3BA17620773078407950721
:1022400018F071F49EF55EC10EF4E0950B2EBA2FD6
:10225000A02D0B01B90190010C01CA01A0011124AC
:10226000FF27591B99F0593F50F4503E68F11A1658
:10227000F040A22F232F342F4427585FF3CF4695E9
:1022800037952795A795F0405395C9F77EF41F160B
:10229000BA0B620B730B840BBAF09150A1F0FF0FD5
:1022A000BB1F661F771F881FC2F70EC0BA0F621FC1
:1022B000731F841F48F4879577956795B795F795B1
:1022C0009E3F08F0B3CF9395880F08F09927EE0F43
:1022D000979587950895A8D008F481E008950CD0CB
:1022E000DEC0D6D040F0CDD030F021F45F3F19F001
:1022F000BFC0511108C1C2C0E3D098F39923C9F3FC
:102300005523B1F3951B550BBB27AA2762177307FB
:10231000840738F09F5F5F4F220F331F441FAA1FAF
:10232000A9F333D00E2E3AF0E0E830D0915050406F
:10233000E695001CCAF729D0FE2F27D0660F771F1D
:10234000881FBB1F261737074807AB07B0E809F0FF
:10235000BB0B802DBF01FF2793585F4F2AF09E3F94
:10236000510568F085C0CFC05F3FECF3983EDCF3C9
:10237000869577956795B795F7959F5FC9F7880F0D
:10238000911D9695879597F90895E1E0660F771F5F
:10239000881FBB1F621773078407BA0720F0621BF0
:1023A000730B840BBA0BEE1F88F7E0950895E89441
:1023B00009C097FB3EF490958095709561957F4F8D
:1023C0008F4F9F4F9923A9F0F92F96E9BB2793953B
:1023D000F695879577956795B795F111F8CFFAF44B
:1023E000BB0F11F460FF1BC06F5F7F4F8F4F9F4F7C
:1023F00016C0882311F096E911C0772321F09EE8DA
:10240000872F762F05C0662371F096E8862F70E03F
:1024100060E02AF09A95660F771F881FDAF7880F19
:102420009695879597F90895990F0008550FAA0B6F
:10243000E0E8FEEF16161706E807F907C0F01216D7
:102440001306E407F50798F0621B730B840B950BDA
:1024500039F40A2661F0232B242B252B21F408952F
:102460000A2609F4A140A6958FEF811D811D0895CC
:1024700097F99F6780E870E060E008959FEF80EC37
:10248000089500240A9416161706180609060895DA
:1024900000240A9412161306140605060895092E40
:1024A0000394000C11F4882352F0BB0F40F4BF2BAF
:1024B00011F460FF04C06F5F7F4F8F4F9F4F0895EF
:1024C00057FD9058440F551F59F05F3F71F04795E5
:1024D000880F97FB991F61F09F3F79F087950895CA
:1024E000121613061406551FF2CF4695F1DF08C0E9
:1024F000161617061806991FF1CF86957105610506
:1025000008940895E894BB2766277727CB0197F9AD
:1025100008958ADF08F48FEF0895AA1BBB1B51E1D1
:1025200007C0AA1FBB1FA617B70710F0A61BB70B43
:10253000881F991F5A95A9F780959095BC01CD01E8
:10254000089597FB072E16F4009407D077FD09D065
:102550000E948D1207FC05D03EF4909581959F4F07
:102560000895709561957F4F08950F931F93CF93B2
:10257000DF938230910510F482E090E0E0917410D6
:10258000F091751020E030E0C0E0D0E023C0408141
:10259000518148175907A8F04817590761F48281FB
:1025A0009381209719F09B838A832EC09093751096
:1025B0008093741029C02115310529F04217530763
:1025C00010F0A90102C0BE01DF0102811381EF01F9
:1025D0009A01F8013097D9F62115310509F1281B28
:1025E000390B2430310590F412968D919C911397FC
:1025F0006115710521F0FB019383828304C09093E0
:10260000751080937410FD01329644C0FD01E20FF5
:10261000F31F81939193225031092D933C933AC03B
:102620002091721030917310232B41F420910201FC
:1026300030910301309373102093721020910001A8
:10264000309101012115310541F42DB73EB740917C
:10265000040150910501241B350BE0917210F0919B
:102660007310E217F307A0F42E1B3F0B281739074E
:1026700078F0AC014E5F5F4F2417350748F04E0FDE
:102680005F1F50937310409372108193919302C017
:10269000E0E0F0E0CF01DF91CF911F910F9108951D
:1026A000EF92FF920F931F93CF93DF93009709F45C
:1026B0008FC0DC01129713961C921E921297E09025
:1026C0007410F0907510E114F10489F42D913C918F
:1026D0001197280F391F80917210909173108217F3
:1026E000930789F5B0937310A093721071C0E7013E
:1026F00020E030E001C0EA01CA17DB0738F44A8164
:102700005B819E0141155105B1F722C0BC016250A9
:102710007109FB01D383C28300811181AC01400F99
:10272000511F4C175D0761F448815981400F511FBB
:102730004E5F5F4F518340834A815B815383428365
:102740002115310529F4B0937510A093741040C081
:10275000F901B383A283E90169917991C60FD71F6B
:10276000AC17BD0779F4DC015E914E91460F571FFF
:102770004E5F5F4F5183408312968D919C911397CA
:1027800093838283A0E0B0E002C0D7017C01F7010F
:10279000828193810097C9F7C70102962081318118
:1027A000820F931F209172103091731028173907F0
:1027B00079F4109729F4109275101092741004C0D7
:1027C00013961C921E921297F0927310E092721060
:1027D000DF91CF911F910F91FF90EF900895FB0132
:1027E000DC0102C001900D9241505040D8F708958D
:0427F000F894FFCF8B
:1027F4000000761020000000891112239B32244629
:10280400AD573665BF74488CC19D5AAFD3BE6CCAF0
:10281400E5DB7EE9F7F88110080193331A22A55607
:102824002C47B7753E64C99C408DDBBF52AEEDDAD0
:1028340064CBFFF976E802218B30100299132667E6
:10284400AF763444BD554AADC3BC588ED19F6EEBB0
:10285400E7FA7CC8F5D983310A2091121803A777C7
:102864002E66B5543C45CBBD42ACD99E508FEFFB90
:1028740066EAFDD874C904428D5316619F70200422
:10288400A9153227BB364CCEC5DF5EEDD7FC688870
:10289400E1997AABF3BA85520C4397711E60A11487
:1028A4002805B3373A26CDDE44CFDFFD56ECE99850
:1028B4006089FBBB72AA06638F7214409D51222566
:1028C400AB343006B9174EEFC7FE5CCCD5DD6AA930
:1028D400E3B8788AF19B87730E6295501C41A33547
:1028E4002A24B1163807CFFF46EEDDDC54CDEBB910
:1028F40062A8F99A708B088481951AA793B62CC2A2
:10290400A5D33EE1B7F04008C919522BDB3A644E17
:10291400ED5F766DFF7C899400859BB712A6ADD2DE
:1029240024C3BFF136E0C1184809D33B5A2AE55EF7
:102934006C4FF77D7E6C0AA583B4188691972EE3BD
:10294400A7F23CC0B5D14229CB38500AD91B666FD7
:10295400EF7E744CFD5D8BB502A499961087AFF39E
:1029640026E2BDD034C1C3394A28D11A580BE77FB7
:102974006E6EF55C7C4D0CC685D71EE597F42880F9
:10298400A1913AA3B3B2444ACD5B5669DF78600C97
:10299400E91D722FFB3E8DD604C79FF516E4A9905E
:1029A4002081BBB332A2C55A4C4BD7795E68E11C77
:1029B400680DF33F7A2E0EE787F61CC495D52AA13D
:1029C400A3B03882B193466BCF7A5448DD59622D57
:1029D400EB3C700EF91F8FF706E69DD414C5ABB11E
:1029E40022A0B9923083C77B4E6AD5585C49E33D37
:1029F4006A2CF11E780F0800090009000A000B0078
:102A04000C000D000D000E000F001000110012004C
:102A14001300140015001600170019001A001B00FB
:102A24001D001E001F002100220024002500270095
:102A340028002B002C002E00300032003400360019
:102A440038003B003E003F004200450048004C0077
:102A5400500059006B007F008A009C00A800B3005E
:102A6400C100CE00DD00EA00F9000D011F012B01B9
:102A74003F017E01A901B701E101FF01180228020B
:102A84003D024D0262027D029002B802C502D602E6
:102A9400E902FA02080316032503320340034D0337
:102AA40060036F037703830395039F03AA03B403AF
:102AB400C003C903D503DF03EB03F50300040504D6
:102AC4001204190422042C0434043704400474044A
:102AD4007E04000003000300030003000400180048
:102AE400400068009900CD00FF00390197012602DB
:102AF400A90240039103EF0318042A0434043E049A
:042B040045044D0433
:00000001FF
