S00E000076696F6C65742E7372656383
S11300000C94F4000C9413010C9413010C9413013C
S11300100C9413010C9413010C9413010C9413010C
S11300200C9413010C9413010C9413010C941301FC
S11300300C949C0C0C9413010C9413010C94790CE7
S11300400C9413010C9413010C94A90D0C9413013A
S11300500C94800D0C946B0D0C9413010C941301EF
S11300600C9413010C9413010C9413010C941301BC
S11300700C9413010C9413010C94360D0C9413017D
S11300800C940D0D0C9413010C9413010800090039
S113009009000A000B000C000D000D000E000F00FB
S11300A010001100120013001400150016001700B0
S11300B019001A001B001D001E001F002100220051
S11300C024002500270028002B002C002E003000DF
S11300D032003400360038003B003E003F0042004E
S11300E0450048004C00500059006B007F008A0016
S11300F09C00A800B300C100CE00DD00EA00F900B6
S11301000D011F012B013F017E01A901B701E1018E
S1130110FF01180228023D024D0262027D02900294
S1130120B802C502D602E902FA020803160325033F
S1130130320340034D0360036F0377038303950386
S11301409F03AA03B403C003C903D503DF03EB036E
S1130150F503000405041204190422042C043404D5
S11301603704400474047E04000003000300030009
S11301700300030003000300030003000300030063
S11301800300030003000300030004000400040050
S11301900400180018001800180040004000400037
S11301A040006800680068006800990099009900A0
S11301B09900CD00CD00CD00CD00FF00FF00FF0071
S11301C0FF0039013901390139019701970197017C
S11301D097012602A90240039103EF0318042A049D
S11301E034043E0445044D0411241FBECFEFD0E176
S11301F0DEBFCDBF13E0A0E0B1E0E4E3FAE200E04B
S11302000BBF02C007900D92A630B107D9F72FE0BB
S1130210A6E0B3E001C01D92A23BB207E1F70E9441
S1130220F0070C9418150C9400008F92AF92CF92A3
S1130230EF920F93CF93DF93CDB7DEB79CE1899F05
S1130240F0011124E85CFC4F608341832283138214
S11302500483E582C682A7821386148685868A85EE
S113026086878B8587878C85808B148A158A8D85F4
S1130270868B8E85878B138EDF91CF910F91EF90B4
S1130280CF90AF908F9008955F926F927F928F92EC
S11302909F92AF92BF92CF92DF92EF92FF920F9311
S11302A01F93CF93DF9380E687B98FE886B91F92B7
S11302B013E01F93C0E1CF93D0EADF9386E0D82EFA
S11302C0DF92812C90E1A92E20EAC22E3BE0E32E9E
S11302D000E021E047E060E080E00E94150187E053
S11302E08F93BB24B394BF92CF93DF938F9347E153
S11302F0E42E21E048E061E081E00E9415011F92B4
S11303001F93CF93DF931F928824839453E1E52EA8
S113031001E021E041E062E082E00E9415011F92C9
S11303201F93CF93DF938EE08F9362E0862E7DE060
S1130330E72E02E021E041E063E083E00E94150142
S11303401F921F93CF93DF93BF9288248394E5E198
S1130350EE2E01E021E042E064E084E00E94150119
S11303601F921F93CF93DF93F2E0FF2EFF92AAE137
S1130370EA2E21E043E065E085E00E9415011F922A
S11303801F93CF93DF931F93BDE1EB2E21E044E055
S113039066E086E00E9415018DB79EB783960FB67E
S11303A0F8949EBF0FBE8DBF1F921F93CF93DF9310
S11303B08FE1982E9F929EE0E92E21E045E067E0D0
S11303C087E00E9415011F921F93CF93DF9324E0CF
S11303D0522E5F923BE1E32E21E046E068E088E0A4
S11303E00E9415011F921F93CF93DF9348E0642E60
S11303F06F925FE0E52E21E049E069E089E00E9428
S113040015011F921F93CF93DF9369E0762E7F929D
S113041079E1E72E21E04AE06AE08AE00E941501D2
S11304201F921F93CF93DF938AE08F93E8E1EE2E20
S113043020E04BE06BE08BE00E9415011F921F93BC
S1130440CF93DF93CF93F1E1EF2E20E04CE06CE00B
S11304508CE00E9415016F92FF92CF93DF938CE0A2
S11304608F93A6E1EA2E21E04DE06DE08DE00E943D
S113047015018DB79EB783960FB6F8949EBF0FBE35
S11304808DBF1F921F93CF93DF93DF92812CB4E033
S1130490EB2E00E021E04EE06EE08EE00E941501BC
S11304A01F921F93CF93DF931F9203E0802E85E169
S11304B0E82E02E021E040E16FE08FE00E941501A8
S11304C01F921F93CF93DF938DE08F93882483949F
S11304D092E1E92E01E021E04FE060E180E10E9439
S11304E015011F921F93CF93DF9325E0622E6F9225
S11304F03CE1E32E20E04FEF61E181E10E94150130
S11305001F921F93CF93DF93CF9342E0842E5FE03B
S1130510E52E02E020E04FEF62E182E10E94150146
S11305201F921F93CF93DF9382E18F9361E1E62EB5
S113053020E04FEF63E183E10E9415017F92FF9277
S1130540CF93DF93FF92812CEE24E39400E021E02B
S11305504FEF64E184E10E9415018DB79EB7839645
S11305600FB6F8949EBF0FBE8DBF8BE08F93FF92A2
S1130570CF93DF937EE1772E7F92E2E08E2EF4E13B
S1130580EF2E02E021E04FEF65E185E10E941501C5
S11305901F921F93CF93DF931F93812CA7E0EA2E22
S11305A000E021E04FEF66E186E10E9415011F9211
S11305B0FF92CF93DF9384E18F93B2E1EB2E21E09E
S11305C04FEF67E187E10E941501BF92FF92CF933D
S11305D0DF9385E18F9383E1E82E21E04FEF68E11B
S11305E088E10E941501FF92FF92CF93DF9386E189
S11305F08F939AE0E92E21E04FEF69E189E10E94AF
S113060015011F93FF92CF93DF9387E18F932FE020
S1130610E22E21E04FEF6AE18AE10E9415015F9228
S1130620FF92CF93DF9388E18F9339E0E32E21E0AB
S11306304FEF6BE18BE10E9415018DB79EB7839656
S11306400FB6F8949EBF0FBE8DBF1F921F93CF931A
S1130650DF9389E18F934EE0E42E21E04FEF6CE1CC
S11306608CE10E9415011F921F93CF93DF938AE1BF
S11306708F9350E1E52E21E04FEF6DE18DE10E9473
S113068015011F921F93CF93DF938BE18F9368E043
S1130690E62E21E04FEF6EE18EE10E9415016F928C
S11306A0FF92CF93DF938CE18F937DE0E72E21E0DF
S11306B04FEF6FE18FE10E9415011F921F93CF93BB
S11306C0DF938DE18F93ECE0EE2E21E04FEF60E2BB
S11306D080E20E9415011F921F93CF93DF937F92B4
S11306E0FBE0EF2E21E04FEF61E281E20E94150171
S11306F01F921F93CF93DF939F92A1E1EA2E21E0F3
S11307004FEF62E282E20E9415018DB79EB7839695
S11307100FB6F8949EBF0FBE8DBFDF92FF92CF93AA
S1130720DF931F92B5E0EB2E21E04FEF63E283E20B
S11307300E9415010F900F900F900F900F90DF9172
S1130740CF911F910F91FF90EF90DF90CF90BF90CA
S1130750AF909F908F907F906F905F900895FF92DD
S11307600F931F93CF93DF93F82EFB01C1819081E8
S1130770933009F45AC030F40C2F10E0913011F189
S113078090F50CC0953009F455C008F450C096306B
S113079009F460C0973009F07BC06BC08CE2809391
S11307A09D0D8CE1809FE001819FD00D1124C85CD8
S11307B0DC4F89818F3F21F00E94FF0881E08A830A
S11307C040E00FC08CE1809FE001819FD00D112497
S11307D0C85CDC4F89818F3F19F00E9442091A825C
S11307E041E062E057C08CE1809FE001819FD00D21
S11307F01124C85CDC4F89818F3F19F00E944209A3
S11308001A8285E08A95F1F78CE1809FE001819F4F
S1130810D00D1124C85CDC4F89818F3F21F00E94E8
S1130820FF0881E08A8342E0DCCF43E0DACF40E096
S113083060E030C08CE1C89FE0011124C85CDC4F4B
S113084089818F3F29F00E94FF0881E08A838B838E
S113085045E0C7CF8CE1C89FE0011124C85CDC4FA0
S113086089818F3FF9F082818E83828180937F0B0F
S113087019C08CE1C89FE0011124C85CDC4F898158
S11308808F3F81F082818F87828180937A0B0AC0A7
S113089040E061E08F2DDF91CF911F910F91FF9088
S11308A00C947911DF91CF911F910F91FF900895CE
S11308B0CF9390916F099F3F09F4C2C08091590969
S11308C0882309F4BDC080917009882321F081E058
S11308D08093A80D02C01092A80D8091A80D8823C2
S11308E019F09F3720F0A0C0983708F09DC09536C6
S11308F008F495C0C09106032C2F2F5F20930603A4
S11309008823F1F18091830D9A3620F4829586959F
S113091086950BC0292F2A568295869586958370D5
S11309202A3010F48F5F01C08E5F837080939B0D1B
S1130930E92FF0E0E556F109EE0FFF1FEE0FFF1F60
S1130940E80FF11DEE0FFF1FE457FF4F65917491FF
S11309506B50710980E090E00E94F71228EB3EE1B1
S113096049E251E40E948F1260932F07709330077D
S11309708093310790933207C95FC093060360C028
S11309809A3630F48091830D82958695869517C0AA
S1130990892F8A568A3040F48091830D82958695FA
S11309A0869583708F5F0BC0892F8457833048F4FA
S11309B08091830D82958695869583708E5F837072
S11309C001C080E080939B0DE7E7F0E0E91BF109AB
S11309D0EE0FFF1FEE0FFF1FE81BF109EE0FFF1FC5
S11309E0E859FE4F6591749180E090E00E94F712FF
S11309F028EB3EE141E251E40E948F129B01AC01DD
S1130A0060E070E088EC92E40E94261260932F0765
S1130A1070933007809331079093320711C080E0C0
S1130A2090E0A0E8BFEB04C080E090E0A8EDB2E461
S1130A3080932F0790933007A0933107B093320728
S1130A408091700981508E3F28F4809106038F5F56
S1130A5080930603CF91089580E090E3AFE1B6E47C
S1130A608093760990937709A0937809B0937909D4
S1130A708CE59FE8A4E9B1E480934809909349097F
S1130A80A0934A09B0934B098DEC9CECA8E3B3E422
S1130A908093250390932603A0932703B093280300
S1130AA086E696EEA5E2B4E480938F0D9093900DC4
S1130AB0A093910DB093920D86E696EAA1E5B4E475
S1130AC08093AB0D9093AC0DA093AD0DB093AE0D90
S1130AD081EE9AEFACE9B2E480936A0990936B09D2
S1130AE0A0936C09B0936D0986E696ECA7E0B4E494
S1130AF08093280790932907A0932A07B0932B0784
S1130B0080E090EBA7E1B5E48093660990936709D0
S1130B10A0936809B093690980E098E9AEEAB5E466
S1130B208093A00D9093A10DA093A20DB093A30D5B
S1130B30089580E096E1A9E8B6E480933D07909398
S1130B403E07A0933F07B093400788EB93EC909344
S1130B508C0D80938B0D8AEE98EB9093960D809379
S1130B60950D8FE69CE990932D0780932C0785E9DA
S1130B709CE290935F0980935E0981E79AEA9093DF
S1130B802303809322038AEC98E390935309809380
S1130B90520982E093E090938E0D80938D0D8DEA3F
S1130BA097E09093940D8093930D80E895E1909352
S1130BB04707809346078EE49CEF90934507809304
S1130BC044078BE393E090938A0D8093890D8CED19
S1130BD09BE6AEE2B0E48093330790933407A0938E
S1130BE03507B093360780E895E5A2ECB1E1809330
S1130BF05A0990935B09A0935C09B0935D0980EA5C
S1130C009CE3A3E7BCE080932D0390932E03A09371
S1130C102F03B093300380EA96E6ACEFB9E18093FA
S1130C20320390933303A0933403B093350380E2EB
S1130C3095EBA4EAB6EF8093550990935609A093D7
S1130C405709B093580980E992ECADEBBBE080936F
S1130C504D0990934E09A0934F09B093500988E829
S1130C609BE7A5E8BBEF8093970D9093980DA09315
S1130C70990DB0939A0D8CED93ECA6E0BFEF8093A1
S1130C801E0390931F03A0932003B09321038AE6CD
S1130C909DEAA7EDBFEF80937F0D9093800DA09305
S1130CA0810DB093820D8CEB90EEA4E6BFEF8093A0
S1130CB0090390930A03A0930B03B0930C0382ECF3
S1130CC096ECAAEBBEE380937B0B90937C0BA093F2
S1130CD07D0BB0937E0B0895DF92EF92FF920F93FA
S1130CE01F93CF93DF931FEF1ABB87E08BBB17BB18
S1130CF080EE88BB14BB15BB8BEF81BB80EF82BB3E
S1130D008EEF82B913B810936100109362008FE1E3
S1130D108093640034E0F32EF092650080E981BF93
S1130D2083B78F6083BF12BE87B7826087BF789412
S1130D3080E890E79BBD8ABD8DE08EBD1DBC1CBCC8
S1130D4087B7806187BF01E000939C0D8CE280939C
S1130D509D0D0E94E50A10922A0310922903109215
S1130D602C0310922B0310924107109242078AE041
S1130D7090E00E94D513D82EE92EE4EAFDE08083AA
S1130D8091838AE090E00E94D513C6EADDE088836F
S1130D9099834FEF50E061E87BE08D2D9E2D0E94FA
S1130DA00B0B4FEF50E060E87CE0888199810E9452
S1130DB00B0B1092A90D1092AA0D0E944401789475
S1130DC00093470910923703F09254091092650971
S1130DD010927F0B10927A0B1092510910924C09C9
S1130DE01092880D10923103109271090E942C0503
S1130DF00E94990510936F091093800B1093380784
S1130E0010929F0D109236031092370710924307E9
S1130E1010922F0710923007109231071092320768
S1130E201092AD0F1092600910926E0910922E0765
S1130E301092A80D109259091092240300930D03E7
S1130E40A0911903CCE1CA9FD0011124A85CBC4F26
S1130E5011968C910E944209E0911A03CE9FF001F1
S1130E601124E85CFC4F81810E944209109216050E
S1130E701092320510924E0581E10E94C80882E169
S1130E800E94C80883E1DF91CF911F910F91FF90D9
S1130E90EF90DF900C94C80889E795E00E948509DB
S1130EA080939F0D833010F08DED01C08CEC809306
S1130EB038070895CF92DF92EF92FF920F931F931A
S1130EC0CF93DF93C0902F07D0903007E090310785
S1130ED0F090320720E030E0A901C701B6010E947A
S1130EE08B1287FF4CC029E23CE54FE05FEBC70162
S1130EF0B6010E948B1287FF0AC025E83BEE41E150
S1130F005FEBC701B6010E94A9131816C4F181E072
S1130F10809351090EE013E04CE1F42EF801C191E5
S1130F208F01FC9EE0011124C85CDC4F89810E9482
S1130F3042091A82F3E00E311F0781F71092160559
S1130F401092320510924E0581E10E94C80882E198
S1130F500E94C80883E10E94C80880914C0981114D
S1130F6008C080913103811104C040E062E00E9416
S1130F70791181E08093310380934C0928C020E0EB
S1130F8030E048EC52E4C701B6010E94A9131816D8
S1130F90F4F48091A80D8823D1F010925109809126
S1130FA0A5040E94FF0881E08093A6048091880D27
S1130FB0811108C080917109811104C044E662E086
S1130FC00E94791181E0809371098093880DDF91EB
S1130FD0CF911F910F91FF90EF90DF90CF900895E4
S1130FE00E946C061092460911E0C7ECDCE2809185
S1130FF04609912F981B909346098091790B811192
S113100007C0C093790B40E060E081E00E94791151
S11310108091780B811106C0C093780B40E060E0AA
S11310200E9479118091A90D8823C9F08091A90D9E
S113103081508093A90DE091A40DF091A50D6181DB
S11310407281478180E00E94AF034FEF50E061E876
S11310507BE08091A40D9091A50D0E940B0B8091D3
S1131060AA0D8823C9F08091AA0D81508093AA0DFE
S1131070E091A60DF091A70D61817281478181E015
S11310800E94AF034FEF50E060E87CE08091A60D32
S11310909091A70D0E940B0B80914709813091F428
S11310A0109247090E94BC090E94580480912E079F
S11310B0811102C00E945A0780913703873111F4CD
S11310C00E944C0780912403813009F090CF109244
S11310D02403D0939D0D8BCFA898E5E6F0E08081A2
S11310E08D7F808308958130F9F020F0823009F0FB
S11310F04EC034C064FF02C0DF9A01C0DF9863FFB2
S113110002C0DE9A01C0DE9862FF02C0DD9A01C00F
S1131110DD9861FF02C0DC9A01C0DC9860FF02C068
S1131120DB9A0895DB98089564FF02C0C09A01C059
S1131130C09863FF02C0C19A01C0C19862FF02C097
S1131140C29A01C0C29861FF02C0C39A01C0C39889
S113115060FF02C0C49A0895C498089564FF02C051
S11311601B9A01C01B9863FF02C01C9A01C01C9803
S113117062FF02C01D9A01C01D9861FF02C01E9A41
S113118001C01E9860FF02C01F9A08951F98089519
S1131190823131F0833159F0813199F40C946C0827
S11311A0809165008E7F809365009098089580916A
S11311B06500877F80936500809165008F7E8093B2
S11311C065000895823149F0833171F08131B1F4C1
S11311D0A89A8091650082600FC08091650081604B
S11311E080936500909A089580916500886080934B
S11311F06500809165008061809365000895883062
S113120059F168F4843001F130F48230C9F0D0F43B
S11312108130B9F513C08630D9F0E0F417C08C30B2
S113122039F120F48A3001F108F518C08E3021F12B
S113123008F18F3019F1803121F522C0D89A089530
S1131240D99A0895DA9A0895C59A0895C69A089580
S1131250C79A0895949A0895959A0895809165007F
S11312608460809365000895AF9A0895AE9A0895B6
S1131270AD9A0895AC9A0895AB9A0895AA9A0895E0
S1131280A99A0895883059F168F4843001F130F452
S11312908230C9F0D0F48130B9F513C08630D9F06A
S11312A0E0F417C08C3039F120F48A3001F108F5EC
S11312B018C08E3021F108F18F3019F1803121F5F9
S11312C022C0D8980895D9980895DA980895C598B1
S11312D00895C6980895C798089594980895959880
S11312E00895809165008B7F809365000895AF9881
S11312F00895AE980895AD980895AC980895AB9864
S11313000895AA980895A9980895FC0121818081DF
S113131090E0820F911D2281820F911D63E070E0A5
S11313200E94AD13862F08959CE1899FF00111243A
S1131330E85CFC4F8589882311F0158A0895CF0154
S113134041960C9485099CE1899FF0011124E85C85
S1131350FC4F8485882311F014860895CF010896E4
S11313600C94850990E697B997B19C7F97B997B18A
S1131370982B97B9369A08951F93CF93DF93809152
S11313805409C0913703823009F46AC020F48130D3
S113139009F001C107C0833009F4C1C0843009F0E9
S11313A0FAC0E5C08CE1C89FE0011124C85CDC4FA1
S11313B02B8530E0C901019663E070E00E94C113FF
S11313C08B879881943189F48091650980936F09A2
S11313D080919E0D8093830D8091650980936009AF
S11313E080919E0D80936E0906C0953121F4809101
S11313F065098093800B80916509FE01E20FF31F5C
S11314008087209165098E81821720F48B81813039
S113141009F008C0209165098F812817D8F48A81C2
S11314208823C1F089818F3F19F00E9442090EC0C0
S1131430923139F0933139F0913141F40E946C08C2
S113144005C082E101C083E10E94C8081A8280912C
S113145065098C8782E0809354091D856E8592C04E
S11314609CE1C99FE0011124C85CDC4F2C8930E069
S1131470C901019663E070E00E94C1138C8B9881CE
S1131480973139F4809165098093700981E08093E4
S1131490590980916509FE01E20FF31F818B2091A8
S11314A065098F858217D8F48B818130C1F08981D9
S11314B08F3F19F00E9442090EC0923139F09331E6
S11314C039F0913141F40E946C0805C082E101C0F9
S11314D083E10E94C8081A82809165098D8B1E8958
S11314E0133029F083E0809354096F894BC081E065
S11314F0809354098091370390E0019664E270E090
S11315000E94C113809337032CE1289FF001299F87
S1131510F00D1124E85CFC4F1481658133C0D0E0E8
S11315204CE14C9FF0014D9FF00D1124E85CFC4F01
S1131530238D30E0C901019663E070E00E94C1137D
S1131540838F80916509E20FF31F808F81E0809380
S11315505409CE01019664E270E00E94C1138093A5
S11315603703489FF001499FF00D11241DC081E00D
S1131570809354099CE1C99FE0011124C85CDC4FAD
S11315801C816D81812F0E94730883E393E7019787
S1131590F1F7812F15C081E080935409E09137035E
S11315A09CE1E99FF0011124E85CFC4FC481658152
S11315B08C2F0E94730883E393E70197F1F78C2F34
S11315C0DF91CF911F910C94B20987E08093990029
S11315D089B988E18AB9EAE9F0E08083808180648E
S11315E08083808180688083569A579A0895FB018E
S11315F020813181F901E827FF27EE0FFF1FEA5F01
S1131600FE4F232F33278081918182279327FB016B
S1131610918380830895FC011082728361835683D1
S113162045831086178214821382118608954F927F
S11316305F926F927F928F929F92AF92BF92CF925E
S1131640DF92EF92FF920F931F93CF93DF9300D01B
S11316501F92CDB7DEB76C015B0179011A82198242
S1131660009709F458C02115310509F454C04C30D1
S113167018F0483309F051C044244394512C4C0EC3
S11316805D1EB201842F4B830E94F70A3701600E5E
S1131690711E470107C0B201F40181914F014B83D0
S11316A00E94F70A4B8186149704A9F789819A81CD
S11316B0F701E00FF11F908381830E5F1F4F80ECD1
S11316C0F60180834183D70142E050E02DED3BEDEC
S11316D06CED0FC08D91803C19F43083618304C09C
S11316E080838B3D21F421834E5F5F4F02C04F5FA7
S11316F05F4FCD018E199F09F601E40FF51F801786
S1131700910740F380EC80834F5F5F4FF501518375
S1131710408381E003C085E001C086E00F900F9014
S11317200F90DF91CF911F910F91FF90EF90DF9079
S1131730CF90BF90AF909F908F907F906F905F906D
S11317404F900895CF92DF92EF92FF920F931F93E1
S1131750CF93DF93EC0129813A812115310509F4F6
S113176084C08F8198854D815E81415051098417D1
S1131770950708F07CC04985423039F118F44423B8
S113178031F038C0403131F04032A1F50AC0603C3C
S113179091F50DC06C3018F0683309F06AC06883A5
S11317A026C0603C31F4892B11F081E021C080E136
S11317B01FC06B3D11F482E01BC0F901E80FF91F53
S11317C06083019698878F8316C06C3D29F4F901D4
S11317D0E80FF91F40EC07C06D3D09F04CC0F9015A
S11317E0E80FF91F4BED4083019698878F8380E2C1
S11317F0898701C019868985813011F089853CC0AB
S113180089819A814F815885840F951FFC013297F5
S1131810308120E0FC01319780816901C80ED11C20
S11318204250510958874F837E0183E0E80EF11C32
S1131830B70188810E94F70A00E010E00AC0E9813C
S1131840FA81E00FF11FB70180810E94F70A0F5F50
S11318501F4F8F8198850817190788F38B819C8106
S11318608C159D0559F284E007C085E005C083E02E
S113187003C086E001C087E0DF91CF911F910F91F3
S1131880FF90EF90DF90CF900895282F30E0F9017A
S1131890EF5BF84F6081D901AA0FBB1FA75DBC4F56
S11318A04D915C9170E06417750710F581110EC0BD
S11318B080819FEF929FD001939FB00D1124A80FB8
S11318C0B11DA85BB84F9C919CB910C0813081F4C4
S11318D080819FEF929FD001939FB00D1124A80F98
S11318E0B11DA85BB84F9C9190939C008F5F80833F
S11318F008951F920F920FB60F9211248F939F9306
S113190080910703909108030196909308038093B4
S113191007038436910548F0809162008095809396
S1131920620010920803109207039F918F910F9009
S11319300FBE0F901F9018951F920F920FB60F9223
S113194011240BB60F922F933F934F935F936F9392
S11319507F938F939F93AF93BF93CF93EF93FF9313
S113196080919C0D811130C080910D03882361F119
S1131970C1E0C0939C0D80916D040E94FF08C09348
S11319806E04809189040E94FF08C0938A048091A8
S113199015050E94FF08C0931605809131050E9429
S11319A0FF08C093320580914D050E94FF08C09343
S11319B04E0581E10E94E20882E10E94E20883E18F
S11319C00E94E20810920D0380919D0D811107C0C1
S11319D080912403811103C081E0809324038091CA
S11319E09C0D815080939C0D80919D0D815080931E
S11319F09D0DFF91EF91CF91BF91AF919F918F91E9
S1131A007F916F915F914F913F912F910F900BBEFA
S1131A100F900FBE0F901F9018951F920F920FB644
S1131A200F9211240BB60F922F933F934F935F9312
S1131A306F937F938F939F93AF93BF93EF93FF9392
S1131A4081E00E94450CFF91EF91BF91AF919F916E
S1131A508F917F916F915F914F913F912F910F9053
S1131A600BBE0F900FBE0F901F9018951F920F92F0
S1131A700FB60F9211240BB60F922F933F934F93EF
S1131A805F936F937F938F939F93AF93BF93EF93E2
S1131A90FF9360919C008091A60D9091A70D0E94E8
S1131AA0A20B813029F48091AA0D8F5F8093AA0D37
S1131AB0FF91EF91BF91AF919F918F917F916F9122
S1131AC05F914F913F912F910F900BBE0F900FBEDE
S1131AD00F901F9018951F920F920FB60F9211241A
S1131AE08F9384B180939E0D85B18093650981E0C5
S1131AF0809347098F910F900FBE0F901F901895F8
S1131B001F920F920FB60F9211240BB60F922F93C0
S1131B103F934F935F936F937F938F939F93AF9371
S1131B20BF93EF93FF9380E00E94450CFF91EF91E8
S1131B30BF91AF919F918F917F916F915F914F91E1
S1131B403F912F910F900BBE0F900FBE0F901F90DF
S1131B5018951F920F920FB60F9211240BB60F9285
S1131B602F933F934F935F936F937F938F939F93A1
S1131B70AF93BF93EF93FF936CB18091A40D9091B9
S1131B80A50D0E94A20B813029F48091A90D8F5FCD
S1131B908093A90DFF91EF91BF91AF919F918F9188
S1131BA07F916F915F914F913F912F910F900BBE59
S1131BB00F900FBE0F901F901895823010F40C9464
S1131BC0450C08952F923F924F925F926F927F92AD
S1131BD08F929F92AF92BF92CF92DF92EF92FF9239
S1131BE00F931F93CF93DF93CDB7DEB728970FB62C
S1131BF0F894DEBF0FBECDBF98878F83DC011C92A3
S1131C0030915204330F80916E04B4E08B9FC00175
S1131C101124382B80913604382B80918A04E8E013
S1131C208E9FC0011124382B8091DE04F0E18F9F38
S1131C30C0011124382B8091FA0420E2829FC00154
S1131C401124382B40913205440F80914E0554E005
S1131C50859FC0011124482B80911605482BE6EA84
S1131C60F4E08081A8E08A9FC0011124482B2091D0
S1131C705603220F80917203B4E08B9FC00111249C
S1131C80282B80913A03282B8091AA0358E0859F42
S1131C90C0011124282B8091C603A0E18A9FC001B2
S1131CA01124282B8091E203B0E28B9FC001112400
S1131CB0282B8091FE0350E4859FC0011124282B1A
S1131CC080911A04A0E88A9FC0011124282BAF81B7
S1131CD0B88511962C93119712963C9312971396EC
S1131CE04C93139789E914968C93149780811596D5
S1131CF08C9328E3622E23E0722EF30180810E94EC
S1131D00A309AF81B88516968C9334E5832E33E00E
S1131D10932EF40180810E94A309AF81B8851796A0
S1131D208C9340E7A42E43E0B42EF50180810E94F9
S1131D30A309AF81B88518968C935CE8C52E53E04F
S1131D40D52EF60180810E94A309AF81B88519962A
S1131D508C9368EAE62E63E0F62EF70180810E94F8
S1131D60A309AF81B8851A968C9300EE13E0F801AD
S1131D7080810E94A309AF81B8851B968C93ECEFF8
S1131D80F3E080810E94A309AF81B8851C968C93EF
S1131D9078E1472E74E0572EF20180810E94A30956
S1131DA0AF81B8851D968C93E4E32E2EE4E03E2E9D
S1131DB0F10180810E94A309AF81B8851E968C939E
S1131DC020E534E0F901808129833A830E94A30944
S1131DD0AF81B8851F968C934CE654E0FA0180815C
S1131DE04B835C830E94A309AF81B88550968C9382
S1131DF068E874E0FB0180816D837E830E94A309FF
S1131E00AF81B88551968C93ECEDF4E080810E940B
S1131E10A309AF81B88552968C93E8EFF4E08081F2
S1131E200E94A309AF81B88553968C93E4E1F5E051
S1131E3080810E94A309AF81B88554968C93E0E316
S1131E40F5E080810E94A309AF81B88555968C93F3
S1131E50ECE4F5E080810E94A309AF81B885569631
S1131E608C93E8E6F5E080810E94A309AF81B885F0
S1131E7057968C93E4E8F5E080810E94A309AF8132
S1131E80B88558968C93E0EAF5E080810E94A30916
S1131E90AF81B88559968C93ECEBF5E080810E9474
S1131EA0A309AF81B8855A968C93E8EDF5E080815B
S1131EB00E94A309AF81B8855B968C93E4EFF5E0AB
S1131EC080810E94A309AF81B8855C968C93E0E180
S1131ED0F6E080810E94A309AF81B8855D968C935A
S1131EE0ECE2F6E080810E94A309AF81B8855E969A
S1131EF08C93E8E4F6E080810E94A309AF81B88561
S1131F005F968C93E4E6F6E080810E94A309AF819A
S1131F10B88590968C93E0E8F6E080810E94A3094E
S1131F20AF81B88591968C93ECE9F6E080810E94AC
S1131F30A309AF81B88592968C93E8EBF6E0808193
S1131F400E94A309AF81B88593968C93E4EDF6E0E3
S1131F5080810E94A309AF81B88594968C93E0EFA9
S1131F60F6E080810E94A309AF81B88595968C9391
S1131F7080910C070E94A309EF81F88586A317A21C
S1131F8010A611A612A613A6D3018C910E9494093F
S1131F90EF81F88584A7D4018C910E949409EF8184
S1131FA0F88585A7D5018C910E949409EF81F88565
S1131FB086A7D6018C910E949409EF81F88587A7A2
S1131FC0D7018C910E949409EF81F88580ABD801E8
S1131FD08C910E949409EF81F88581ABACEFB3E05A
S1131FE08C910E949409EF81F88582ABD2018C9187
S1131FF00E949409EF81F88583ABD1018C910E94F2
S11320009409EF81F88584AB29813A81D9018C91B7
S11320100E949409EF81F88585AB4B815C81DA01DC
S11320208C910E949409EF81F88586AB6D817E8145
S1132030DB018C910E949409EF81F88587ABACEDAC
S1132040B4E08C910E949409EF81F88580AFA8EFE9
S1132050B4E08C910E949409EF81F88581AFA4E1EA
S1132060B5E08C910E949409EF81F88582AFA0E3DA
S1132070B5E08C910E949409EF81F88583AFACE4BC
S1132080B5E08C910E949409EF81F88584AFA8E6AD
S1132090B5E08C910E949409EF81F88585AFA4E89E
S11320A0B5E08C910E949409EF81F88586AFA0EA8F
S11320B0B5E08C910E949409EF81F88587AFACEB71
S11320C0B5E08C910E949409EF81F885E05CFF4FA4
S11320D08083E8EDF5E080810E949409EF81F88522
S11320E0EF5BFF4F8083A4EFB5E08C910E949409CD
S11320F0EF81F885EE5BFF4F8083E0E1F6E08081BD
S11321000E949409EF81F885ED5BFF4F8083ACE278
S1132110B6E08C910E949409EF81F885EC5BFF4F47
S11321208083E8E4F6E080810E949409EF81F885D9
S1132130EB5BFF4F8083A4E6B6E08C910E94940988
S1132140EF81F885EA5BFF4F8083E0E8F6E0808169
S11321500E949409EF81F885E95BFF4F8083ACE925
S1132160B6E08C910E949409EF81F885E85BFF4FFB
S11321708083E8EBF6E080810E949409EF81F88582
S1132180E75BFF4F8083A4EDB6E08C910E94940935
S1132190EF81F885E65BFF4F8083E0EFF6E0808116
S11321A00E949409EF81F885E55BFF4F8083EF81FE
S11321B0F885E45BFF4F8FEF8083EF81F885E35B65
S11321C0FF4F90916F099083EF81F885E25BFF4F99
S11321D09091AD0F9083EF81F885E15BFF4F108202
S11321E0EF81F885E05BFF4F1082EF81F885EF5AAD
S11321F0FF4F1082EF81F885EE5AFF4F9091370719
S11322009083EF81F885ED5AFF4F80838CE995E048
S11322100E948509EF81F885EC5AFF4F808384ED95
S113222095E00E948509EF81F885EB5AFF4F808382
S113223080EF95E00E948509EF81F885EA5AFF4F07
S113224080838CE096E00E948509EF81F885E95A45
S1132250FF4F808388E296E00E948509EF81F8852C
S1132260E85AFF4F808384E496E00E948509EF8159
S1132270F885E75AFF4F808384EB96E00E94850936
S1132280EF81F885E65AFF4F808384E297E00E944D
S11322908509EF81F885E55AFF4F808380917F0B94
S11322A010927F0BEF81F885E45AFF4F8083809171
S11322B07A0B10927A0BEF81F885E35AFF4F8083F3
S11322C028960FB6F894DEBF0FBECDBFDF91CF9135
S11322D01F910F91FF90EF90DF90CF90BF90AF9040
S11322E09F908F907F906F905F904F903F902F9032
S11322F008956F927F928F929F92BF92CF92DF92B6
S1132300EF92FF920F931F93CF93DF93B82E613018
S1132310B9F020F0623009F08BC022C0C82FD0E0A1
S11323202FEF829FC00111248155924F0E94E20D2C
S1132330FE01EE0FFF1FE75CF84F80E690E021C03E
S1132340E82FF0E08FEFB89ED0011124A155B24FD1
S11323506C93EE0FFF1FE75CF84F81E090E011C033
S1132360E82FF0E02FEF829FD0011124A155B24F46
S11323706C9311964C93EE0FFF1FE75CF84F82E0CD
S113238090E0918380838B2C912C8FEFB89E700109
S11323901124E701C658D64F6401CC0CDD1CF601AC
S11323A0E75CF84F0081118197012155324FA4E871
S11323B06A2EADE07A2E6C0C7D1C41E0B301CE0197
S11323C00E94170B8130A1F5F30180819181F60100
S11323D0E75DFC4F91838083808191819701285B25
S11323E0384FAC01BE01C9010E940F15F401EF5B27
S11323F0F84F1082F1E0BF1206C080919B00882341
S1132400B9F081E006C0B11013C08BB1882381F00C
S113241080E0DF91CF911F910F91FF90EF90DF90BB
S1132420CF90BF909F908F907F906F900C94DD0D14
S1132430DF91CF911F910F91FF90EF90DF90CF909C
S1132440BF909F908F907F906F9008955058BB27B6
S1132450AA270ED044C135D130F03AD120F031F45E
S11324609F3F11F41EF42AC10EF4E095E7FB20C14E
S1132470E92F46D180F3BA176207730784079507DB
S113248018F071F49EF55EC10EF4E0950B2EBA2F90
S1132490A02D0B01B90190010C01CA01A001112466
S11324A0FF27591B99F0593F50F4503E68F11A1612
S11324B0F040A22F232F342F4427585FF3CF4695A3
S11324C037952795A795F0405395C9F77EF41F16C5
S11324D0BA0B620B730B840BBAF09150A1F0FF0F8F
S11324E0BB1F661F771F881FC2F70EC0BA0F621F7B
S11324F0731F841F48F4879577956795B795F7956B
S11325009E3F08F0B3CF9395880F08F09927EE0FFC
S1132510979587950895A8D008F481E008950CD084
S1132520DEC0D6D040F0CDD030F021F45F3F19F0BA
S1132530BFC0511108C1C2C0E3D098F39923C9F3B5
S11325405523B1F3951B550BBB27AA2762177307B5
S1132550840738F09F5F5F4F220F331F441FAA1F69
S1132560A9F333D00E2E3AF0E0E830D09150504029
S1132570E695001CCAF729D0FE2F27D0660F771FD7
S1132580881FBB1F261737074807AB07B0E809F0B9
S1132590BB0B802DBF01FF2793585F4F2AF09E3F4E
S11325A0510568F085C0CFC05F3FECF3983EDCF383
S11325B0869577956795B795F7959F5FC9F7880FC7
S11325C0911D9695879597F90895E1E0660F771F19
S11325D0881FBB1F621773078407BA0720F0621BAA
S11325E0730B840BBA0BEE1F88F7E0950895E894FB
S11325F009C097FB3EF490958095709561957F4F47
S11326008F4F9F4F9923A9F0F92F96E9BB279395F4
S1132610F695879577956795B795F111F8CFFAF404
S1132620BB0F11F460FF1BC06F5F7F4F8F4F9F4F35
S113263016C0882311F096E911C0772321F09EE893
S1132640872F762F05C0662371F096E8862F70E0F9
S113265060E02AF09A95660F771F881FDAF7880FD3
S11326609695879597F90895990F0008550FAA0B29
S1132670E0E8FEEF16161706E807F907C0F0121691
S11326801306E407F50798F0621B730B840B950B94
S113269039F40A2661F0232B242B252B21F40895E9
S11326A00A2609F4A140A6958FEF811D811D089586
S11326B097F99F6780E870E060E008959FEF80ECF1
S11326C0089500240A941616170618060906089594
S11326D000240A9412161306140605060895092EFA
S11326E00394000C11F4882352F0BB0F40F4BF2B69
S11326F011F460FF04C06F5F7F4F8F4F9F4F0895A9
S113270057FD9058440F551F59F05F3F71F047959E
S1132710880F97FB991F61F09F3F79F08795089583
S1132720121613061406551FF2CF4695F1DF08C0A2
S1132730161617061806991FF1CF869571056105BF
S113274008940895E894BB2766277727CB0197F967
S113275008958ADF08F48FEF0895AA1BBB1B51E18B
S113276007C0AA1FBB1FA617B70710F0A61BB70BFD
S1132770881F991F5A95A9F780959095BC01CD01A2
S1132780089597FB072E16F4009407D077FD09D01F
S11327900E94AD1307FC05D03EF4909581959F4FA0
S11327A00895709561957F4F08950F931F93CF936C
S11327B0DF938230910510F482E090E0E091B00F55
S11327C0F091B10F20E030E0C0E0D0E023C04081C0
S11327D0518148175907A8F04817590761F48281B5
S11327E09381209719F09B838A832EC09093B10F15
S11327F08093B00F29C02115310529F042175307E2
S113280010F0A90102C0BE01DF0102811381EF01B2
S11328109A01F8013097D9F62115310509F1281BE1
S1132820390B2430310590F412968D919C911397B5
S11328306115710521F0FB019383828304C0909399
S1132840B10F8093B00FFD01329644C0FD01E20F39
S1132850F31F81939193225031092D933C933AC0F5
S11328602091AE0F3091AF0F232B41F42091020140
S1132870309103013093AF0F2093AE0F20910001EC
S1132880309101012115310541F42DB73EB7409136
S1132890040150910501241B350BE091AE0FF0911A
S11328A0AF0FE217F307A0F42E1B3F0B28173907CD
S11328B078F0AC014E5F5F4F2417350748F04E0F98
S11328C05F1F5093AF0F4093AE0F8193919302C05B
S11328D0E0E0F0E0CF01DF91CF911F910F910895D7
S11328E0EF92FF920F931F93CF93DF93009709F416
S11328F08FC0DC01129713961C921E921297E090DF
S1132900B00FF090B10FE114F10489F42D913C91D2
S11329101197280F391F8091AE0F9091AF0F821736
S1132920930789F5B093AF0FA093AE0F71C0E70181
S113293020E030E001C0EA01CA17DB0738F44A811D
S11329405B819E0141155105B1F722C0BC01625063
S11329507109FB01D383C28300811181AC01400F53
S1132960511F4C175D0761F448815981400F511F75
S11329704E5F5F4F518340834A815B81538342831F
S11329802115310529F4B093B10FA093B00F40C0C5
S1132990F901B383A283E90169917991C60FD71F25
S11329A0AC17BD0779F4DC015E914E91460F571FB9
S11329B04E5F5F4F5183408312968D919C91139784
S11329C093838283A0E0B0E002C0D7017C01F701C9
S11329D0828193810097C9F7C701029620813181D2
S11329E0820F931F2091AE0F3091AF0F2817390734
S11329F079F4109729F41092B10F1092B00F04C01B
S1132A0013961C921E921297F092AF0FE092AE0FA3
S1132A10DF91CF911F910F91FF90EF900895FB01EB
S1132A20DC0102C001900D9241505040D8F7089546
S1072A30F894FFCF44
S1132A340000B20F20000000891112239B322446A7
S1132A44AD573665BF74488CC19D5AAFD3BE6CCAAA
S1132A54E5DB7EE9F7F88110080193331A22A556C1
S1132A642C47B7753E64C99C408DDBBF52AEEDDA8A
S1132A7464CBFFF976E802218B30100299132667A0
S1132A84AF763444BD554AADC3BC588ED19F6EEB6A
S1132A94E7FA7CC8F5D983310A2091121803A77781
S1132AA42E66B5543C45CBBD42ACD99E508FEFFB4A
S1132AB466EAFDD874C904428D5316619F702004DC
S1132AC4A9153227BB364CCEC5DF5EEDD7FC68882A
S1132AD4E1997AABF3BA85520C4397711E60A11441
S1132AE42805B3373A26CDDE44CFDFFD56ECE9980A
S1132AF46089FBBB72AA06638F7214409D51222520
S1132B04AB343006B9174EEFC7FE5CCCD5DD6AA9E9
S1132B14E3B8788AF19B87730E6295501C41A33500
S1132B242A24B1163807CFFF46EEDDDC54CDEBB9C9
S1132B3462A8F99A708B088481951AA793B62CC25B
S1132B44A5D33EE1B7F04008C919522BDB3A644ED1
S1132B54ED5F766DFF7C899400859BB712A6ADD298
S1132B6424C3BFF136E0C1184809D33B5A2AE55EB1
S1132B746C4FF77D7E6C0AA583B4188691972EE377
S1132B84A7F23CC0B5D14229CB38500AD91B666F91
S1132B94EF7E744CFD5D8BB502A499961087AFF358
S1132BA426E2BDD034C1C3394A28D11A580BE77F71
S1132BB46E6EF55C7C4D0CC685D71EE597F42880B3
S1132BC4A1913AA3B3B2444ACD5B5669DF78600C51
S1132BD4E91D722FFB3E8DD604C79FF516E4A99018
S1132BE42081BBB332A2C55A4C4BD7795E68E11C31
S1132BF4680DF33F7A2E0EE787F61CC495D52AA1F7
S1132C04A3B03882B193466BCF7A5448DD59622D10
S1132C14EB3C700EF91F8FF706E69DD414C5ABB1D7
S1132C2422A0B9923083C77B4E6AD5585C49E33DF0
S1092C346A2CF11E780F6A
S9030000FC
