:100000000C94F4000C9413010C9413010C94130140
:100010000C9413010C9413010C9413010C94130110
:100020000C9413010C9413010C9413010C94130100
:100030000C94B90C0C9413010C9413010C949B0CAC
:100040000C9413010C9413010C94F20D0C941301F5
:100050000C94C90D0C949B0D0C9413010C9413017A
:100060000C9413010C9413010C9413010C941301C0
:100070000C9413010C9413010C94660D0C94130151
:100080000C943D0D0C9413010C941301080009000D
:1000900009000A000B000C000D000D000E000F00FF
:1000A00010001100120013001400150016001700B4
:1000B00019001A001B001D001E001F002100220055
:1000C00024002500270028002B002C002E003000E3
:1000D00032003400360038003B003E003F00420052
:1000E000450048004C00500059006B007F008A001A
:1000F0009C00A800B300C100CE00DD00EA00F900BA
:100100000D011F012B013F017E01A901B701E10192
:10011000FF01180228023D024D0262027D02900298
:10012000B802C502D602E902FA0208031603250343
:10013000320340034D0360036F037703830395038A
:100140009F03AA03B403C003C903D503DF03EB0372
:10015000F503000405041204190422042C043404D9
:100160003704400474047E0400000300030003000D
:100170000300030003000300030003000300030067
:100180000300030003000300030004000400040054
:10019000040018001800180018004000400040003B
:1001A00040006800680068006800990099009900A4
:1001B0009900CD00CD00CD00CD00FF00FF00FF0075
:1001C000FF00390139013901390197019701970180
:1001D00097012602A90240039103EF0318042A04A1
:1001E00034043E0445044D0411241FBECFEFD0E17A
:1001F000DEBFCDBF13E0A0E0B1E0E6ECFAE200E044
:100200000BBF02C007900D92A630B107D9F722E1CB
:10021000A6E0B3E001C01D92A73FB207E1F70E943C
:10022000F9070C9461150C9400008F92AF92CF9255
:10023000EF920F93CF93DF93CDB7DEB793E3899F10
:10024000F0011124E45CFC4F60834183228313821C
:100250000483E582C682A7821386148685868A85F2
:1002600086878B8587878C85808B148A158A8D85F8
:10027000868B8E85878B138EDF91CF910F91EF90B8
:10028000CF90AF908F9008955F926F927F928F92F0
:100290009F92AF92BF92CF92DF92EF92FF920F9315
:1002A0001F93CF93DF9380E687B98FE886B91F92BB
:1002B00013E01F93C0E1CF93D0EADF9386E0D82EFE
:1002C000DF92812C90E1A92E20EAC22E3BE0E32EA2
:1002D00000E021E047E060E080E00E94150187E057
:1002E0008F93BB24B394BF92CF93DF938F9347E157
:1002F000E42E21E048E061E081E00E9415011F92B8
:100300001F93CF93DF931F928824839453E1E52EAC
:1003100001E021E041E062E082E00E9415011F92CD
:100320001F93CF93DF938EE08F9362E0862E7DE064
:10033000E72E02E021E041E063E083E00E94150146
:100340001F921F93CF93DF93BF9288248394E5E19C
:10035000EE2E01E021E042E064E084E00E9415011D
:100360001F921F93CF93DF93F2E0FF2EFF92AAE13B
:10037000EA2E21E043E065E085E00E9415011F922E
:100380001F93CF93DF931F93BDE1EB2E21E044E059
:1003900066E086E00E9415018DB79EB783960FB682
:1003A000F8949EBF0FBE8DBF1F921F93CF93DF9314
:1003B0008FE1982E9F929EE0E92E21E045E067E0D4
:1003C00087E00E9415011F921F93CF93DF9324E0D3
:1003D000522E5F923BE1E32E21E046E068E088E0A8
:1003E0000E9415011F921F93CF93DF9348E0642E64
:1003F0006F925FE0E52E21E049E069E089E00E942C
:1004000015011F921F93CF93DF9369E0762E7F92A1
:1004100079E1E72E21E04AE06AE08AE00E941501D6
:100420001F921F93CF93DF938AE08F93E8E1EE2E24
:1004300020E04BE06BE08BE00E9415011F921F93C0
:10044000CF93DF93CF93F1E1EF2E20E04CE06CE00F
:100450008CE00E9415016F92FF92CF93DF938CE0A6
:100460008F93A6E1EA2E21E04DE06DE08DE00E9441
:1004700015018DB79EB783960FB6F8949EBF0FBE39
:100480008DBF1F921F93CF93DF93DF92812CB4E037
:10049000EB2E00E021E04EE06EE08EE00E941501C0
:1004A0001F921F93CF93DF931F9203E0802E85E16D
:1004B000E82E02E021E040E16FE08FE00E941501AC
:1004C0001F921F93CF93DF938DE08F9388248394A3
:1004D00092E1E92E01E021E04FE060E180E10E943D
:1004E00015011F921F93CF93DF9325E0622E6F9229
:1004F0003CE1E32E20E04FEF61E181E10E94150134
:100500001F921F93CF93DF93CF9342E0842E5FE03F
:10051000E52E02E020E04FEF62E182E10E9415014A
:100520001F921F93CF93DF9382E18F9361E1E62EB9
:1005300020E04FEF63E183E10E9415017F92FF927B
:10054000CF93DF93FF92812CEE24E39400E021E02F
:100550004FEF64E184E10E9415018DB79EB7839649
:100560000FB6F8949EBF0FBE8DBF8BE08F93FF92A6
:10057000CF93DF937EE1772E7F92E2E08E2EF4E13F
:10058000EF2E02E021E04FEF65E185E10E941501C9
:100590001F921F93CF93DF931F93812CA7E0EA2E26
:1005A00000E021E04FEF66E186E10E9415011F9215
:1005B000FF92CF93DF9384E18F93B2E1EB2E21E0A2
:1005C0004FEF67E187E10E941501BF92FF92CF9341
:1005D000DF9385E18F9383E1E82E21E04FEF68E11F
:1005E00088E10E941501FF92FF92CF93DF9386E18D
:1005F0008F939AE0E92E21E04FEF69E189E10E94B3
:1006000015011F93FF92CF93DF9387E18F932FE024
:10061000E22E21E04FEF6AE18AE10E9415015F922C
:10062000FF92CF93DF9388E18F9339E0E32E21E0AF
:100630004FEF6BE18BE10E9415018DB79EB783965A
:100640000FB6F8949EBF0FBE8DBF1F921F93CF931E
:10065000DF9389E18F934EE0E42E21E04FEF6CE1D0
:100660008CE10E9415011F921F93CF93DF938AE1C3
:100670008F9350E1E52E21E04FEF6DE18DE10E9477
:1006800015011F921F93CF93DF938BE18F9368E047
:10069000E62E21E04FEF6EE18EE10E9415016F9290
:1006A000FF92CF93DF938CE18F937DE0E72E21E0E3
:1006B0004FEF6FE18FE10E9415011F921F93CF93BF
:1006C000DF938DE18F93ECE0EE2E21E04FEF60E2BF
:1006D00080E20E9415011F921F93CF93DF937F92B8
:1006E000FBE0EF2E21E04FEF61E281E20E94150175
:1006F0001F921F93CF93DF939F92A1E1EA2E21E0F7
:100700004FEF62E282E20E9415018DB79EB7839699
:100710000FB6F8949EBF0FBE8DBFDF92FF92CF93AE
:10072000DF931F92B5E0EB2E21E04FEF63E283E20F
:100730000E9415010F900F900F900F900F90DF9176
:10074000CF911F910F91FF90EF90DF90CF90BF90CE
:10075000AF909F908F907F906F905F900895FF92E1
:100760000F931F93CF93DF93F82EFB01C1819081EC
:10077000933009F45AC030F40C2F10E0913011F18D
:1007800090F50CC0953009F455C008F450C096306F
:1007900009F460C0973009F07BC06BC08CE2809395
:1007A000E21083E3809FE001819FD00D1124C45C9F
:1007B000DC4F89818F3F21F00E94080981E08A8304
:1007C00040E00FC083E3809FE001819FD00D1124A2
:1007D000C45CDC4F89818F3F19F00E944B091A825B
:1007E00041E062E057C083E3809FE001819FD00D2C
:1007F0001124C45CDC4F89818F3F19F00E944B09A2
:100800001A8285E08A95F1F783E3809FE001819F5A
:10081000D00D1124C45CDC4F89818F3F21F00E94F0
:10082000080981E08A8342E0DCCF43E0DACF40E090
:1008300060E030C083E3C89FE0011124C45CDC4F5A
:1008400089818F3F29F00E94080981E08A838B8388
:1008500045E0C7CF83E3C89FE0011124C45CDC4FAF
:1008600089818F3FF9F082818E8382818093C00ECF
:1008700019C083E3C89FE0011124C45CDC4F898167
:100880008F3F81F082818F8782818093BB0E0AC067
:1008900040E061E08F2DDF91CF911F910F91FF908C
:1008A0000C94C211DF91CF911F910F91FF90089589
:1008B000CF939091B00C9F3F09F4C2C080919A0CE5
:1008C000882309F4BDC08091B10C882321F081E018
:1008D0008093ED1002C01092ED108091ED108823EE
:1008E00019F09F3720F0A0C0983708F09DC09536CA
:1008F00008F495C0C09106032C2F2F5F20930603A8
:100900008823F1F18091C4109A3620F4829586955F
:1009100086950BC0292F2A568295869586958370D9
:100920002A3010F48F5F01C08E5F83708093E010D7
:10093000E92FF0E0E556F109EE0FFF1FEE0FFF1F64
:10094000E80FF11DEE0FFF1FE457FF4F6591749103
:100950006B50710980E090E00E94401328EB3EE16B
:1009600049E251E40E94D81260936F0A7093700AB2
:100970008093710A9093720AC95FC093060360C0A6
:100980009A3630F48091C41082958695869517C06A
:10099000892F8A568A3040F48091C41082958695BA
:1009A000869583708F5F0BC0892F8457833048F4FE
:1009B0008091C41082958695869583708E5F837032
:1009C00001C080E08093E010E7E7F0E0E91BF10967
:1009D000EE0FFF1FEE0FFF1FE81BF109EE0FFF1FC9
:1009E000E859FE4F6591749180E090E00E944013B9
:1009F00028EB3EE141E251E40E94D8129B01AC0198
:100A000060E070E088EC92E40E946F1260936F0ADD
:100A10007093700A8093710A9093720A11C080E0FB
:100A200090E0A0E8BFEB04C080E090E0A8EDB2E465
:100A300080936F0A9093700AA093710AB093720A20
:100A40008091B10C81508E3F28F4809106038F5F16
:100A500080930603CF91089580E090E3AFE1B6E480
:100A60008093B70C9093B80CA093B90CB093BA0CC8
:100A70008CE59FE8A4E9B1E48093890C90938A0CFB
:100A8000A0938B0CB0938C0C8DEC9CECA8E3B3E49E
:100A90008093250390932603A0932703B093280304
:100AA00086E696EEA5E2B4E48093D4109093D51038
:100AB000A093D610B093D71086E696EAA1E5B4E4E9
:100AC0008093F0109093F110A093F210B093F31074
:100AD00081EE9AEFACE9B2E48093AB0C9093AC0C4E
:100AE000A093AD0CB093AE0C86E696ECA7E0B4E410
:100AF0008093680A9093690AA0936A0AB0936B0A7C
:100B000080E090EBA7E1B5E48093A70C9093A80C4C
:100B1000A093A90CB093AA0C80E098E9AEEAB5E4E2
:100B20008093E5109093E610A093E710B093E8103F
:100B3000089580E096E1A9E8B6E480937D0A909359
:100B40007E0AA0937F0AB093800A88EB93EC90937F
:100B5000CD108093CC108AEE98EB9093DB108093AD
:100B6000DA108FE69CE990936D0A80936C0A85E910
:100B70009CE29093A00C80939F0C81E79AEA90935B
:100B80002303809322038AEC98E39093940C809340
:100B9000930C82E093E09093CF108093CE108DEA77
:100BA00097E09093D9108093D81080E895E19093C6
:100BB000880A8093870A8EE49CEF9093850A80933D
:100BC000840A8BE393E09093CB108093CA108CED52
:100BD0009BE6AEE2B0E48093730A9093740AA0930C
:100BE000750AB093760A80E895E5A2ECB1E18093AE
:100BF0009B0C90939C0CA0939D0CB0939E0C80EA50
:100C00009CE3A3E7BCE080932D0390932E03A09375
:100C10002F03B093300380EA96E6ACEFB9E18093FE
:100C2000320390933303A0933403B093350380E2EF
:100C300095EBA4EAB6EF8093960C9093970CA09353
:100C4000980CB093990C80E992ECADEBBBE08093EB
:100C50008E0C90938F0CA093900CB093910C88E81D
:100C60009BE7A5E8BBEF8093DC109093DD10A09389
:100C7000DE10B093DF108CED93ECA6E0BFEF809315
:100C80001E0390931F03A0932003B09321038AE6D1
:100C90009DEAA7EDBFEF8093C0109093C110A09381
:100CA000C210B093C3108CEB90EEA4E6BFEF80931C
:100CB000090390930A03A0930B03B0930C0382ECF7
:100CC00096ECAAEBBEE38093BC0E9093BD0EA0936E
:100CD000BE0EB093BF0E0895EF92FF920F931F9335
:100CE000CF93DF931FEF1ABB87E08BBB17BB80EE60
:100CF00088BB14BB15BB8BEF81BB80EF82BB8EEF33
:100D000082B913B810936100109262008FE1809352
:100D1000640004E00093650082E087BF87E481BF40
:100D20008FE083BF83E68093B90E87EC8093BA0E81
:100D300080E890E79BBD8ABD8DE08EBD84E88093FE
:100D4000E1108CE28093E2100E94070B10922A03BC
:100D50001092290310922C0310922B031092810AF7
:100D60001092820A8AE090E00E941E147C01E9EE53
:100D7000F0E18083F1828AE090E00E941E14CBEEC5
:100D8000D0E1888399834FEF50E062EC7EE0C701A9
:100D90000E942D0B4FEF50E061EC7FE0888199813C
:100DA0000E942D0B1092EE101092EF100E94440141
:100DB0007894C1E0C093880C109237030093950C8F
:100DC0001092A60C1092C00E1092BB0E1092920CB4
:100DD00010928D0C1092C910109231031092B20C27
:100DE0000E942C050E9499051093B00C1093C10E1F
:100DF0001093780A1092E410109236031092770A3A
:100E00001092830A10926F0A1092700A1092710A5F
:100E10001092720A1092F2121092A10C1092AF0C62
:100E200010926E0A1092ED1010929A0C1092D0103F
:100E30001092D1101092D2101092D3101092380349
:100E40001092390310923A0310923B03109224033C
:100E5000C0930D03A0911903C3E3CA9FD0011124CD
:100E6000A45CBC4F11968C910E944B09E0911A032F
:100E7000CE9FF0011124E45CFC4F81810E944B095C
:100E80001092A1061092D4061092070781E10E94E9
:100E9000D10882E10E94D10883E1DF91CF911F91B7
:100EA0000F91FF90EF900C94D10889E497E00E9495
:100EB0008E098093E410833010F08DED01C08CEC2E
:100EC0008093780A0895CF92DF92EF92FF920F936A
:100ED0001F93CF93DF93C0906F0AD090700AE09079
:100EE000710AF090720A20E030E0A901C701B60152
:100EF0000E94D41287FF4CC029E23CE54FE05FEB33
:100F0000C701B6010E94D41287FF0AC025E83BEE54
:100F100041E15FEBC701B6010E94F2131816C4F15C
:100F200081E08093920C0EE013E033E3F32EF8019E
:100F3000C1918F01FC9EE0011124C45CDC4F8981CA
:100F40000E944B091A82F3E00E311F0781F71092BD
:100F5000A1061092D4061092070781E10E94D108E1
:100F600082E10E94D10883E10E94D10880918D0C1A
:100F7000811108C080913103811104C040E062E01A
:100F80000E94C21181E08093310380938D0C28C0B0
:100F900020E030E048EC52E4C701B6010E94F213B1
:100FA0001816F4F48091ED108823D1F01092920C71
:100FB0008091D4050E94080981E08093D505809135
:100FC000C910811108C08091B20C811104C044E69F
:100FD00062E00E94C21181E08093B20C8093C9103C
:100FE000DF91CF911F910F91FF90EF90DF90CF9005
:100FF00008950E946C061092870C11E0C7ECDCE2A9
:101000008091870C912F981B9093870C8091BA0E3A
:10101000811107C0C093BA0E40E060E081E00E94F9
:10102000C2118091B90E811106C0C093B90E40E083
:1010300060E00E94C2118091EE108823C9F0809177
:10104000EE1081508093EE10E091E910F091EA10DB
:1010500061817281478180E00E94AF034FEF50E0D1
:1010600062EC7EE08091E9109091EA100E942D0BD5
:101070008091EF108823C9F08091EF108150809308
:10108000EF10E091EB10F091EC10618172814781DB
:1010900081E00E94AF034FEF50E061EC7FE0809170
:1010A000EB109091EC100E942D0B8091880C8130F8
:1010B00091F41092880C0E94C5090E9458048091F6
:1010C0006E0A811102C00E94630780913703873145
:1010D00011F40E94550780912403813009F090CFCC
:1010E00010922403D093E2108BCFA898E5E6F0E0AD
:1010F00080818D7F808308958130F9F020F08230E7
:1011000009F04EC034C064FF02C0DF9A01C0DF980E
:1011100063FF02C0DE9A01C0DE9862FF02C0DD9A62
:1011200001C0DD9861FF02C0DC9A01C0DC9860FF5D
:1011300002C0DB9A0895DB98089564FF02C0C09A4C
:1011400001C0C09863FF02C0C19A01C0C19862FF8C
:1011500002C0C29A01C0C29861FF02C0C39A01C016
:10116000C39860FF02C0C49A0895C498089564FFAC
:1011700002C01B9A01C01B9863FF02C01C9A01C0E9
:101180001C9862FF02C01D9A01C01D9861FF02C039
:101190001E9A01C01E9860FF02C01F9A08951F98F2
:1011A0000895823131F0833159F0813199F40C94F2
:1011B0007508809165008E7F8093650090980895F2
:1011C00080916500877F80936500809165008F7EA8
:1011D000809365000895823149F0833171F0813147
:1011E000B1F4A89A8091650082600FC0809165007B
:1011F000816080936500909A089580916500886071
:1012000080936500809165008061809365000895FA
:10121000883059F168F4843001F130F48230C9F03B
:10122000D0F48130B9F513C08630D9F0E0F417C09E
:101230008C3039F120F48A3001F108F518C08E3075
:1012400021F108F18F3019F1803121F522C0D89AAF
:101250000895D99A0895DA9A0895C59A0895C69A74
:101260000895C79A0895949A0895959A089580913B
:1012700065008460809365000895AF9A0895AE9AE2
:101280000895AD9A0895AC9A0895AB9A0895AA9AD4
:101290000895A99A0895883059F168F4843001F1CD
:1012A00030F48230C9F0D0F48130B9F513C0863003
:1012B000D9F0E0F417C08C3039F120F48A3001F114
:1012C00008F518C08E3021F108F18F3019F1803106
:1012D00021F522C0D8980895D9980895DA980895EC
:1012E000C5980895C6980895C79808959498089544
:1012F00095980895809165008B7F8093650008958F
:10130000AF980895AE980895AD980895AC98089553
:10131000AB980895AA980895A9980895FC01218191
:10132000808190E0820F911D2281820F911D63E0E8
:1013300070E00E94F613862F089593E3899FF001D1
:101340001124E45CFC4F8589882311F0158A0895E7
:10135000CF0141960C948E0993E3899FF0011124EB
:10136000E45CFC4F8485882311F014860895CF0136
:1013700008960C948E0990E697B997B19C7F97B91F
:1013800097B1982B97B9369A08951F93CF93DF930F
:101390008091950CC0913703823009F46AC020F423
:1013A000813009F01AC107C0833009F4DAC08430F3
:1013B00009F013C1FEC083E3C89FE0011124C45C9F
:1013C000DC4F2B8530E0C901019663E070E00E949C
:1013D0000A148B879881943189F48091A60C8093AC
:1013E000B00C8091E3108093C4108091A60C809380
:1013F000A10C8091E3108093AF0C06C0953121F4CD
:101400008091A60C8093C10E8091A60CFE01E20F84
:10141000F31F80872091A60C8E81821720F48B8188
:10142000813009F008C02091A60C8F812817D8F4CC
:101430008A818823C1F089818F3F19F00E944B096E
:101440000EC0923139F0933139F0913141F40E945C
:10145000750805C082E101C083E10E94D1081A82AB
:101460008091A60C8C8782E08093950C1D856E85FB
:10147000ABC093E3C99FE0011124C45CDC4F2C890D
:1014800030E0C901019663E070E00E940A148C8B81
:101490004881473139F48091A60C8093B10C81E0EA
:1014A00080939A0C8091A60CFE01E20FF31F818BB2
:1014B0008091070390910803892B99F488A98330C0
:1014C00019F491E09093860A90E02091A60CFE0119
:1014D000E80FF91F248F019663E070E00E940A1460
:1014E00088AB9091A60C8F858917D8F48B818130B9
:1014F000C1F089818F3F19F00E944B090EC0423123
:1015000039F0433139F0413141F40E94750805C08A
:1015100082E101C083E10E94D1081A828091A60C69
:101520008D8B1E89133029F083E08093950C6F8991
:101530004BC081E08093950C8091370390E0019639
:1015400064E270E00E940A148093370323E3289F2B
:10155000F001299FF00D1124E45CFC4F148165819A
:1015600033C0D0E043E34C9FF0014D9FF00D1124B8
:10157000E45CFC4F238D30E0C901019663E070E02C
:101580000E940A14838F8091A60CE20FF31F808FB4
:1015900081E08093950CCE01019664E270E00E9498
:1015A0000A1480933703489FF001499FF00D1124DE
:1015B0001DC081E08093950C93E3C99FE001112445
:1015C000C45CDC4F1C816D81812F0E947C0883E309
:1015D00093E70197F1F7812F15C081E08093950C77
:1015E000E091370393E3E99FF0011124E45CFC4FA1
:1015F000C48165818C2F0E947C0883E393E7019767
:10160000F1F78C2FDF91CF911F910C94BB0987E0EC
:101610008093990089B988E18AB9EAE9F0E080838A
:10162000808180648083808180688083569A579A05
:101630000895FB0120813181F901E827FF27EE0F92
:10164000FF1FEA5FFE4F232F33278081918182277E
:101650009327FB01918380830895FC01108272839C
:101660006183568345831086178214821382118604
:1016700008954F925F926F927F928F929F92AF9256
:10168000BF92CF92DF92EF92FF920F931F93CF936F
:10169000DF9300D01F92CDB7DEB76C015B017901FB
:1016A0001A821982009709F458C02115310509F4EE
:1016B00054C04C3018F0483309F051C044244394CE
:1016C000512C4C0E5D1EB201842F4B830E94190BCE
:1016D0003701600E711E470107C0B201F40181910C
:1016E0004F014B830E94190B4B8186149704A9F775
:1016F00089819A81F701E00FF11F908381830E5F4A
:101700001F4F80ECF60180834183D70142E050E017
:101710002DED3BED6CED0FC08D91803C19F43083C5
:10172000618304C080838B3D21F421834E5F5F4F32
:1017300002C04F5F5F4FCD018E199F09F601E40F84
:10174000F51F8017910740F380EC80834F5F5F4F58
:10175000F5015183408381E003C085E001C086E04C
:101760000F900F900F90DF91CF911F910F91FF90ED
:10177000EF90DF90CF90BF90AF909F908F907F9031
:101780006F905F904F900895CF92DF92EF92FF920B
:101790000F931F93CF93DF93EC0129813A81211599
:1017A000310509F484C08F8198854D815E81415057
:1017B00051098417950708F07CC04985423039F1FA
:1017C00018F4442331F038C0403131F04032A1F5F3
:1017D0000AC0603C91F50DC06C3018F0683309F018
:1017E0006AC0688326C0603C31F4892B11F081E027
:1017F00021C080E11FC06B3D11F482E01BC0F901E4
:10180000E80FF91F6083019698878F8316C06C3D9F
:1018100029F4F901E80FF91F40EC07C06D3D09F00C
:101820004CC0F901E80FF91F4BED408301969887F2
:101830008F8380E2898701C019868985813011F004
:1018400089853CC089819A814F815885840F951F75
:10185000FC013297308120E0FC01319780816901E1
:10186000C80ED11C4250510958874F837E0183E036
:10187000E80EF11CB70188810E94190B00E010E00E
:101880000AC0E981FA81E00FF11FB70180810E944F
:10189000190B0F5F1F4F8F8198850817190788F361
:1018A0008B819C818C159D0559F284E007C085E0F1
:1018B00005C083E003C086E001C087E0DF91CF91DF
:1018C0001F910F91FF90EF90DF90CF900895282FF8
:1018D00030E0F901EF57F54F6081D901AA0FBB1F26
:1018E000A75DBC4F4D915C9170E06417750710F5D2
:1018F00081110EC080819FEF929FD001939FB00D08
:101900001124A80FB11DA757B54F9C919CB910C0C9
:10191000813081F480819FEF929FD001939FB00D21
:101920001124A80FB11DA757B54F9C9190939C000F
:101930008F5F808308951F920F920FB60F9211242C
:101940008F938091B90E882329F08091B90E815030
:101950008093B90E8091BA0E882329F08091BA0E37
:1019600081508093BA0E8F910F900FBE0F901F90F1
:1019700018951F920F920FB60F9211240BB60F926B
:101980002F933F934F935F936F937F938F939F9387
:10199000AF93BF93CF93EF93FF93809162008095B5
:1019A000809362008091E110811131C080910D031C
:1019B000882369F184E88093E11080916E050E948C
:1019C0000809C1E0C0936F058091A1050E94080934
:1019D000C093A2058091A0060E940809C093A106A9
:1019E0008091D3060E940809C093D406809106070F
:1019F0000E940809C093070781E10E94EB0882E179
:101A00000E94EB0883E10E94EB0810920D03809185
:101A1000E210811107C080912403811103C081E08D
:101A20008093240385B391E0892785BB2FEF8FE74F
:101A300096E1215080409040E1F700C00000809185
:101A4000E11081508093E1108091E21081508093E9
:101A5000E210FF91EF91CF91BF91AF919F918F9144
:101A60007F916F915F914F913F912F910F900BBE9E
:101A70000F900FBE0F901F9018951F920F920FB6E8
:101A80000F9211240BB60F922F933F934F935F93B6
:101A90006F937F938F939F93AF93BF93EF93FF9336
:101AA00081E00E94670CFF91EF91BF91AF919F91F0
:101AB0008F917F916F915F914F913F912F910F90F7
:101AC0000BBE0F900FBE0F901F9018951F920F9294
:101AD0000FB60F9211240BB60F922F933F934F9393
:101AE0005F936F937F938F939F93AF93BF93EF9386
:101AF000FF9360919C008091EB109091EC100E94FC
:101B0000C40B813029F48091EF108F5F8093EF1028
:101B1000FF91EF91BF91AF919F918F917F916F91C5
:101B20005F914F913F912F910F900BBE0F900FBE81
:101B30000F901F9018951F920F920FB60F921124BD
:101B40005F936F937F938F939F93AF93BF9384B172
:101B50008093E31085B18093A60C81E08093880C7C
:101B60008091070390910803019668EE73E00E944C
:101B7000F6139093080380930703BF91AF919F9151
:101B80008F917F916F915F910F900FBE0F901F907B
:101B900018951F920F920FB60F9211240BB60F9249
:101BA0002F933F934F935F936F937F938F939F9365
:101BB000AF93BF93EF93FF9380E00E94670CFF9178
:101BC000EF91BF91AF919F918F917F916F915F91B5
:101BD0004F913F912F910F900BBE0F900FBE0F9022
:101BE0001F9018951F920F920FB60F9211240BB6EB
:101BF0000F922F933F934F935F936F937F938F93A6
:101C00009F93AF93BF93EF93FF936CB18091E910D3
:101C10009091EA100E94C40B813029F48091EE105B
:101C20008F5F8093EE10FF91EF91BF91AF919F91E5
:101C30008F917F916F915F914F913F912F910F9075
:101C40000BBE0F900FBE0F901F901895823010F4AE
:101C50000C94670C08952F923F924F925F926F926F
:101C60007F928F929F92AF92BF92CF92DF92EF922C
:101C7000FF920F931F93CF93DF93CDB7DEB72897D3
:101C80000FB6F894DEBF0FBECDBF98878F83DC01FF
:101C90001C9230913C05330F80916F05B4E08B9F0F
:101CA000C0011124382B80910905382B8091A205A1
:101CB000E8E08E9FC0011124382B80913B06F0E1B3
:101CC0008F9FC0011124382B80916E0620E2829FE5
:101CD000C0011124382B4091D406440F809107078E
:101CE00054E0859FC0011124482B8091A106482B08
:101CF000E5EDF5E08081A8E08A9FC0011124482B22
:101D000020917103220F8091A403B4E08B9FC00146
:101D10001124282B80913E03282B80910A0458E03F
:101D2000859FC0011124282B80913D04A0E18A9F4A
:101D3000C0011124282B80917004B0E28B9FC00158
:101D40001124282B8091A30450E4859FC001112405
:101D5000282B8091D604A0E88A9FC0011124282B4B
:101D6000AF81B88511962C93119712963C931297D8
:101D700013964C93139789E914968C93149780814A
:101D800015968C932CE3622E23E0722EF301808152
:101D90000E94AC09AF81B88516968C933FE6832EDE
:101DA00033E0932EF40180810E94AC09AF81B885A5
:101DB00017968C9342EAA42E43E0B42EF50180815D
:101DC0000E94AC09AF81B88518968C9355EDC52E4D
:101DD00053E0D52EF60180810E94AC09AF81B88511
:101DE00019968C9368E0E62E64E0F62EF701808168
:101DF0000E94AC09AF81B8851A968C930EE614E068
:101E0000F80180810E94AC09AF81B8851B968C9344
:101E1000E1EAF4E080810E94AC09AF81B8851C96AC
:101E20008C9374ED472E74E0572EF20180810E944E
:101E3000AC09AF81B8851D968C93E7E02E2EE5E0C6
:101E40003E2EF10180810E94AC09AF81B8851E96BB
:101E50008C932AE335E0F901808129833A830E943B
:101E6000AC09AF81B8851F968C934DE655E0FA0119
:101E700080814B835C830E94AC09AF81B88550960A
:101E80008C9360EA75E0FB0180816D837E830E9404
:101E9000AC09AF81B88551968C93E9E3F6E0808177
:101EA0000E94AC09AF81B88552968C93ECE6F6E0BF
:101EB00080810E94AC09AF81B88553968C93EFE97D
:101EC000F6E080810E94AC09AF81B88554968C936E
:101ED000E2EDF6E080810E94AC09AF81B8855596AD
:101EE0008C93E5E0F7E080810E94AC09AF81B88572
:101EF00056968C93E8E3F7E080810E94AC09AF81AD
:101F0000B88557968C93EBE6F7E080810E94AC0988
:101F1000AF81B88558968C93EEE9F7E080810E94F6
:101F2000AC09AF81B88559968C93E1EDF7E08081DB
:101F30000E94AC09AF81B8855A968C93E4E0F8E032
:101F400080810E94AC09AF81B8855B968C93E7E3F2
:101F5000F8E080810E94AC09AF81B8855C968C93D3
:101F6000EAE6F8E080810E94AC09AF81B8855D9611
:101F70008C93EDE9F8E080810E94AC09AF81B885CF
:101F80005E968C93E0EDF8E080810E94AC09AF8111
:101F9000B8855F968C93E3E0F9E080810E94AC09FC
:101FA000AF81B88590968C93E6E3F9E080810E943A
:101FB000AC09AF81B88591968C93E9E6F9E0808110
:101FC0000E94AC09AF81B88592968C93ECE9F9E058
:101FD00080810E94AC09AF81B88593968C93EFEC19
:101FE000F9E080810E94AC09AF81B88594968C930A
:101FF000E2E0FAE080810E94AC09AF81B885959655
:102000008C938091350A0E94AC09EF81F88586A3F4
:1020100017A210A611A612A613A6D3018C910E9496
:102020009D09EF81F88584A7D4018C910E949D09B8
:10203000EF81F88585A7D5018C910E949D09EF81DC
:10204000F88586A7D6018C910E949D09EF81F885BD
:1020500087A7D7018C910E949D09EF81F88580ABFD
:10206000D8018C910E949D09EF81F88581ABA1EA8E
:10207000B4E08C910E949D09EF81F88582ABD2017A
:102080008C910E949D09EF81F88583ABD1018C91E1
:102090000E949D09EF81F88584AB29813A81D9019D
:1020A0008C910E949D09EF81F88585AB4B815C8105
:1020B000DA018C910E949D09EF81F88586AB6D81D4
:1020C0007E81DB018C910E949D09EF81F88587ABB1
:1020D000A9E3B6E08C910E949D09EF81F88580AF5D
:1020E000ACE6B6E08C910E949D09EF81F88581AF46
:1020F000AFE9B6E08C910E949D09EF81F88582AF2F
:10210000A2EDB6E08C910E949D09EF81F88583AF26
:10211000A5E0B7E08C910E949D09EF81F88584AF1E
:10212000A8E3B7E08C910E949D09EF81F88585AF07
:10213000ABE6B7E08C910E949D09EF81F88586AFF0
:10214000AEE9B7E08C910E949D09EF81F88587AFD9
:10215000A1EDB7E08C910E949D09EF81F885E05CCC
:10216000FF4F8083E4E0F8E080810E949D09EF81C9
:10217000F885EF5BFF4F8083A7E3B8E08C910E9466
:102180009D09EF81F885EE5BFF4F8083EAE6F8E07A
:1021900080810E949D09EF81F885ED5BFF4F808370
:1021A000ADE9B8E08C910E949D09EF81F885EC5B68
:1021B000FF4F8083E0EDF8E080810E949D09EF8170
:1021C000F885EB5BFF4F8083A3E0B9E08C910E9420
:1021D0009D09EF81F885EA5BFF4F8083E6E3F9E034
:1021E00080810E949D09EF81F885E95BFF4F808324
:1021F000A9E6B9E08C910E949D09EF81F885E85B22
:10220000FF4F8083ECE9F9E080810E949D09EF8116
:10221000F885E75BFF4F8083AFECB9E08C910E94BB
:102220009D09EF81F885E65BFF4F8083E2E0FAE0ED
:1022300080810E949D09EF81F885E55BFF4F8083D7
:10224000EF81F885E45BFF4F8FEF8083EF81F885A6
:10225000E35BFF4F9091B00C9083EF81F885E25BD8
:10226000FF4F9091F2129083EF81F885E15BFF4F71
:102270001082EF81F885E05BFF4F1082EF81F885D7
:10228000EF5AFF4F1082EF81F885EE5AFF4F909181
:10229000770A9083EF81F885ED5AFF4F808383E8BA
:1022A00097E00E948E09EF81F885EC5AFF4F8083FA
:1022B00089EE97E00E948E09EF81F885EB5AFF4F77
:1022C00080838CE198E00E948E09EF81F885EA5ABC
:1022D000FF4F80838FE498E00E948E09EF81F8859C
:1022E000E95AFF4F808382E898E00E948E09EF81CF
:1022F000F885E85AFF4F808385EB98E00E948E09AD
:10230000EF81F885E75AFF4F808381E899E00E94CA
:102310008E09EF81F885E65AFF4F80838DE49AE0BD
:102320000E948E09EF81F885E55AFF4F80838091E6
:10233000C00E1092C00EEF81F885E45AFF4F8083E3
:102340008091BB0E1092BB0EEF81F885E35AFF4FD0
:10235000808328960FB6F894DEBF0FBECDBFDF9105
:10236000CF911F910F91FF90EF90DF90CF90BF9092
:10237000AF909F908F907F906F905F904F903F9025
:102380002F9008956F927F928F929F92BF92CF92DB
:10239000DF92EF92FF920F931F93CF93DF93B82EAC
:1023A0006130B9F020F0623009F08BC022C0C82F34
:1023B000D0E02FEF829FC00111248C509F4E0E94CD
:1023C0002B0EFE01EE0FFF1FE758F54F80E690E061
:1023D00021C0E82FF0E08FEFB89ED0011124AC505F
:1023E000BF4E6C93EE0FFF1FE758F54F81E090E072
:1023F00011C0E82FF0E02FEF829FD0011124AC50E4
:10240000BF4E6C9311964C93EE0FFF1FE758F54F9C
:1024100082E090E0918380838B2C912C8FEFB89E8B
:1024200070011124E701C554D34F6401CC0CDD1CAD
:10243000F601E758F54F0081118197012C503F4E6E
:10244000A5EC6A2EA0E17A2E6C0C7D1C41E0B30154
:10245000CE010E94390B8130A1F5F3018081918179
:10246000F601E75DFC4F9183808380819181970124
:102470002757354FAC01BE01C9010E945815F40120
:10248000EF57F54F1082F1E0BF1206C080919B001C
:102490008823B9F081E006C0B11013C08BB1882346
:1024A00081F080E0DF91CF911F910F91FF90EF902D
:1024B000DF90CF90BF909F908F907F906F900C9403
:1024C000260EDF91CF911F910F91FF90EF90DF903B
:1024D000CF90BF909F908F907F906F9008955058AD
:1024E000BB27AA270ED044C135D130F03AD120F015
:1024F00031F49F3F11F41EF42AC10EF4E095E7FB7E
:1025000020C1E92F46D180F3BA1762077307840709
:10251000950718F071F49EF55EC10EF4E0950B2E50
:10252000BA2FA02D0B01B90190010C01CA01A00125
:102530001124FF27591B99F0593F50F4503E68F180
:102540001A16F040A22F232F342F4427585FF3CFC1
:10255000469537952795A795F0405395C9F77EF492
:102560001F16BA0B620B730B840BBAF09150A1F0DB
:10257000FF0FBB1F661F771F881FC2F70EC0BA0F61
:10258000621F731F841F48F4879577956795B795E9
:10259000F7959E3F08F0B3CF9395880F08F09927E1
:1025A000EE0F979587950895A8D008F481E00895D7
:1025B0000CD0DEC0D6D040F0CDD030F021F45F3F5B
:1025C00019F0BFC0511108C1C2C0E3D098F39923DC
:1025D000C9F35523B1F3951B550BBB27AA276217E7
:1025E0007307840738F09F5F5F4F220F331F441F2C
:1025F000AA1FA9F333D00E2E3AF0E0E830D0915064
:102600005040E695001CCAF729D0FE2F27D0660F50
:10261000771F881FBB1F261737074807AB07B0E88F
:1026200009F0BB0B802DBF01FF2793585F4F2AF0A5
:102630009E3F510568F085C0CFC05F3FECF3983EE8
:10264000DCF3869577956795B795F7959F5FC9F702
:10265000880F911D9695879597F90895E1E0660F8B
:10266000771F881FBB1F621773078407BA0720F004
:10267000621B730B840BBA0BEE1F88F7E09508956D
:10268000E89409C097FB3EF490958095709561950C
:102690007F4F8F4F9F4F9923A9F0F92F96E9BB27C2
:1026A0009395F695879577956795B795F111F8CF3E
:1026B000FAF4BB0F11F460FF1BC06F5F7F4F8F4FA9
:1026C0009F4F16C0882311F096E911C0772321F09F
:1026D0009EE8872F762F05C0662371F096E8862F37
:1026E00070E060E02AF09A95660F771F881FDAF78E
:1026F000880F9695879597F90895990F0008550FBB
:10270000AA0BE0E8FEEF16161706E807F907C0F077
:1027100012161306E407F50798F0621B730B840B7F
:10272000950B39F40A2661F0232B242B252B21F459
:1027300008950A2609F4A140A6958FEF811D811DF9
:10274000089597F99F6780E870E060E008959FEF33
:1027500080EC089500240A94161617061806090638
:10276000089500240A941216130614060506089507
:10277000092E0394000C11F4882352F0BB0F40F48F
:10278000BF2B11F460FF04C06F5F7F4F8F4F9F4FCF
:10279000089557FD9058440F551F59F05F3F71F051
:1027A0004795880F97FB991F61F09F3F79F08795B8
:1027B0000895121613061406551FF2CF4695F1DF41
:1027C00008C0161617061806991FF1CF86957105D1
:1027D000610508940895E894BB2766277727CB0105
:1027E00097F908958ADF08F48FEF0895AA1BBB1BA1
:1027F00051E107C0AA1FBB1FA617B70710F0A61B01
:10280000B70B881F991F5A95A9F780959095BC0121
:10281000CD01089597FB072E16F4009407D077FD9D
:1028200009D00E94F61307FC05D03EF490958195DF
:102830009F4F0895709561957F4F08950F931F9353
:10284000CF93DF938230910510F482E090E0E09125
:10285000F512F091F61220E030E0C0E0D0E023C0A5
:102860004081518148175907A8F04817590761F46A
:1028700082819381209719F09B838A832EC0909345
:10288000F6128093F51229C02115310529F042175F
:10289000530710F0A90102C0BE01DF0102811381BC
:1028A000EF019A01F8013097D9F62115310509F1A8
:1028B000281B390B2430310590F412968D919C9190
:1028C00013976115710521F0FB019383828304C086
:1028D0009093F6128093F512FD01329644C0FD01EB
:1028E000E20FF31F81939193225031092D933C9372
:1028F0003AC02091F3123091F412232B41F420912D
:102900000201309103013093F4122093F3122091CD
:102910000001309101012115310541F42DB73EB779
:102920004091040150910501241B350BE091F312F5
:10293000F091F412E217F307A0F42E1B3F0B2817B7
:10294000390778F0AC014E5F5F4F2417350748F028
:102950004E0F5F1F5093F4124093F31281939193A3
:1029600002C0E0E0F0E0CF01DF91CF911F910F9125
:102970000895EF92FF920F931F93CF93DF930097E9
:1029800009F48FC0DC01129713961C921E921297C5
:10299000E090F512F090F612E114F10489F42D9113
:1029A0003C911197280F391F8091F3129091F412E6
:1029B0008217930789F5B093F412A093F31271C0B4
:1029C000E70120E030E001C0EA01CA17DB0738F474
:1029D0004A815B819E0141155105B1F722C0BC01BE
:1029E00062507109FB01D383C28300811181AC0164
:1029F000400F511F4C175D0761F448815981400F0A
:102A0000511F4E5F5F4F518340834A815B815383E7
:102A100042832115310529F4B093F612A093F512E3
:102A200040C0F901B383A283E90169917991C60F8E
:102A3000D71FAC17BD0779F4DC015E914E91460FAC
:102A4000571F4E5F5F4F5183408312968D919C912B
:102A5000139793838283A0E0B0E002C0D7017C018A
:102A6000F701828193810097C9F7C70102962081FF
:102A70003181820F931F2091F3123091F4122817A5
:102A8000390779F4109729F41092F6121092F51282
:102A900004C013961C921E921297F092F412E092C8
:102AA000F312DF91CF911F910F91FF90EF90089556
:102AB000FB01DC0102C001900D9241505040D8F75B
:062AC0000895F894FFCF19
:102AC6000000F71220000000891112239B322446D1
:102AD600AD573665BF74488CC19D5AAFD3BE6CCA1C
:102AE600E5DB7EE9F7F88110080193331A22A55633
:102AF6002C47B7753E64C99C408DDBBF52AEEDDAFC
:102B060064CBFFF976E802218B3010029913266711
:102B1600AF763444BD554AADC3BC588ED19F6EEBDB
:102B2600E7FA7CC8F5D983310A2091121803A777F2
:102B36002E66B5543C45CBBD42ACD99E508FEFFBBB
:102B460066EAFDD874C904428D5316619F7020044D
:102B5600A9153227BB364CCEC5DF5EEDD7FC68889B
:102B6600E1997AABF3BA85520C4397711E60A114B2
:102B76002805B3373A26CDDE44CFDFFD56ECE9987B
:102B86006089FBBB72AA06638F7214409D51222591
:102B9600AB343006B9174EEFC7FE5CCCD5DD6AA95B
:102BA600E3B8788AF19B87730E6295501C41A33572
:102BB6002A24B1163807CFFF46EEDDDC54CDEBB93B
:102BC60062A8F99A708B088481951AA793B62CC2CD
:102BD600A5D33EE1B7F04008C919522BDB3A644E43
:102BE600ED5F766DFF7C899400859BB712A6ADD20A
:102BF60024C3BFF136E0C1184809D33B5A2AE55E23
:102C06006C4FF77D7E6C0AA583B4188691972EE3E8
:102C1600A7F23CC0B5D14229CB38500AD91B666F02
:102C2600EF7E744CFD5D8BB502A499961087AFF3C9
:102C360026E2BDD034C1C3394A28D11A580BE77FE2
:102C46006E6EF55C7C4D0CC685D71EE597F4288024
:102C5600A1913AA3B3B2444ACD5B5669DF78600CC2
:102C6600E91D722FFB3E8DD604C79FF516E4A99089
:102C76002081BBB332A2C55A4C4BD7795E68E11CA2
:102C8600680DF33F7A2E0EE787F61CC495D52AA168
:102C9600A3B03882B193466BCF7A5448DD59622D82
:102CA600EB3C700EF91F8FF706E69DD414C5ABB149
:102CB60022A0B9923083C77B4E6AD5585C49E33D62
:062CC6006A2CF11E780FDC
:00000001FF
