:100000000C94F4000C9413010C9413010C94130140
:100010000C9413010C9413010C9413010C94130110
:100020000C9413010C9413010C9413010C94130100
:100030000C94900C0C9413010C9413010C94720CFE
:100040000C9413010C9413010C94AB0D0C9413013C
:100050000C94820D0C946D0D0C9413010C941301EF
:100060000C9413010C9413010C9413010C941301C0
:100070000C9413010C9413010C94380D0C9413017F
:100080000C940F0D0C9413010C941301080009003B
:1000900009000A000B000C000D000D000E000F00FF
:1000A00010001100120013001400150016001700B4
:1000B00019001A001B001D001E001F002100220055
:1000C00024002500270028002B002C002E003000E3
:1000D00032003400360038003B003E003F00420052
:1000E000450048004C00500059006B007F008A001A
:1000F0009C00A800B300C100CE00DD00EA00F900BA
:100100000D011F012B013F017E01A901B701E10192
:10011000FF01180228023D024D0262027D02900298
:10012000B802C502D602E902FA0208031603250343
:10013000320340034D0360036F037703830395038A
:100140009F03AA03B403C003C903D503DF03EB0372
:10015000F503000405041204190422042C043404D9
:100160003704400474047E0400000300030003000D
:100170000300030003000300030003000300030067
:100180000300030003000300030004000400040054
:10019000040018001800180018004000400040003B
:1001A00040006800680068006800990099009900A4
:1001B0009900CD00CD00CD00CD00FF00FF00FF0075
:1001C000FF00390139013901390197019701970180
:1001D00097012602A90240039103EF0318042A04A1
:1001E00034043E0445044D0411241FBECFEFD0E17A
:1001F000DEBFCDBF13E0A0E0B1E0E8E3FAE200E04B
:100200000BBF02C007900D92A630B107D9F72FE0BF
:10021000A6E0B3E001C01D92A03BB207E1F70E9447
:10022000E9070C941A150C9400008F92AF92CF92AC
:10023000EF920F93CF93DF93CDB7DEB79CE1899F09
:10024000F0011124EA5CFC4F608341832283138216
:100250000483E582C682A7821386148685868A85F2
:1002600086878B8587878C85808B148A158A8D85F8
:10027000868B8E85878B138EDF91CF910F91EF90B8
:10028000CF90AF908F9008955F926F927F928F92F0
:100290009F92AF92BF92CF92DF92EF92FF920F9315
:1002A0001F93CF93DF9380E687B98FE886B91F92BB
:1002B00013E01F93C0E1CF93D0EADF9386E0D82EFE
:1002C000DF92812C90E1A92E20EAC22E3BE0E32EA2
:1002D00000E021E047E060E080E00E94150187E057
:1002E0008F93BB24B394BF92CF93DF938F9347E157
:1002F000E42E21E048E061E081E00E9415011F92B8
:100300001F93CF93DF931F928824839453E1E52EAC
:1003100001E021E041E062E082E00E9415011F92CD
:100320001F93CF93DF938EE08F9362E0862E7DE064
:10033000E72E02E021E041E063E083E00E94150146
:100340001F921F93CF93DF93BF9288248394E5E19C
:10035000EE2E01E021E042E064E084E00E9415011D
:100360001F921F93CF93DF93F2E0FF2EFF92AAE13B
:10037000EA2E21E043E065E085E00E9415011F922E
:100380001F93CF93DF931F93BDE1EB2E21E044E059
:1003900066E086E00E9415018DB79EB783960FB682
:1003A000F8949EBF0FBE8DBF1F921F93CF93DF9314
:1003B0008FE1982E9F929EE0E92E21E045E067E0D4
:1003C00087E00E9415011F921F93CF93DF9324E0D3
:1003D000522E5F923BE1E32E21E046E068E088E0A8
:1003E0000E9415011F921F93CF93DF9348E0642E64
:1003F0006F925FE0E52E21E049E069E089E00E942C
:1004000015011F921F93CF93DF9369E0762E7F92A1
:1004100079E1E72E21E04AE06AE08AE00E941501D6
:100420001F921F93CF93DF938AE08F93E8E1EE2E24
:1004300020E04BE06BE08BE00E9415011F921F93C0
:10044000CF93DF93CF93F1E1EF2E20E04CE06CE00F
:100450008CE00E9415016F92FF92CF93DF938CE0A6
:100460008F93A6E1EA2E21E04DE06DE08DE00E9441
:1004700015018DB79EB783960FB6F8949EBF0FBE39
:100480008DBF1F921F93CF93DF93DF92812CB4E037
:10049000EB2E00E021E04EE06EE08EE00E941501C0
:1004A0001F921F93CF93DF931F9203E0802E85E16D
:1004B000E82E02E021E040E16FE08FE00E941501AC
:1004C0001F921F93CF93DF938DE08F9388248394A3
:1004D00092E1E92E01E021E04FE060E180E10E943D
:1004E00015011F921F93CF93DF9325E0622E6F9229
:1004F0003CE1E32E20E04FEF61E181E10E94150134
:100500001F921F93CF93DF93CF9342E0842E5FE03F
:10051000E52E02E020E04FEF62E182E10E9415014A
:100520001F921F93CF93DF9382E18F9361E1E62EB9
:1005300020E04FEF63E183E10E9415017F92FF927B
:10054000CF93DF93FF92812CEE24E39400E021E02F
:100550004FEF64E184E10E9415018DB79EB7839649
:100560000FB6F8949EBF0FBE8DBF8BE08F93FF92A6
:10057000CF93DF937EE1772E7F92E2E08E2EF4E13F
:10058000EF2E02E021E04FEF65E185E10E941501C9
:100590001F921F93CF93DF931F93812CA7E0EA2E26
:1005A00000E021E04FEF66E186E10E9415011F9215
:1005B000FF92CF93DF9384E18F93B2E1EB2E21E0A2
:1005C0004FEF67E187E10E941501BF92FF92CF9341
:1005D000DF9385E18F9383E1E82E21E04FEF68E11F
:1005E00088E10E941501FF92FF92CF93DF9386E18D
:1005F0008F939AE0E92E21E04FEF69E189E10E94B3
:1006000015011F93FF92CF93DF9387E18F932FE024
:10061000E22E21E04FEF6AE18AE10E9415015F922C
:10062000FF92CF93DF9388E18F9339E0E32E21E0AF
:100630004FEF6BE18BE10E9415018DB79EB783965A
:100640000FB6F8949EBF0FBE8DBF1F921F93CF931E
:10065000DF9389E18F934EE0E42E21E04FEF6CE1D0
:100660008CE10E9415011F921F93CF93DF938AE1C3
:100670008F9350E1E52E21E04FEF6DE18DE10E9477
:1006800015011F921F93CF93DF938BE18F9368E047
:10069000E62E21E04FEF6EE18EE10E9415016F9290
:1006A000FF92CF93DF938CE18F937DE0E72E21E0E3
:1006B0004FEF6FE18FE10E9415011F921F93CF93BF
:1006C000DF938DE18F93ECE0EE2E21E04FEF60E2BF
:1006D00080E20E9415011F921F93CF93DF937F92B8
:1006E000FBE0EF2E21E04FEF61E281E20E94150175
:1006F0001F921F93CF93DF939F92A1E1EA2E21E0F7
:100700004FEF62E282E20E9415018DB79EB7839699
:100710000FB6F8949EBF0FBE8DBFDF92FF92CF93AE
:10072000DF931F92B5E0EB2E21E04FEF63E283E20F
:100730000E9415010F900F900F900F900F90DF9176
:10074000CF911F910F91FF90EF90DF90CF90BF90CE
:10075000AF909F908F907F906F905F900895FF92E1
:100760000F931F93CF93DF93F82EFB01C1819081EC
:10077000933009F45AC030F40C2F10E0913011F18D
:1007800090F50CC0953009F455C008F450C096306F
:1007900009F460C0973009F07BC06BC08CE2809395
:1007A0009B0D8CE1809FE001819FD00D1124CA5CDC
:1007B000DC4F89818F3F21F00E94F80881E08A8315
:1007C00040E00FC08CE1809FE001819FD00D11249B
:1007D000CA5CDC4F89818F3F19F00E943B091A8265
:1007E00041E062E057C08CE1809FE001819FD00D25
:1007F0001124CA5CDC4F89818F3F19F00E943B09AC
:100800001A8285E08A95F1F78CE1809FE001819F53
:10081000D00D1124CA5CDC4F89818F3F21F00E94EA
:10082000F80881E08A8342E0DCCF43E0DACF40E0A1
:1008300060E030C08CE1C89FE0011124CA5CDC4F4D
:1008400089818F3F29F00E94F80881E08A838B8399
:1008500045E0C7CF8CE1C89FE0011124CA5CDC4FA2
:1008600089818F3FF9F082818E83828180937D0B15
:1008700019C08CE1C89FE0011124CA5CDC4F89815A
:100880008F3F81F082818F8782818093780B0AC0AD
:1008900040E061E08F2DDF91CF911F910F91FF908C
:1008A0000C947B11DF91CF911F910F91FF900895D0
:1008B000CF9390916D099F3F09F4C2C08091570971
:1008C000882309F4BDC080916E09882321F081E05E
:1008D0008093A60D02C01092A60D8091A60D8823CC
:1008E00019F09F3720F0A0C0983708F09DC09536CA
:1008F00008F495C0C09106032C2F2F5F20930603A8
:100900008823F1F18091810D9A3620F482958695A5
:1009100086950BC0292F2A568295869586958370D9
:100920002A3010F48F5F01C08E5F83708093990D21
:10093000E92FF0E0E556F109EE0FFF1FEE0FFF1F64
:10094000E80FF11DEE0FFF1FE457FF4F6591749103
:100950006B50710980E090E00E94F91228EB3EE1B3
:1009600049E251E40E94911260932D0770932E0783
:1009700080932F0790933007C95FC093060360C030
:100980009A3630F48091810D82958695869517C0B0
:10099000892F8A568A3040F48091810D8295869500
:1009A000869583708F5F0BC0892F8457833048F4FE
:1009B0008091810D82958695869583708E5F837078
:1009C00001C080E08093990DE7E7F0E0E91BF109B1
:1009D000EE0FFF1FEE0FFF1FE81BF109EE0FFF1FC9
:1009E000E859FE4F6591749180E090E00E94F91201
:1009F00028EB3EE141E251E40E9491129B01AC01DF
:100A000060E070E088EC92E40E94281260932D0769
:100A100070932E0780932F079093300711C080E0CA
:100A200090E0A0E8BFEB04C080E090E0A8EDB2E465
:100A300080932D0790932E07A0932F07B093300734
:100A400080916E0981508E3F28F4809106038F5F5C
:100A500080930603CF91089580E090E3AFE1B6E480
:100A60008093740990937509A0937609B0937709E0
:100A70008CE59FE8A4E9B1E4809346099093470987
:100A8000A0934809B09349098DEC9CECA8E3B3E42A
:100A90008093230390932403A0932503B09326030C
:100AA00086E696EEA5E2B4E480938D0D90938E0DCC
:100AB000A0938F0DB093900D86E696EAA1E5B4E47D
:100AC0008093A90D9093AA0DA093AB0DB093AC0D9C
:100AD00081EE9AEFACE9B2E48093680990936909DA
:100AE000A0936A09B0936B0986E696ECA7E0B4E49C
:100AF0008093260790932707A0932807B093290790
:100B000080E090EBA7E1B5E48093640990936509D8
:100B1000A0936609B093670980E098E9AEEAB5E46E
:100B200080939E0D90939F0DA093A00DB093A10D67
:100B3000089580E096E1A9E8B6E480933B0790939E
:100B40003C07A0933D07B0933E0788EB93EC90934E
:100B50008A0D8093890D8AEE98EB9093940D809383
:100B6000930D8FE69CE990932B0780932A0785E9E4
:100B70009CE290935D0980935C0981E79AEA9093E7
:100B80002103809320038AEC98E39093510980938A
:100B9000500982E093E090938C0D80938B0D8DEA49
:100BA00097E09093920D8093910D80E895E190935A
:100BB0004507809344078EE49CEF9093430780930E
:100BC00042078BE393E09093880D8093870D8CED23
:100BD0009BE6AEE2B0E48093310790933207A09396
:100BE0003307B093340780E895E5A2ECB1E1809338
:100BF000580990935909A0935A09B0935B0980EA68
:100C00009CE3A3E7BCE080932B0390932C03A09379
:100C10002D03B0932E0380EA96E6ACEFB9E1809302
:100C2000300390933103A0933203B093330380E2F7
:100C300095EBA4EAB6EF8093530990935409A093DF
:100C40005509B093560980E992ECADEBBBE0809377
:100C50004B0990934C09A0934D09B0934E0988E835
:100C60009BE7A5E8BBEF8093950D9093960DA0931D
:100C7000970DB093980D8CED93ECA6E0BFEF8093A9
:100C80001C0390931D03A0931E03B0931F038AE6D9
:100C90009DEAA7EDBFEF80937D0D90937E0DA0930D
:100CA0007F0DB093800D8CEB90EEA4E6BFEF8093A8
:100CB000070390930803A0930903B0930A0382ECFF
:100CC00096ECAAEBBEE38093790B90937A0BA093FA
:100CD0007B0BB0937C0B0895EF92FF920F931F93C1
:100CE000CF93DF931FEF1ABB87E08BBB17BB80EE60
:100CF00088BB14BB15BB8BEF81BB80EF82BB9EEF23
:100D000092B913B880936100109262008FE18093D2
:100D1000640004E00093650082E087BF87E481BF40
:100D20008FE083BF83E68093760B87EC8093770B0D
:100D300080E890E79BBD8ABD8DE08EBD84E88093FE
:100D40009A0D8CE280939B0D0E94DE0A109228037C
:100D50001092270310922A031092290310923F0742
:100D6000109240078AE090E00E94D7137C01E2EAEB
:100D7000FDE08083F1828AE090E00E94D713C4EA0C
:100D8000DDE0888399834FEF50E06FE77BE0C70198
:100D90000E94040B4FEF50E06EE77CE08881998160
:100DA0000E94040B1092A70D1092A80D0E944401FE
:100DB0007894C1E0C093450910923503009352091D
:100DC0001092630910927D0B1092780B10924F09CC
:100DD00010924A091092860D10922F0310926F09FB
:100DE0000E942C050E94990510936D0910937E0BAB
:100DF0001093360710929D0D109234031092350710
:100E00001092410710922D0710922E0710922F0773
:100E1000109230071092AB0F10925E0910926C097D
:100E200010922C071092A60D1092570910922203CF
:100E3000C0930B03A0911703CCE1CA9FD0011124EA
:100E4000AA5CBC4F11968C910E943B09E09118035B
:100E5000CE9FF0011124EA5CFC4F81810E943B0986
:100E6000109214051092300510924C0581E10E94F9
:100E7000C10882E10E94C10883E1DF91CF911F91F7
:100E80000F91FF90EF900C94C10887E795E00E94C6
:100E90007E0980939D0D833010F08DED01C08CECA8
:100EA000809336070895CF92DF92EF92FF920F93CF
:100EB0001F93CF93DF93C0902D07D0902E07E09023
:100EC0002F07F090300720E030E0A901C701B601FC
:100ED0000E948D1287FF4CC029E23CE54FE05FEB9A
:100EE000C701B6010E948D1287FF0AC025E83BEEBC
:100EF00041E15FEBC701B6010E94AB131816C4F1C4
:100F000081E080934F090CE013E03CE1F32EF801FF
:100F1000C1918F01FC9EE0011124CA5CDC4F8981E4
:100F20000E943B091A82F3E00C311F0781F71092EF
:100F300014051092300510924C0581E10E94C10801
:100F400082E10E94C10883E10E94C10880914A09A0
:100F5000811108C080912F03811104C040E062E03C
:100F60000E947B1181E080932F0380934A0928C05F
:100F700020E030E048EC52E4C701B6010E94AB1318
:100F80001816F4F48091A60D8823D1F010924F0921
:100F90008091A3040E94F80881E08093A4048091CA
:100FA000860D811108C080916F09811104C044E64B
:100FB00062E00E947B1181E080936F098093860D2F
:100FC000DF91CF911F910F91FF90EF90DF90CF9025
:100FD00008950E946C061092440911E0C7ECDCE20F
:100FE00080914409912F981B909344098091770B2D
:100FF000811107C0C093770B40E060E081E00E9460
:101000007B118091760B811106C0C093760B40E076
:1010100060E00E947B118091A70D8823C9F0809128
:10102000A70D81508093A70DE091A20DF091A30D23
:1010300061817281478180E00E94AF034FEF50E0F1
:101040006FE77BE08091A20D9091A30D0E94040BAD
:101050008091A80D8823C9F08091A80D81508093BC
:10106000A80DE091A40DF091A50D618172814781D9
:1010700081E00E94AF034FEF50E06EE77CE080918B
:10108000A40D9091A50D0E94040B8091450981301B
:1010900091F4109245090E94B5090E94580480916C
:1010A0002C07811102C00E945307809135038731BC
:1010B00011F40E94450780912203813009F090CFFE
:1010C00010922203D0939B0D8BCFA898E5E6F0E019
:1010D00080818D7F808308958130F9F020F0823007
:1010E00009F04EC034C064FF02C0DF9A01C0DF982F
:1010F00063FF02C0DE9A01C0DE9862FF02C0DD9A83
:1011000001C0DD9861FF02C0DC9A01C0DC9860FF7D
:1011100002C0DB9A0895DB98089564FF02C0C09A6C
:1011200001C0C09863FF02C0C19A01C0C19862FFAC
:1011300002C0C29A01C0C29861FF02C0C39A01C036
:10114000C39860FF02C0C49A0895C498089564FFCC
:1011500002C01B9A01C01B9863FF02C01C9A01C009
:101160001C9862FF02C01D9A01C01D9861FF02C059
:101170001E9A01C01E9860FF02C01F9A08951F9812
:101180000895823131F0833159F0813199F40C9412
:101190006508809165008E7F809365009098089522
:1011A00080916500877F80936500809165008F7EC8
:1011B000809365000895823149F0833171F0813167
:1011C000B1F4A89A8091650082600FC0809165009B
:1011D000816080936500909A089580916500886091
:1011E000809365008091650080618093650008951B
:1011F000883059F168F4843001F130F48230C9F05C
:10120000D0F48130B9F513C08630D9F0E0F417C0BE
:101210008C3039F120F48A3001F108F518C08E3095
:1012200021F108F18F3019F1803121F522C0D89ACF
:101230000895D99A0895DA9A0895C59A0895C69A94
:101240000895C79A0895949A0895959A089580915B
:1012500065008460809365000895AF9A0895AE9A02
:101260000895AD9A0895AC9A0895AB9A0895AA9AF4
:101270000895A99A0895883059F168F4843001F1ED
:1012800030F48230C9F0D0F48130B9F513C0863023
:10129000D9F0E0F417C08C3039F120F48A3001F134
:1012A00008F518C08E3021F108F18F3019F1803126
:1012B00021F522C0D8980895D9980895DA9808950C
:1012C000C5980895C6980895C79808959498089564
:1012D00095980895809165008B7F809365000895AF
:1012E000AF980895AE980895AD980895AC98089574
:1012F000AB980895AA980895A9980895FC012181B2
:10130000808190E0820F911D2281820F911D63E008
:1013100070E00E94AF13862F08959CE1899FF00131
:101320001124EA5CFC4F8589882311F0158A089501
:10133000CF0141960C947E099CE1899FF001112414
:10134000EA5CFC4F8485882311F014860895CF0150
:1013500008960C947E0990E697B997B19C7F97B94F
:1013600097B1982B97B9369A08951F93CF93DF932F
:1013700080915209C0913503823009F46AC020F48B
:10138000813009F001C107C0833009F4C1C0843045
:1013900009F0FAC0E5C08CE1C89FE0011124CA5CE5
:1013A000DC4F2B8530E0C901019663E070E00E94BC
:1013B000C3138B879881943189F48091630980935A
:1013C0006D0980919C0D8093810D809163098093BC
:1013D0005E0980919C0D80936C0906C0953121F4C3
:1013E0008091630980937E0B80916309FE01E20F77
:1013F000F31F8087209163098E81821720F48B81EF
:10140000813009F008C0209163098F812817D8F432
:101410008A818823C1F089818F3F19F00E943B099E
:101420000EC0923139F0933139F0913141F40E947C
:10143000650805C082E101C083E10E94C1081A82EB
:10144000809163098C8782E0809352091D856E85A7
:1014500092C09CE1C99FE0011124CA5CDC4F2C8939
:1014600030E0C901019663E070E00E94C3138C8BE9
:101470009881973139F48091630980936E0981E0F6
:101480008093570980916309FE01E20FF31F818B5E
:10149000209163098F858217D8F48B818130C1F048
:1014A00089818F3F19F00E943B090EC0923139F0BB
:1014B000933139F0913141F40E94650805C082E111
:1014C00001C083E10E94C1081A82809163098D8B5B
:1014D0001E89133029F083E0809352096F894BC035
:1014E00081E0809352098091350390E0019664E297
:1014F00070E00E94C313809335032CE1289FF00114
:10150000299FF00D1124EA5CFC4F1481658133C0E2
:10151000D0E04CE14C9FF0014D9FF00D1124EA5CAE
:10152000FC4F238D30E0C901019663E070E00E941A
:10153000C313838F80916309E20FF31F808F81E0D3
:1015400080935209CE01019664E270E00E94C313B9
:1015500080933503489FF001499FF00D11241DC071
:1015600081E0809352099CE1C99FE0011124CA5C8B
:10157000DC4F1C816D81812F0E946C0883E393E70F
:101580000197F1F7812F15C081E080935209E09116
:1015900035039CE1E99FF0011124EA5CFC4FC48112
:1015A00065818C2F0E946C0883E393E70197F1F724
:1015B0008C2FDF91CF911F910C94AB0987E0809322
:1015C000990089B988E18AB9EAE9F0E080838081ED
:1015D00080648083808180688083569A579A0895BA
:1015E000FB0120813181F901E827FF27EE0FFF1F62
:1015F000EA5FFE4F232F3327808191818227932733
:10160000FB01918380830895FC01108272836183C2
:10161000568345831086178214821382118608959B
:101620004F925F926F927F928F929F92AF92BF92F2
:10163000CF92DF92EF92FF920F931F93CF93DF939E
:1016400000D01F92CDB7DEB76C015B0179011A8221
:101650001982009709F458C02115310509F454C0C6
:101660004C3018F0483309F051C044244394512CB5
:101670004C0E5D1EB201842F4B830E94F00A37018D
:10168000600E711E470107C0B201F40181914F0144
:101690004B830E94F00A4B8186149704A9F7898135
:1016A0009A81F701E00FF11F908381830E5F1F4F36
:1016B00080ECF60180834183D70142E050E02DEDBC
:1016C0003BED6CED0FC08D91803C19F4308361834C
:1016D00004C080838B3D21F421834E5F5F4F02C0A5
:1016E0004F5F5F4FCD018E199F09F601E40FF51F83
:1016F0008017910740F380EC80834F5F5F4FF501C7
:101700005183408381E003C085E001C086E00F90F3
:101710000F900F90DF91CF911F910F91FF90EF905D
:10172000DF90CF90BF90AF909F908F907F906F9001
:101730005F904F900895CF92DF92EF92FF920F93B8
:101740001F93CF93DF93EC0129813A812115310555
:1017500009F484C08F8198854D815E814150510983
:101760008417950708F07CC04985423039F118F498
:10177000442331F038C0403131F04032A1F50AC085
:10178000603C91F50DC06C3018F0683309F06AC008
:10179000688326C0603C31F4892B11F081E021C0C0
:1017A00080E11FC06B3D11F482E01BC0F901E80F1E
:1017B000F91F6083019698878F8316C06C3D29F4CA
:1017C000F901E80FF91F40EC07C06D3D09F04CC06E
:1017D000F901E80FF91F4BED4083019698878F833D
:1017E00080E2898701C019868985813011F0898559
:1017F0003CC089819A814F815885840F951FFC01D7
:101800003297308120E0FC01319780816901C80E58
:10181000D11C4250510958874F837E0183E0E80E66
:10182000F11CB70188810E94F00A00E010E00AC0B4
:10183000E981FA81E00FF11FB70180810E94F00A6F
:101840000F5F1F4F8F8198850817190788F38B81C9
:101850009C818C159D0559F284E007C085E005C088
:1018600083E003C086E001C087E0DF91CF911F9144
:101870000F91FF90EF90DF90CF900895282F30E0E8
:10188000F901E15CF84F6081D901AA0FBB1FA95D86
:10189000BC4F4D915C9170E06417750710F5811194
:1018A0000EC080819FEF929FD001939FB00D1124B5
:1018B000A80FB11DAA5BB84F9C919CB910C0813094
:1018C00081F480819FEF929FD001939FB00D1124EE
:1018D000A80FB11DAA5BB84F9C9190939C008F5F9D
:1018E000808308951F920F920FB60F9211248F9349
:1018F0008091760B882329F08091760B815080931C
:10190000760B8091770B882329F08091770B81509B
:101910008093770B8F910F900FBE0F901F901895AB
:101920001F920F920FB60F9211240BB60F922F93A6
:101930003F934F935F936F937F938F939F93AF9357
:10194000BF93CF93EF93FF9380919A0D811131C094
:1019500080910B03882369F184E880939A0D80912C
:101960006B040E94F808C1E0C0936C048091870466
:101970000E94F808C0938804809113050E94F8081B
:10198000C093140580912F050E94F808C09330057C
:1019900080914B050E94F808C0934C0581E10E949C
:1019A000DB0882E10E94DB0883E10E94DB081092E1
:1019B0000B0380919B0D811107C08091220381113F
:1019C00003C081E08093220385B391E0892785BB22
:1019D0002FEF8FE796E1215080409040E1F700C063
:1019E000000080919A0D815080939A0D80919B0DFB
:1019F000815080939B0DFF91EF91CF91BF91AF915B
:101A00009F918F917F916F915F914F913F912F9116
:101A10000F900BBE0F900FBE0F901F9018951F9246
:101A20000F920FB60F9211240BB60F922F933F9384
:101A30004F935F936F937F938F939F93AF93BF93D6
:101A4000EF93FF9381E00E943E0CFF91EF91BF91D5
:101A5000AF919F918F917F916F915F914F913F9146
:101A60002F910F900BBE0F900FBE0F901F901895E7
:101A70001F920F920FB60F9211240BB60F922F9355
:101A80003F934F935F936F937F938F939F93AF9306
:101A9000BF93EF93FF9360919C008091A40D909170
:101AA000A50D0E949B0B813029F48091A80D8F5FBA
:101AB0008093A80DFF91EF91BF91AF919F918F916E
:101AC0007F916F915F914F913F912F910F900BBE3E
:101AD0000F900FBE0F901F9018951F920F920FB688
:101AE0000F9211248F9384B180939C0D85B18093C4
:101AF000630981E0809345098F910F900FBE0F908D
:101B00001F9018951F920F920FB60F9211240BB6CB
:101B10000F922F933F934F935F936F937F938F9386
:101B20009F93AF93BF93EF93FF9380E00E943E0C8F
:101B3000FF91EF91BF91AF919F918F917F916F91A5
:101B40005F914F913F912F910F900BBE0F900FBE61
:101B50000F901F9018951F920F920FB60F9211249D
:101B60000BB60F922F933F934F935F936F937F9397
:101B70008F939F93AF93BF93EF93FF936CB180913B
:101B8000A20D9091A30D0E949B0B813029F48091AE
:101B9000A70D8F5F8093A70DFF91EF91BF91AF913C
:101BA0009F918F917F916F915F914F913F912F9175
:101BB0000F900BBE0F900FBE0F901F9018958230A4
:101BC00010F40C943E0C08952F923F924F925F9226
:101BD0006F927F928F929F92AF92BF92CF92DF923D
:101BE000EF92FF920F931F93CF93DF93CDB7DEB7A2
:101BF00028970FB6F894DEBF0FBECDBF98878F83AE
:101C0000DC011C9230915004330F80916C04B4E0DD
:101C10008B9FC0011124382B80913404382B809184
:101C20008804E8E08E9FC0011124382B8091DC04E9
:101C3000F0E18F9FC0011124382B8091F80420E23D
:101C4000829FC0011124382B40913005440F8091B0
:101C50004C0554E0859FC0011124482B8091140548
:101C6000482BE4EAF4E08081A8E08A9FC0011124B7
:101C7000482B20915403220F80917003B4E08B9F76
:101C8000C0011124282B80913803282B8091A803B0
:101C900058E0859FC0011124282B8091C403A0E146
:101CA0008A9FC0011124282B8091E003B0E28B9F12
:101CB000C0011124282B8091FC0350E4859FC001B2
:101CC0001124282B80911804A0E88A9FC0011124B8
:101CD000282BAF81B88511962C93119712963C93BF
:101CE000129713964C93139789E914968C93149733
:101CF000808115968C9326E3622E23E0722EF301E9
:101D000080810E949C09AF81B88516968C9332E53C
:101D1000832E33E0932EF40180810E949C09AF81D1
:101D2000B88517968C934EE6A42E43E0B42EF501A9
:101D300080810E949C09AF81B88518968C935AE8DF
:101D4000C52E53E0D52EF60180810E949C09AF81FB
:101D5000B88519968C9366EAE62E63E0F62EF701B5
:101D600080810E949C09AF81B8851A968C930EEDF4
:101D700013E0F80180810E949C09AF81B8851B9611
:101D80008C93EAEFF3E080810E949C09AF81B885D3
:101D90001C968C9376E1472E74E0572EF2018081D9
:101DA0000E949C09AF81B8851D968C93E2E32E2E8C
:101DB000E4E03E2EF10180810E949C09AF81B8854C
:101DC0001E968C932EE434E0F901808129833A83B6
:101DD0000E949C09AF81B8851F968C934AE654E017
:101DE000FA0180814B835C830E949C09AF81B88596
:101DF00050968C9366E874E0FB0180816D837E834E
:101E00000E949C09AF81B88551968C93EAEDF4E06D
:101E100080810E949C09AF81B88552968C93E6EF31
:101E2000F4E080810E949C09AF81B88553968C9321
:101E3000E2E1F5E080810E949C09AF81B88554966B
:101E40008C93EEE2F5E080810E949C09AF81B88519
:101E500055968C93EAE4F5E080810E949C09AF815D
:101E6000B88556968C93E6E6F5E080810E949C0941
:101E7000AF81B88557968C93E2E8F5E080810E94A7
:101E80009C09AF81B88558968C93EEE9F5E0808186
:101E90000E949C09AF81B88559968C93EAEBF5E0D6
:101EA00080810E949C09AF81B8855A968C93E6ED9B
:101EB000F5E080810E949C09AF81B8855B968C9388
:101EC000E2EFF5E080810E949C09AF81B8855C96C5
:101ED0008C93EEE0F6E080810E949C09AF81B8858A
:101EE0005D968C93EAE2F6E080810E949C09AF81C6
:101EF000B8855E968C93E6E4F6E080810E949C09AA
:101F0000AF81B8855F968C93E2E6F6E080810E940F
:101F10009C09AF81B88590968C93EEE7F6E08081BE
:101F20000E949C09AF81B88591968C93EAE9F6E00E
:101F300080810E949C09AF81B88592968C93E6EBD4
:101F4000F6E080810E949C09AF81B88593968C93BE
:101F5000E2EDF6E080810E949C09AF81B8859496FD
:101F60008C93EEEEF6E080810E949C09AF81B885EB
:101F700095968C9380910A070E949C09EF81F885C1
:101F800086A317A210A611A612A613A6D3018C91A0
:101F90000E948D09EF81F88584A7D4018C910E945D
:101FA0008D09EF81F88585A7D5018C910E948D0957
:101FB000EF81F88586A7D6018C910E948D09EF816B
:101FC000F88587A7D7018C910E948D09EF81F8854C
:101FD00080ABD8018C910E948D09EF81F88581AB8F
:101FE000AAEFB3E08C910E948D09EF81F88582AB56
:101FF000D2018C910E948D09EF81F88583ABD101CC
:102000008C910E948D09EF81F88584AB29813A81FA
:10201000D9018C910E948D09EF81F88585AB4B81A8
:102020005C81DA018C910E948D09EF81F88586AB85
:102030006D817E81DB018C910E948D09EF81F88595
:1020400087ABAAEDB4E08C910E948D09EF81F885F1
:1020500080AFA6EFB4E08C910E948D09EF81F885E6
:1020600081AFA2E1B5E08C910E948D09EF81F885E6
:1020700082AFAEE2B5E08C910E948D09EF81F885C8
:1020800083AFAAE4B5E08C910E948D09EF81F885B9
:1020900084AFA6E6B5E08C910E948D09EF81F885AA
:1020A00085AFA2E8B5E08C910E948D09EF81F8859B
:1020B00086AFAEE9B5E08C910E948D09EF81F8857D
:1020C00087AFAAEBB5E08C910E948D09EF81F8856E
:1020D000E05CFF4F8083E6EDF5E080810E948D0992
:1020E000EF81F885EF5BFF4F8083A2EFB5E08C9125
:1020F0000E948D09EF81F885EE5BFF4F8083EEE053
:10210000F6E080810E948D09EF81F885ED5BFF4F3D
:102110008083AAE2B6E08C910E948D09EF81F88558
:10212000EC5BFF4F8083E6E4F6E080810E948D093E
:10213000EF81F885EB5BFF4F8083A2E6B6E08C91E0
:102140000E948D09EF81F885EA5BFF4F8083EEE7FF
:10215000F6E080810E948D09EF81F885E95BFF4FF1
:102160008083AAE9B6E08C910E948D09EF81F88501
:10217000E85BFF4F8083E6EBF6E080810E948D09EB
:10218000EF81F885E75BFF4F8083A2EDB6E08C918D
:102190000E948D09EF81F885E65BFF4F8083EEEEAC
:1021A000F6E080810E948D09EF81F885E55BFF4FA5
:1021B0008083EF81F885E45BFF4F8FEF8083EF81B1
:1021C000F885E35BFF4F90916D099083EF81F8856F
:1021D000E25BFF4F9091AB0F9083EF81F885E15B5D
:1021E000FF4F1082EF81F885E05BFF4F1082EF8197
:1021F000F885EF5AFF4F1082EF81F885EE5AFF4FB6
:10220000909135079083EF81F885ED5AFF4F8083D9
:102210008AE995E00E947E09EF81F885EC5AFF4F2C
:10222000808382ED95E00E947E09EF81F885EB5A6C
:10223000FF4F80838EEE95E00E947E09EF81F88546
:10224000EA5AFF4F80838AE096E00E947E09EF8180
:10225000F885E95AFF4F808386E296E00E947E0966
:10226000EF81F885E85AFF4F808382E496E00E9470
:102270007E09EF81F885E75AFF4F808382EB96E075
:102280000E947E09EF81F885E65AFF4F808382E243
:1022900097E00E947E09EF81F885E55AFF4F808321
:1022A00080917D0B10927D0BEF81F885E45AFF4FF2
:1022B00080838091780B1092780BEF81F885E35A38
:1022C000FF4F808328960FB6F894DEBF0FBECDBFB8
:1022D000DF91CF911F910F91FF90EF90DF90CF9002
:1022E000BF90AF909F908F907F906F905F904F9036
:1022F0003F902F9008956F927F928F929F92BF92FE
:10230000CF92DF92EF92FF920F931F93CF93DF93C1
:10231000B82E6130B9F020F0623009F08BC022C0D5
:10232000C82FD0E02FEF829FC00111248355924F18
:102330000E94E40DFE01EE0FFF1FE95CF84F80E6FE
:1023400090E021C0E82FF0E08FEFB89ED00111247B
:10235000A355B24F6C93EE0FFF1FE95CF84F81E07D
:1023600090E011C0E82FF0E02FEF829FD001112400
:10237000A355B24F6C9311964C93EE0FFF1FE95C7F
:10238000F84F82E090E0918380838B2C912C8FEF2B
:10239000B89E70011124E701C858D64F6401CC0CD7
:1023A000DD1CF601E95CF84F00811181970123558E
:1023B000324FA2E86A2EADE07A2E6C0C7D1C41E013
:1023C000B301CE010E94100B8130A1F5F301808191
:1023D0009181F601E95DFC4F918380838081918139
:1023E00097012A5B384FAC01BE01C9010E9411154B
:1023F000F401E15CF84F1082F1E0BF1206C0809159
:102400009B008823B9F081E006C0B11013C08BB1E6
:10241000882381F080E0DF91CF911F910F91FF9091
:10242000EF90DF90CF90BF909F908F907F906F90B4
:102430000C94DF0DDF91CF911F910F91FF90EF90E2
:10244000DF90CF90BF909F908F907F906F90089576
:102450005058BB27AA270ED044C135D130F03AD10D
:1024600020F031F49F3F11F41EF42AC10EF4E095E0
:10247000E7FB20C1E92F46D180F3BA176207730743
:102480008407950718F071F49EF55EC10EF4E0958F
:102490000B2EBA2FA02D0B01B90190010C01CA011E
:1024A000A0011124FF27591B99F0593F50F4503EC9
:1024B00068F11A16F040A22F232F342F4427585FBB
:1024C000F3CF469537952795A795F0405395C9F7D3
:1024D0007EF41F16BA0B620B730B840BBAF091508B
:1024E000A1F0FF0FBB1F661F771F881FC2F70EC02A
:1024F000BA0F621F731F841F48F4879577956795FD
:10250000B795F7959E3F08F0B3CF9395880F08F0E5
:102510009927EE0F979587950895A8D008F481E044
:1025200008950CD0DEC0D6D040F0CDD030F021F4EC
:102530005F3F19F0BFC0511108C1C2C0E3D098F38A
:102540009923C9F35523B1F3951B550BBB27AA2734
:1025500062177307840738F09F5F5F4F220F331FA6
:10256000441FAA1FA9F333D00E2E3AF0E0E830D072
:1025700091505040E695001CCAF729D0FE2F27D075
:10258000660F771F881FBB1F261737074807AB0743
:10259000B0E809F0BB0B802DBF01FF2793585F4FB8
:1025A0002AF09E3F510568F085C0CFC05F3FECF335
:1025B000983EDCF3869577956795B795F7959F5F7D
:1025C000C9F7880F911D9695879597F90895E1E0D1
:1025D000660F771F881FBB1F621773078407BA0730
:1025E00020F0621B730B840BBA0BEE1F88F7E0958B
:1025F0000895E89409C097FB3EF4909580957095F6
:1026000061957F4F8F4F9F4F9923A9F0F92F96E93E
:10261000BB279395F695879577956795B795F111B3
:10262000F8CFFAF4BB0F11F460FF1BC06F5F7F4F50
:102630008F4F9F4F16C0882311F096E911C0772362
:1026400021F09EE8872F762F05C0662371F096E86B
:10265000862F70E060E02AF09A95660F771F881F3A
:10266000DAF7880F9695879597F90895990F0008DE
:10267000550FAA0BE0E8FEEF16161706E807F90754
:10268000C0F012161306E407F50798F0621B730BEF
:10269000840B950B39F40A2661F0232B242B252B70
:1026A00021F408950A2609F4A140A6958FEF811D13
:1026B000811D089597F99F6780E870E060E00895B4
:1026C0009FEF80EC089500240A941616170618064A
:1026D0000906089500240A94121613061406050626
:1026E0000895092E0394000C11F4882352F0BB0FB7
:1026F00040F4BF2B11F460FF04C06F5F7F4F8F4F1A
:102700009F4F089557FD9058440F551F59F05F3F54
:1027100071F04795880F97FB991F61F09F3F79F003
:1027200087950895121613061406551FF2CF469585
:10273000F1DF08C0161617061806991FF1CF869507
:102740007105610508940895E894BB2766277727EB
:10275000CB0197F908958ADF08F48FEF0895AA1B3B
:10276000BB1B51E107C0AA1FBB1FA617B70710F07C
:10277000A61BB70B881F991F5A95A9F780959095AE
:10278000BC01CD01089597FB072E16F4009407D0E5
:1027900077FD09D00E94AF1307FC05D03EF4909559
:1027A00081959F4F0895709561957F4F08950F9380
:1027B0001F93CF93DF938230910510F482E090E075
:1027C000E091AE0FF091AF0F20E030E0C0E0D0E03C
:1027D00023C04081518148175907A8F0481759076D
:1027E00061F482819381209719F09B838A832EC0A4
:1027F0009093AF0F8093AE0F29C02115310529F0BA
:102800004217530710F0A90102C0BE01DF01028187
:102810001381EF019A01F8013097D9F6211531059E
:1028200009F1281B390B2430310590F412968D9153
:102830009C9113976115710521F0FB0193838283AD
:1028400004C09093AF0F8093AE0FFD01329644C049
:10285000FD01E20FF31F81939193225031092D93D3
:102860003C933AC02091AC0F3091AD0F232B41F433
:1028700020910201309103013093AD0F2093AC0FF2
:1028800020910001309101012115310541F42DB74E
:102890003EB74091040150910501241B350BE09196
:1028A000AC0FF091AD0FE217F307A0F42E1B3F0B16
:1028B0002817390778F0AC014E5F5F4F24173507B2
:1028C00048F04E0F5F1F5093AD0F4093AC0F8193B4
:1028D000919302C0E0E0F0E0CF01DF91CF911F9132
:1028E0000F910895EF92FF920F931F93CF93DF9371
:1028F000009709F48FC0DC01129713961C921E9268
:102900001297E090AE0FF090AF0FE114F10489F44C
:102910002D913C911197280F391F8091AC0F909108
:10292000AD0F8217930789F5B093AD0FA093AC0F4D
:1029300071C0E70120E030E001C0EA01CA17DB07FF
:1029400038F44A815B819E0141155105B1F722C0DF
:10295000BC0162507109FB01D383C28300811181E4
:10296000AC01400F511F4C175D0761F4488159813C
:10297000400F511F4E5F5F4F518340834A815B81FF
:10298000538342832115310529F4B093AF0FA093EF
:10299000AE0F40C0F901B383A283E9016991799137
:1029A000C60FD71FAC17BD0779F4DC015E914E91BD
:1029B000460F571F4E5F5F4F5183408312968D9194
:1029C0009C91139793838283A0E0B0E002C0D7016B
:1029D0007C01F701828193810097C9F7C7010296B4
:1029E00020813181820F931F2091AC0F3091AD0F68
:1029F0002817390779F4109729F41092AF0F109225
:102A0000AE0F04C013961C921E921297F092AD0F57
:102A1000E092AC0FDF91CF911F910F91FF90EF905B
:102A20000895FB01DC0102C001900D92415050401D
:082A3000D8F70895F894FFCFD8
:102A38000000B00F20000000891112239B322446A9
:102A4800AD573665BF74488CC19D5AAFD3BE6CCAAA
:102A5800E5DB7EE9F7F88110080193331A22A556C1
:102A68002C47B7753E64C99C408DDBBF52AEEDDA8A
:102A780064CBFFF976E802218B30100299132667A0
:102A8800AF763444BD554AADC3BC588ED19F6EEB6A
:102A9800E7FA7CC8F5D983310A2091121803A77781
:102AA8002E66B5543C45CBBD42ACD99E508FEFFB4A
:102AB80066EAFDD874C904428D5316619F702004DC
:102AC800A9153227BB364CCEC5DF5EEDD7FC68882A
:102AD800E1997AABF3BA85520C4397711E60A11441
:102AE8002805B3373A26CDDE44CFDFFD56ECE9980A
:102AF8006089FBBB72AA06638F7214409D51222520
:102B0800AB343006B9174EEFC7FE5CCCD5DD6AA9E9
:102B1800E3B8788AF19B87730E6295501C41A33500
:102B28002A24B1163807CFFF46EEDDDC54CDEBB9C9
:102B380062A8F99A708B088481951AA793B62CC25B
:102B4800A5D33EE1B7F04008C919522BDB3A644ED1
:102B5800ED5F766DFF7C899400859BB712A6ADD298
:102B680024C3BFF136E0C1184809D33B5A2AE55EB1
:102B78006C4FF77D7E6C0AA583B4188691972EE377
:102B8800A7F23CC0B5D14229CB38500AD91B666F91
:102B9800EF7E744CFD5D8BB502A499961087AFF358
:102BA80026E2BDD034C1C3394A28D11A580BE77F71
:102BB8006E6EF55C7C4D0CC685D71EE597F42880B3
:102BC800A1913AA3B3B2444ACD5B5669DF78600C51
:102BD800E91D722FFB3E8DD604C79FF516E4A99018
:102BE8002081BBB332A2C55A4C4BD7795E68E11C31
:102BF800680DF33F7A2E0EE787F61CC495D52AA1F7
:102C0800A3B03882B193466BCF7A5448DD59622D10
:102C1800EB3C700EF91F8FF706E69DD414C5ABB1D7
:102C280022A0B9923083C77B4E6AD5585C49E33DF0
:062C38006A2CF11E780F6A
:00000001FF
