S00E000076696F6C65742E7372656383
S11300000C94F4000C9413010C9413010C9413013C
S11300100C9413010C9413010C9413010C9413010C
S11300200C9413010C9413010C9413010C941301FC
S11300300C94320D0C9413010C9413010C94140DB4
S11300400C9413010C9413010C946B0E0C94130177
S11300500C94420E0C94140E0C9413010C94130182
S11300600C9413010C9413010C9413010C941301BC
S11300700C9413010C9413010C94DF0D0C941301D4
S11300800C94B60D0C9413010C9413010800090090
S113009009000A000B000C000D000D000E000F00FB
S11300A010001100120013001400150016001700B0
S11300B019001A001B001D001E001F002100220051
S11300C024002500270028002B002C002E003000DF
S11300D032003400360038003B003E003F0042004E
S11300E0450048004C00500059006B007F008A0016
S11300F09C00A800B300C100CE00DD00EA00F900B6
S11301000D011F012B013F017E01A901B701E1018E
S1130110FF01180228023D024D0262027D02900294
S1130120B802C502D602E902FA020803160325033F
S1130130320340034D0360036F0377038303950386
S11301409F03AA03B403C003C903D503DF03EB036E
S1130150F503000405041204190422042C043404D5
S11301603704400474047E04000003000300030009
S11301700300030003000300030003000300030063
S11301800300030003000300030004000400040050
S11301900400180018001800180040004000400037
S11301A040006800680068006800990099009900A0
S11301B09900CD00CD00CD00CD00FF00FF00FF0071
S11301C0FF0039013901390139019701970197017C
S11301D097012602A90240039103EF0318042A049D
S11301E034043E0445044D0411241FBECFEFD0E176
S11301F0DEBFCDBF13E0A0E0B1E0EEE7FCE200E03B
S11302000BBF02C007900D92A630B107D9F720E1C9
S1130210A6E0B3E001C01D92A43DB207E1F70E943D
S113022070080C943D160C9400008F92AF92CF92FC
S1130230EF920F93CF93DF93CDB7DEB794E2899F0C
S1130240F0011124E45CFC4F608341832283138218
S11302500483E582C682A7821386148685868A85EE
S113026086878B8587878C85808B148A158A8D85F4
S1130270868B8E85878B138E11A2DF91CF910F9180
S1130280EF90CF90AF908F9008955F926F927F928E
S11302908F929F92AF92BF92CF92DF92EF92FF9292
S11302A00F931F93CF93DF9380E687B98FE886B9C6
S11302B01F9213E01F93C0E1CF93D0EADF9386E04F
S11302C0D82EDF92812C90E1A92E20EAC22E3BE0A9
S11302D0E32E00E021E047E060E080E00E941501A9
S11302E087E08F93BB24B394BF92CF93DF938F9314
S11302F047E1E42E21E048E061E081E00E9415013D
S11303001F921F93CF93DF931F928824839453E10A
S1130310E52E01E021E041E062E082E00E94150167
S11303201F921F93CF93DF938EE08F9362E0862E0C
S11303307DE0E72E02E021E041E063E083E00E94FB
S113034015011F921F93CF93DF93BF928824839448
S1130350E5E1EE2E01E021E042E064E084E00E9469
S113036015011F921F93CF93DF93F2E0FF2EFF92AC
S1130370AAE1EA2E21E043E065E085E00E94150150
S11303801F921F93CF93DF931F93BDE1EB2E21E0C8
S113039044E066E086E00E9415018DB79EB783961F
S11303A00FB6F8949EBF0FBE8DBF1F921F93CF93BD
S11303B0DF938FE1982E9F929EE0E92E21E045E0A5
S11303C067E087E00E9415011F921F93CF93DF938C
S11303D024E0522E5F923BE1E32E21E046E068E008
S11303E088E00E9415011F921F93CF93DF9348E08A
S11303F0642E6F925FE0E52E21E049E069E089E038
S11304000E9415011F921F93CF93DF9369E0762E0C
S11304107F9279E1E72E21E04AE06AE08AE00E94D7
S113042015011F921F93CF93DF938AE08F93E8E126
S1130430EE2E20E04BE06BE08BE00E9415011F9252
S11304401F93CF93DF93CF93F1E1EF2E20E04CE0A5
S11304506CE08CE00E9415016F92FF92CF93DF93C2
S11304608CE08F93A6E1EA2E21E04DE06DE08DE073
S11304700E9415018DB79EB783960FB6F8949EBF60
S11304800FBE8DBF1F921F93CF93DF93DF92812CFA
S1130490B4E0EB2E00E021E04EE06EE08EE00E943E
S11304A015011F921F93CF93DF931F9203E0802EB9
S11304B085E1E82E02E021E040E16FE08FE00E9458
S11304C015011F921F93CF93DF938DE08F938824A0
S11304D0839492E1E92E01E021E04FE060E180E1C4
S11304E00E9415011F921F93CF93DF9325E0622E84
S11304F06F923CE1E32E20E04FEF61E181E10E9445
S113050015011F921F93CF93DF93CF9342E0842E64
S11305105FE0E52E02E020E04FEF62E182E10E941D
S113052015011F921F93CF93DF9382E18F9361E1B3
S1130530E62E20E04FEF63E183E10E9415017F92F4
S1130540FF92CF93DF93FF92812CEE24E39400E09B
S113055021E04FEF64E184E10E9415018DB79EB75D
S113056083960FB6F8949EBF0FBE8DBF8BE08F931A
S1130570FF92CF93DF937EE1772E7F92E2E08E2E7F
S1130580F4E1EF2E02E021E04FEF65E185E10E9406
S113059015011F921F93CF93DF931F93812CA7E024
S11305A0EA2E00E021E04FEF66E186E10E941501AA
S11305B01F92FF92CF93DF9384E18F93B2E1EB2EEE
S11305C021E04FEF67E187E10E941501BF92FF929E
S11305D0CF93DF9385E18F9383E1E82E21E04FEF02
S11305E068E188E10E941501FF92FF92CF93DF93A7
S11305F086E18F939AE0E92E21E04FEF69E189E1EA
S11306000E9415011F93FF92CF93DF9387E18F938D
S11306102FE0E22E21E04FEF6AE18AE10E9415010A
S11306205F92FF92CF93DF9388E18F9339E0E32EBB
S113063021E04FEF6BE18BE10E9415018DB79EB76E
S113064083960FB6F8949EBF0FBE8DBF1F921F9363
S1130650CF93DF9389E18F934EE0E42E21E04FEFB7
S11306606CE18CE10E9415011F921F93CF93DF93DD
S11306708AE18F9350E1E52E21E04FEF6DE18DE1AA
S11306800E9415011F921F93CF93DF938BE18F93E9
S113069068E0E62E21E04FEF6EE18EE10E94150145
S11306A06F92FF92CF93DF938CE18F937DE0E72EDF
S11306B021E04FEF6FE18FE10E9415011F921F931C
S11306C0CF93DF938DE18F93ECE0EE2E21E04FEF9B
S11306D060E280E20E9415011F921F93CF93DF9383
S11306E07F92FBE0EF2E21E04FEF61E281E20E9476
S11306F015011F921F93CF93DF939F92A1E1EA2EDE
S113070021E04FEF62E282E20E9415018DB79EB7AD
S113071083960FB6F8949EBF0FBE8DBFDF92FF92F3
S1130720CF93DF931F92B5E0EB2E21E04FEF63E20E
S113073083E20E9415010F900F900F900F900F907D
S1130740DF91CF911F910F91FF90EF90DF90CF90A9
S1130750BF90AF909F908F907F906F905F9008951F
S1130760FF920F931F93CF93DF93F82EFB01C18168
S11307709081933009F45AC030F40C2F10E091307A
S113078011F190F50CC0953009F455C008F450C02F
S1130790963009F460C0973009F07BC06BC08CE2DE
S11307A08093BF0E84E2809FE001819FD00D1124CD
S11307B0C45CDC4F89818F3F21F00E94830981E072
S11307C08A8340E00FC084E2809FE001819FD00DC6
S11307D01124C45CDC4F89818F3F19F00E94C60943
S11307E01A8241E062E057C084E2809FE001819F69
S11307F0D00D1124C45CDC4F89818F3F19F00E9415
S1130800C6091A8285E08A95F1F784E2809FE001A7
S1130810819FD00D1124C45CDC4F89818F3F21F06E
S11308200E94830981E08A8342E0DCCF43E0DACF8F
S113083040E060E030C084E2C89FE0011124C45C61
S1130840DC4F89818F3F29F00E94830981E08A83EC
S11308508B8345E0C7CF84E2C89FE0011124C45CC8
S1130860DC4F89818F3FF9F082818E83828180936E
S11308709D0C19C084E2C89FE0011124C45CDC4FC4
S113088089818F3F81F082818F8782818093980C48
S11308900AC040E061E08F2DDF91CF911F910F914D
S11308A0FF900C943B12DF91CF911F910F91FF9019
S11308B00895CF932091900A3091910A2F3F3105EA
S11308C008F0D1C080917E0A882309F4CCC08091BD
S11308D0920A882321F081E08093CA0E02C010920C
S11308E0CA0E8091CA0E882321F02F37310528F0D3
S11308F0AEC02837310508F0AAC02536310508F402
S1130900A1C0C09106039C2F9F5F90930603882388
S113091009F446C04091A10E2A36310528F4842FEB
S113092082958695869512C0C9018A5691090A97BF
S113093038F4842F82958695869583708F5F06C0E0
S1130940842F82958695869583708E5F83708093BD
S1130950BD0EF901E556F04CEE0FFF1FEE0FFF1F21
S1130960E80FF11DEE0FFF1FE457FF4F65917491DF
S11309706B50710980E090E00E94B91328EB3EE1CE
S113098049E251E40E945113609353087093540850
S11309908093550890935608C95FC093060363C0BB
S11309A02A36310530F48091A10E8295869586957C
S11309B019C0C9018A5691090A9740F48091A10E81
S11309C082958695869583708F5F0CC0C901845784
S11309D09109039748F48091A10E82958695869596
S11309E083708E5F837001C080E08093BD0E4CEFF6
S11309F04203F001439FF00D1124E452FE4FE81B23
S1130A00F109EE0FFF1FE859FE4F6591749180E0E4
S1130A1090E00E94B91328EB3EE141E251E40E94C8
S1130A2051139B01AC0160E070E088EC92E40E94F9
S1130A30E812609353087093540880935508909378
S1130A40560811C080E090E0A0E8BFEB04C080E04D
S1130A5090E0A8EDB2E48093530890935408A093D7
S1130A605508B09356088091920A81508E3F28F41D
S1130A70809106038F5F80930603CF91089580E0F1
S1130A8090E3AFE1B6E48093940A9093950AA0931F
S1130A90960AB093970A8CE59FE8A4E9B1E48093A1
S1130AA06D0A90936E0AA0936F0AB093700A8DEC4E
S1130AB09CECA8E3B3E48093250390932603A093CE
S1130AC02703B093280386E696EEA5E2B4E4809368
S1130AD0B10E9093B20EA093B30EB093B40E86E60B
S1130AE096EAA1E5B4E48093CD0E9093CE0EA09344
S1130AF0CF0EB093D00E81EE9AEFACE9B2E48093BE
S1130B008B0A90938C0AA0938D0AB0938E0A86E682
S1130B1096ECA7E0B4E480934C0890934D08A0931E
S1130B204E08B0934F0880E090EBA7E1B5E48093C2
S1130B30870A9093880AA093890AB0938A0A80E06E
S1130B4098E9AEEAB5E48093C20E9093C30EA093E5
S1130B50C40EB093C50E089580E096E1A9E8B6E40A
S1130B608093610890936208A0936308B09364082B
S1130B7088EB93EC9093AA0E8093A90E8AEE98EBDF
S1130B809093B80E8093B70E8FE69CE9909351082A
S1130B908093500885E99CE29093840A8093830AA9
S1130BA081E79AEA90932303809322038AEC98E3E3
S1130BB09093780A8093770A82E093E09093AC0E46
S1130BC08093AB0E8DEA97E09093B60E8093B50EAA
S1130BD080E895E190936C0880936B088EE49CEF19
S1130BE090936908809368088BE393E09093A80E30
S1130BF08093A70E8CED9BE6AEE2B0E48093570899
S1130C0090935808A0935908B0935A0880E895E542
S1130C10A2ECB1E180937F0A9093800AA093810AA9
S1130C20B093820A80EA9CE3A3E7BCE080932D039F
S1130C3090932E03A0932F03B093300380EA96E69B
S1130C40ACEFB9E18093320390933303A093340360
S1130C50B093350380E295EBA4EAB6EF80937A0A69
S1130C6090937B0AA0937C0AB0937D0A80E992EC6E
S1130C70ADEBBBE08093720A9093730AA093740A5D
S1130C80B093750A88E89BE7A5E8BBEF8093B90E9B
S1130C909093BA0EA093BB0EB093BC0E8CED93EC64
S1130CA0A6E0BFEF80931E0390931F03A09320033D
S1130CB0B09321038AE69DEAA7EDBFEF80939D0ED2
S1130CC090939E0EA0939F0EB093A00E8CEB90EE8B
S1130CD0A4E6BFEF8093090390930A03A0930B0348
S1130CE0B0930C0382EC96ECAAEBBEE38093990CD0
S1130CF090939A0CA0939B0CB0939C0C0895EF9244
S1130D00FF920F931F93CF93DF931FEF1ABB87E0DC
S1130D108BBB17BB80EE88BB14BB15BB8BEF81BBB1
S1130D2080EF82BB8EEF82B913B8109361001092EA
S1130D3062008FE18093640004E00093650082E028
S1130D4087BF87E481BF8FE083BF83E68093960CDF
S1130D5087EC8093970C80E890E79BBD8ABD8DE07B
S1130D608EBD84E88093BE0E8CE28093BF0E0E94F9
S1130D70800B10922A031092290310922C031092D4
S1130D802B0310926508109266088AE090E00E9496
S1130D90FA147C01E6ECFEE08083F1828AE090E0C4
S1130DA00E94FA14C8ECDEE0888399834FEF50E088
S1130DB06FE97CE0C7010E94A60B4FEF50E06EE99B
S1130DC07DE0888199810E94A60B1092CB0E10922F
S1130DD0CC0E0E9445017894C1E0C0936C0A109235
S1130DE037030093790A1092860A10929D0C109290
S1130DF0980C1092760A1092710A1092A60E109214
S1130E0031031092930A0E943F050E94AC058FEFB4
S1130E1090E09093910A8093900A10939E0C109303
S1130E205C081092C10E1092360310925B08109267
S1130E3067081092530810925408109255081092A3
S1130E4056081092CF101092850A10928F0A1092B1
S1130E5052081092CA0E10927E0A1092AD0E109291
S1130E60AE0E1092AF0E1092B00E10923803109284
S1130E70390310923A0310923B0310922403C09357
S1130E800D03A0911903C4E2CA9FD0011124A45CEC
S1130E90BC4F11968C910E94C609E0911A03CE9F13
S1130EA0F0011124E45CFC4F81810E94C609109278
S1130EB0A2051092C6051092EA0581E10E944C0930
S1130EC082E10E944C0983E1DF91CF911F910F9140
S1130ED0FF90EF900C944C098DE196E00E94090A72
S1130EE08093C10E833010F08DED01C08CEC8093A3
S1130EF05C080895CF92DF92EF92FF920F931F93B5
S1130F00CF93DF93C0905308D0905408E0905508D5
S1130F10F090560820E030E0A901C701B6010E9414
S1130F204D1387FF4CC029E23CE54FE05FEBC7015E
S1130F30B6010E944D1387FF0AC025E83BEE41E14C
S1130F405FEBC701B6010E946B141816C4F181E06F
S1130F508093760A0EE013E034E2F32EF801C19197
S1130F608F01FC9EE0011124C45CDC4F89810E9446
S1130F70C6091A82F3E00E311F0781F71092A20509
S1130F801092C6051092EA0581E10E944C0982E1A3
S1130F900E944C0983E10E944C098091710A8111DD
S1130FA008C080913103811104C040E062E00E94D6
S1130FB03B1281E0809331038093710A28C020E0C2
S1130FC030E048EC52E4C701B6010E946B141816D5
S1130FD0F4F48091CA0E8823D1F01092760A80919D
S1130FE011050E94830981E0809312058091A60E69
S1130FF0811108C08091930A811104C044E662E023
S11310000E943B1281E08093930A8093A60EDF91A5
S1131010CF911F910F91FF90EF90DF90CF900895A3
S113102080916A08813051F410926A081092AD0ED2
S11310301092AE0E1092AF0E1092B00E0895CF9291
S1131040DF92EF92FF92C090AD0ED090AE0EE09082
S1131050AF0EF090B00E20E030E0A901C701B60158
S11310600E946B1418163CF52DEC3CEC4CEC5EE342
S1131070C701B6010E946F146B017C012AE939E9AA
S113108049E15FE3609153087091540880915508D9
S1131090909156080E946F149B01AC01C701B601E0
S11310A00E94E912609338037093390380933A03E2
S11310B090933B0310C08091530890915408A091E1
S11310C05508B09156088093380390933903A09340
S11310D03A03B0933B03FF90EF90DF90CF900895D5
S11310E00E947F0610926B0A11E0C7ECDCE280914B
S11310F06B0A912F981B90936B0A8091970C811126
S113110007C0C093970C40E060E081E00E943B126E
S11311108091960C811106C0C093960C40E060E06B
S11311200E943B128091CB0E8823C9F08091CB0E94
S113113081508093CB0EE091C60EF091C70E618171
S11311407281478180E00E94B0034FEF50E06FE965
S11311507CE08091C60E9091C70E0E94A60B8091F0
S1131160CC0E8823C9F08091CC0E81508093CC0E94
S1131170E091C80EF091C90E61817281478181E0CE
S11311800E94B0034FEF50E06EE97DE08091C80EFD
S11311909091C90E0E94A60B80916C0A8130B1F423
S11311A010926C0A0E94400A0E9459040E9410087E
S11311B00E941F0880915208811102C00E947A0780
S11311C080913703873111F40E946C0780912403C6
S11311D0813009F08CCF10922403D093BF0E87CFB7
S11311E0A898E5E6F0E080818D7F808308958130C2
S11311F0F9F020F0823009F04EC034C064FF02C020
S1131200DF9A01C0DF9863FF02C0DE9A01C0DE9856
S113121062FF02C0DD9A01C0DD9861FF02C0DC9A62
S113122001C0DC9860FF02C0DB9A0895DB98089542
S113123064FF02C0C09A01C0C09863FF02C0C19A93
S113124001C0C19862FF02C0C29A01C0C29861FF86
S113125002C0C39A01C0C39860FF02C0C49A089533
S1131260C498089564FF02C01B9A01C01B9863FFD1
S113127002C01C9A01C01C9862FF02C01D9A01C0E2
S11312801D9861FF02C01E9A01C01E9860FF02C033
S11312901F9A08951F980895823131F0833159F0CF
S11312A0813199F40C94F008809165008E7F8093CD
S11312B065009098089580916500877F809365000C
S11312C0809165008F7E809365000895823149F096
S11312D0833171F08131B1F4A89A80916500826004
S11312E00FC080916500816080936500909A089595
S11312F080916500886080936500809165008061BD
S1131300809365000895883059F168F4843001F1C0
S113131030F48230C9F0D0F48130B9F513C086308E
S1131320D9F0E0F417C08C3039F120F48A3001F19F
S113133008F518C08E3021F108F18F3019F1803191
S113134021F522C0D89A0895D99A0895DA9A089571
S1131350C59A0895C69A0895C79A0895949A0895C7
S1131360959A08958091650084608093650008953E
S1131370AF9A0895AE9A0895AD9A0895AC9A0895D7
S1131380AB9A0895AA9A0895A99A0895883059F1B4
S113139068F4843001F130F48230C9F0D0F4813043
S11313A0B9F513C08630D9F0E0F417C08C3039F1A8
S11313B020F48A3001F108F518C08E3021F108F1CB
S11313C08F3019F1803121F522C0D8980895D99829
S11313D00895DA980895C5980895C6980895C79809
S11313E008959498089595980895809165008B7F49
S11313F0809365000895AF980895AE980895AD98C8
S11314000895AC980895AB980895AA980895A9985A
S11314100895FC012181808190E0820F911D228139
S1131420820F911D63E070E00E94D214862F08950C
S113143094E2899FF0011124E45CFC4F85898823A0
S113144011F0158A0895CF0141960C94090A94E28B
S1131450899FF0011124E45CFC4F8485882311F0FA
S113146014860895CF0108960C94090A90E697B95A
S113147097B19C7F97B997B1982B97B9369A0895ED
S11314801F93CF93DF938091790AC0913703823001
S113149009F46CC020F4813009F018C107C083300E
S11314A009F4D8C0843009F011C1FCC084E2C89F9B
S11314B0E0011124C45CDC4F2B8530E0C9010196A6
S11314C063E070E00E94E6148B879881943199F46C
S11314D08091860A8093900A1092910A8091C00E9E
S11314E08093A10E8091860A8093850A8091C00E14
S11314F080938F0A06C0953121F48091860A8093E7
S11315009E0C8091860AFE01E20FF31F80872091D2
S1131510860A8E81821720F48B81813009F008C0FD
S11315202091860A8F812817D8F48A818823C1F0F4
S113153089818F3F19F00E94C6090EC0923139F09B
S1131540933139F0913141F40E94F00805C082E1F1
S113155001C083E10E944C091A828091860A8C871B
S113156082E08093790A1D856E85A7C094E2C99FA5
S1131570E0011124C45CDC4F2C8930E0C9010196E0
S113158063E070E00E94E6148C8B4881473139F4A3
S11315908091860A8093920A81E080937E0A8091EA
S11315A0860AFE01E20FF31F818B443199F489A16D
S11315B0843019F491E090936A0890E02091860AAF
S11315C0FE01E80FF91F248F019665E070E00E9488
S11315D0E61489A39091860A8F858917D8F48B81A4
S11315E08130C1F089818F3F19F00E94C6090EC075
S11315F0423139F0433139F0413141F40E94F0086D
S113160005C082E101C083E10E944C091A828091E5
S1131610860A8D8B1E89133029F083E08093790A22
S11316206F894BC081E08093790A8091370390E001
S1131630019664E270E00E94E6148093370324E28A
S1131640289FF001299FF00D1124E45CFC4F1481C4
S1131650658133C0D0E044E24C9FF0014D9FF00D12
S11316601124E45CFC4F238D30E0C901019663E052
S113167070E00E94E614838F8091860AE20FF31FC4
S1131680808F81E08093790ACE01019664E270E054
S11316900E94E61480933703489FF001499FF00DA0
S11316A011241DC081E08093790A94E2C99FE0016E
S11316B01124C45CDC4F1C816D81812F0E94F708CA
S11316C083E393E70197F1F7812F15C081E08093BD
S11316D0790AE091370394E2E99FF0011124E45C74
S11316E0FC4FC48165818C2F0E94F70883E393E744
S11316F00197F1F78C2FDF91CF911F910C94360A4B
S113170087E08093990089B988E18AB9EAE9F0E031
S11317108083808180648083808180688083569AFE
S1131720579A0895FB0120813181F901E827FF27A9
S1131730EE0FFF1FEA5FFE4F232F33278081918135
S113174082279327FB01918380830895FC011082F3
S113175072836183568345831086178214821382B1
S1131760118608954F925F926F927F928F929F920B
S1131770AF92BF92CF92DF92EF92FF920F931F939B
S1131780CF93DF9300D01F92CDB7DEB76C015B011E
S113179079011A821982009709F458C0211531057C
S11317A009F454C04C3018F0483309F051C04424B3
S11317B04394512C4C0E5D1EB201842F4B830E9426
S11317C0920B3701600E711E470107C0B201F4018C
S11317D081914F014B830E94920B4B818614970495
S11317E0A9F789819A81F701E00FF11F9083818322
S11317F00E5F1F4F80ECF60180834183D70142E0E6
S113180050E02DED3BED6CED0FC08D91803C19F453
S11318103083618304C080838B3D21F421834E5F38
S11318205F4F02C04F5F5F4FCD018E199F09F601D4
S1131830E40FF51F8017910740F380EC80834F5F1E
S11318405F4FF5015183408381E003C085E001C00F
S113185086E00F900F900F90DF91CF911F910F9121
S1131860FF90EF90DF90CF90BF90AF909F908F90BC
S11318707F906F905F904F900895CF92DF92EF9298
S1131880FF920F931F93CF93DF93EC0129813A8149
S11318902115310509F484C08F8198854D815E81BD
S11318A0415051098417950708F07CC0498542309E
S11318B039F118F4442331F038C0403131F040326A
S11318C0A1F50AC0603C91F50DC06C3018F0683386
S11318D009F06AC0688326C0603C31F4892B11F09A
S11318E081E021C080E11FC06B3D11F482E01BC088
S11318F0F901E80FF91F6083019698878F8316C05A
S11319006C3D29F4F901E80FF91F40EC07C06D3D67
S113191009F04CC0F901E80FF91F4BED4083019623
S113192098878F8380E2898701C0198689858130F1
S113193011F089853CC089819A814F815885840F33
S1131940951FFC013297308120E0FC0131978081A2
S11319506901C80ED11C4250510958874F837E013A
S113196083E0E80EF11CB70188810E94920B00E02D
S113197010E00AC0E981FA81E00FF11FB70180810C
S11319800E94920B0F5F1F4F8F81988508171907CC
S113199088F38B819C818C159D0559F284E007C0E6
S11319A085E005C083E003C086E001C087E0DF91E5
S11319B0CF911F910F91FF90EF90DF90CF900895FA
S11319C0282F30E0F901EB59F74F6081D901AA0FB4
S11319D0BB1FA75DBC4F4D915C9170E06417750708
S11319E010F581110EC080819FEF929FD001939FCB
S11319F0B00D1124A80FB11DA359B74F9C919CB9E8
S1131A0010C0813081F480819FEF929FD001939F19
S1131A10B00D1124A80FB11DA359B74F9C919093F9
S1131A209C008F5F808308951F920F920FB60F92D0
S1131A3011248F938091960C882329F08091960C21
S1131A4081508093960C8091970C882329F0809183
S1131A50970C81508093970C8F910F900FBE0F902D
S1131A601F9018951F920F920FB60F9211240BB668
S1131A700F922F933F934F935F936F937F938F9323
S1131A809F93AF93BF93CF93EF93FF9380916200A3
S1131A908095809362008091BE0E811131C0809147
S1131AA00D03882369F184E88093BE0E8091C904F4
S1131AB00E948309C1E0C093CA048091ED040E948E
S1131AC08309C093EE048091A1050E948309C09309
S1131AD0A2058091C5050E948309C093C605809123
S1131AE0E9050E948309C093EA0581E10E94660921
S1131AF082E10E94660983E10E94660910920D0347
S1131B008091BF0E811107C080912403811103C00D
S1131B1081E08093240385B391E0892785BB2FEF6F
S1131B208FE796E1215080409040E1F700C000002B
S1131B308091BE0E81508093BE0E8091BF0E815065
S1131B408093BF0EFF91EF91CF91BF91AF919F9181
S1131B508F917F916F915F914F913F912F910F9052
S1131B600BBE0F900FBE0F901F9018951F920F92EF
S1131B700FB60F9211240BB60F922F933F934F93EE
S1131B805F936F937F938F939F93AF93BF93EF93E1
S1131B90FF9381E00E94E00CFF91EF91BF91AF9120
S1131BA09F918F917F916F915F914F913F912F9171
S1131BB00F900BBE0F900FBE0F901F9018951F92A1
S1131BC00F920FB60F9211240BB60F922F933F93DF
S1131BD04F935F936F937F938F939F93AF93BF9331
S1131BE0EF93FF9360919C008091C80E9091C90E71
S1131BF00E943D0C813029F48091CC0E8F5F80933C
S1131C00CC0EFF91EF91BF91AF919F918F917F91F6
S1131C106F915F914F913F912F910F900BBE0F9059
S1131C200FBE0F901F9018951F920F920FB60F9230
S1131C3011245F936F937F938F939F93AF93BF937D
S1131C4084B18093C00E85B18093860A81E080932D
S1131C506C0A8091070390910803019664E670E092
S1131C600E94D2149093080380930703BF91AF910D
S1131C709F918F917F916F915F910F900FBE0F9005
S1131C801F9018951F920F920FB60F9211240BB646
S1131C900F922F933F934F935F936F937F938F9301
S1131CA09F93AF93BF93EF93FF9380E00E94E00C68
S1131CB0FF91EF91BF91AF919F918F917F916F9120
S1131CC05F914F913F912F910F900BBE0F900FBEDC
S1131CD00F901F9018951F920F920FB60F92112418
S1131CE00BB60F922F933F934F935F936F937F9312
S1131CF08F939F93AF93BF93EF93FF936CB18091B6
S1131D00C60E9091C70E0E943D0C813029F480913B
S1131D10CB0E8F5F8093CB0EFF91EF91BF91AF916C
S1131D209F918F917F916F915F914F913F912F91EF
S1131D300F900BBE0F900FBE0F901F90189582301E
S1131D4010F40C94E00C08952F923F924F925F92FE
S1131D506F927F928F929F92AF92BF92CF92DF92B7
S1131D60EF92FF920F931F93CF93DF93CDB7DEB71C
S1131D7028970FB6F894DEBF0FBECDBF98878F8328
S1131D80DC011C923091A604330F8091CA04B4E0A4
S1131D908B9FC0011124382B80918204382B8091B1
S1131DA0EE04E8E08E9FC0011124382B80915A057F
S1131DB0F0E18F9FC0011124382B80917E0520E231
S1131DC0829FC0011124382B4091C605440F809195
S1131DD0EA0554E0859FC0011124482B8091A20597
S1131DE0482BE2E1F5E08081A8E08A9FC00111243C
S1131DF0482B20916203220F80918603B4E08B9FCD
S1131E00C0011124282B80913E03282B8091CE03FE
S1131E1058E0859FC0011124282B8091F203A0E192
S1131E208A9FC0011124282B80911604B0E28B9F55
S1131E30C0011124282B80913A0450E4859FC001ED
S1131E401124282B80915E04A0E88A9FC0011124EC
S1131E50282BAF81B88511962C93119712963C9339
S1131E60129713964C93139789E914968C931497AD
S1131E70808115968C932CE3622E23E0722EF3015D
S1131E8080810E94270AAF81B88516968C9330E62C
S1131E90832E33E0932EF40180810E94270AAF81C0
S1131EA0B88517968C9344E8A42E43E0B42EF5012C
S1131EB080810E94270AAF81B88518968C9358EACE
S1131EC0C52E53E0D52EF60180810E94270AAF81EA
S1131ED0B88519968C936CECE62E63E0F62EF70128
S1131EE080810E94270AAF81B8851A968C9304E1F9
S1131EF014E0F80180810E94270AAF81B8851B96FF
S1131F008C93E8E3F4E080810E94270AAF81B885CE
S1131F101C968C937CE5472E74E0572EF201808149
S1131F200E94270AAF81B8851D968C93E0E82E2E77
S1131F30E4E03E2EF10180810E94270AAF81B8853A
S1131F401E968C9324EA34E0F901808129833A8334
S1131F500E94270AAF81B8851F968C9348EC54E001
S1131F60FA0180814B835C830E94270AAF81B88584
S1131F7050968C936CEE74E0FB0180816D837E83BC
S1131F800E94270AAF81B88551968C93E8E5F5E065
S1131F9080810E94270AAF81B88552968C93ECE722
S1131FA0F5E080810E94270AAF81B88553968C930F
S1131FB0E0EAF5E080810E94270AAF81B885549653
S1131FC08C93E4ECF5E080810E94270AAF81B88508
S1131FD055968C93E8EEF5E080810E94270AAF8144
S1131FE0B88556968C93ECE0F6E080810E94270A2F
S1131FF0AF81B88557968C93E0E3F6E080810E9428
S1132000270AAF81B88558968C93E4E5F6E0808181
S11320100E94270AAF81B88559968C93E8E7F6E0C9
S113202080810E94270AAF81B8855A968C93ECE987
S1132030F6E080810E94270AAF81B8855B968C9375
S1132040E0ECF6E080810E94270AAF81B8855C96B7
S11320508C93E4EEF6E080810E94270AAF81B88574
S11320605D968C93E8E0F7E080810E94270AAF81B7
S1132070B8855E968C93ECE2F7E080810E94270A93
S1132080AF81B8855F968C93E0E5F7E080810E948C
S1132090270AAF81B88590968C93E4E7F7E08081B6
S11320A00E94270AAF81B88591968C93E8E9F7E0FE
S11320B080810E94270AAF81B88592968C93ECEBBD
S11320C0F7E080810E94270AAF81B88593968C93AC
S11320D0E0EEF7E080810E94270AAF81B8859496EC
S11320E08C93E4E0F8E080810E94270AAF81B885F0
S11320F095968C93809128080E94270AEF81F88591
S113210086A317A210A611A612A613A6D3018C911A
S11321100E94180AEF81F88584A7D4018C910E944B
S1132120180AEF81F88585A7D5018C910E94180AB9
S1132130EF81F88586A7D6018C910E94180AEF8159
S1132140F88587A7D7018C910E94180AEF81F8853A
S113215080ABD8018C910E94180AEF81F88581AB7D
S1132160A8E3B4E08C910E94180AEF81F88582AB51
S1132170D2018C910E94180AEF81F88583ABD101BA
S11321808C910E94180AEF81F88584AB29813A81E9
S1132190D9018C910E94180AEF81F88585AB4B8197
S11321A05C81DA018C910E94180AEF81F88586AB74
S11321B06D817E81DB018C910E94180AEF81F88584
S11321C087ABA8E5B5E08C910E94180AEF81F885E9
S11321D080AFACE7B5E08C910E94180AEF81F885D6
S11321E081AFA0EAB5E08C910E94180AEF81F885CE
S11321F082AFA4ECB5E08C910E94180AEF81F885B7
S113220083AFA8EEB5E08C910E94180AEF81F8859F
S113221084AFACE0B6E08C910E94180AEF81F88597
S113222085AFA0E3B6E08C910E94180AEF81F8858F
S113223086AFA4E5B6E08C910E94180AEF81F88578
S113224087AFA8E7B6E08C910E94180AEF81F88561
S1132250E05CFF4F8083ECE9F6E080810E94180A7D
S1132260EF81F885EF5BFF4F8083A0ECB6E08C91A3
S11322700E94180AEF81F885EE5BFF4F8083E4EE3D
S1132280F6E080810E94180AEF81F885ED5BFF4F2C
S11322908083A8E0B7E08C910E94180AEF81F8854A
S11322A0EC5BFF4F8083ECE2F7E080810E94180A28
S11322B0EF81F885EB5BFF4F8083A0E5B7E08C915D
S11322C00E94180AEF81F885EA5BFF4F8083E4E7F8
S11322D0F7E080810E94180AEF81F885E95BFF4FDF
S11322E08083A8E9B7E08C910E94180AEF81F885F1
S11322F0E85BFF4F8083ECEBF7E080810E94180AD3
S1132300EF81F885E75BFF4F8083A0EEB7E08C9107
S11323100E94180AEF81F885E65BFF4F8083E4E0B2
S1132320F8E080810E94180AEF81F885E55BFF4F91
S11323308083EF81F885E45BFF4F8FEF8083EF812B
S1132340F885E35BFF4F9091900A9083EF81F885C5
S1132350E25BFF4F9091CF109083EF81F885E15BB2
S1132360FF4F1082EF81F885E05BFF4F1082EF8111
S1132370F885EF5AFF4F1082EF81F885EE5AFF4F30
S113238090915B089083EF81F885ED5AFF4F80832D
S113239088E496E00E94090AEF81F885EC5AFF4F21
S11323A0808380E996E00E94090AEF81F885EB5A60
S11323B0FF4F808384EB96E00E94090AEF81F88541
S11323C0EA5AFF4F808388ED96E00E94090AEF8164
S11323D0F885E95AFF4F80838CEF96E00E94090A42
S11323E0EF81F885E85AFF4F808380E297E00E94EE
S11323F0090AEF81F885E75AFF4F808380EB97E065
S11324000E94090AEF81F885E65AFF4F808380E431
S113241098E00E94090AEF81F885E55AFF4F80830E
S113242080919D0C10929D0CEF81F885E45AFF4F2A
S113243080838091980C1092980CEF81F885E35A70
S1132440FF4F808328960FB6F894DEBF0FBECDBF32
S1132450DF91CF911F910F91FF90EF90DF90CF907C
S1132460BF90AF909F908F907F906F905F904F90B0
S11324703F902F9008956F927F928F929F92BF9278
S1132480CF92DF92EF92FF920F931F93CF93DF933C
S1132490B82E6130B9F020F0623009F08BC022C050
S11324A0C82FD0E02FEF829FC00111248F52914F8B
S11324B00E94A40EFE01EE0FFF1FE35AF74F80E6C1
S11324C090E021C0E82FF0E08FEFB89ED0011124F6
S11324D0AF52B14F6C93EE0FFF1FE35AF74F81E0F9
S11324E090E011C0E82FF0E02FEF829FD00111247B
S11324F0AF52B14F6C9311964C93EE0FFF1FE35AFA
S1132500F74F82E090E0918380838B2C912C8FEFA6
S1132510B89E70011124E701C856D54F6401CC0C54
S1132520DD1CF601E35AF74F0081118197012F5208
S1132530314FA2EA6A2EAEE07A2E6C0C7D1C41E08B
S1132540B301CE010E94B20B8130A1F5F301808169
S11325509181F601E75DFC4F9183808380819181B5
S113256097012359374FAC01BE01C9010E943416AB
S1132570F401EB59F74F1082F1E0BF1206C08091CD
S11325809B008823B9F081E006C0B11013C08BB161
S1132590882381F080E0DF91CF911F910F91FF900C
S11325A0EF90DF90CF90BF909F908F907F906F902F
S11325B00C949F0EDF91CF911F910F91FF90EF909C
S11325C0DF90CF90BF909F908F907F906F900895F1
S11325D05058BB27AA270ED044C135D130F03AD188
S11325E020F031F49F3F11F41EF42AC10EF4E0955B
S11325F0E7FB20C1E92F46D180F3BA1762077307BE
S11326008407950718F071F49EF55EC10EF4E09509
S11326100B2EBA2FA02D0B01B90190010C01CA0198
S1132620A0011124FF27591B99F0593F50F4503E43
S113263068F11A16F040A22F232F342F4427585F35
S1132640F3CF469537952795A795F0405395C9F74D
S11326507EF41F16BA0B620B730B840BBAF0915005
S1132660A1F0FF0FBB1F661F771F881FC2F70EC0A4
S1132670BA0F621F731F841F48F487957795679577
S1132680B795F7959E3F08F0B3CF9395880F08F060
S11326909927EE0F979587950895A8D008F481E0BF
S11326A008950CD0DEC0D6D040F0CDD030F021F467
S11326B05F3F19F0BFC0511108C1C2C0E3D098F305
S11326C09923C9F35523B1F3951B550BBB27AA27AF
S11326D062177307840738F09F5F5F4F220F331F21
S11326E0441FAA1FA9F333D00E2E3AF0E0E830D0ED
S11326F091505040E695001CCAF729D0FE2F27D0F0
S1132700660F771F881FBB1F261737074807AB07BD
S1132710B0E809F0BB0B802DBF01FF2793585F4F32
S11327202AF09E3F510568F085C0CFC05F3FECF3AF
S1132730983EDCF3869577956795B795F7959F5FF7
S1132740C9F7880F911D9695879597F90895E1E04B
S1132750660F771F881FBB1F621773078407BA07AA
S113276020F0621B730B840BBA0BEE1F88F7E09505
S11327700895E89409C097FB3EF490958095709570
S113278061957F4F8F4F9F4F9923A9F0F92F96E9B9
S1132790BB279395F695879577956795B795F1112E
S11327A0F8CFFAF4BB0F11F460FF1BC06F5F7F4FCB
S11327B08F4F9F4F16C0882311F096E911C07723DD
S11327C021F09EE8872F762F05C0662371F096E8E6
S11327D0862F70E060E02AF09A95660F771F881FB5
S11327E0DAF7880F9695879597F90895990F000859
S11327F0550FAA0BE0E8FEEF16161706E807F907CF
S1132800C0F012161306E407F50798F0621B730B69
S1132810840B950B39F40A2661F0232B242B252BEA
S113282021F408950A2609F4A140A6958FEF811D8D
S1132830811D089597F99F6780E870E060E008952E
S11328409FEF80EC089500240A94161617061806C4
S11328500906089500240A941216130614060506A0
S11328600895092E0394000C11F4882352F0BB0F31
S113287040F4BF2B11F460FF04C06F5F7F4F8F4F94
S11328809F4F089557FD9058440F551F59F05F3FCF
S113289071F04795880F97FB991F61F09F3F79F07E
S11328A087950895121613061406551FF2CF469500
S11328B0F1DF08C0161617061806991FF1CF869582
S11328C07105610508940895E894BB276627772766
S11328D0CB0197F908958ADF08F48FEF08950BD0A0
S11328E0C0CFB1DF28F0B6DF18F0952309F0A2CFEE
S11328F0A7CF1124EACFC6DFA0F3959FD1F3950F9C
S113290050E0551F629FF001729FBB27F00DB11D6F
S1132910639FAA27F00DB11DAA1F649F6627B00DFF
S1132920A11D661F829F2227B00DA11D621F739FE8
S1132930B00DA11D621F839FA00D611D221F749FF6
S11329403327A00D611D231F849F600D211D822F3D
S1132950762F6A2F11249F5750408AF0E1F0882384
S11329604AF0EE0FFF1FBB1F661F771F881F915091
S11329705040A9F79E3F510570F05CCFA6CF5F3F52
S1132980ECF3983EDCF3869577956795B795F795C4
S1132990E7959F5FC1F7FE2B880F911D969587954C
S11329A097F90895AA1BBB1B51E107C0AA1FBB1FBF
S11329B0A617B70710F0A61BB70B881F991F5A95C7
S11329C0A9F780959095BC01CD01089597FB072E3A
S11329D016F4009407D077FD09D00E94D21407FCA6
S11329E005D03EF4909581959F4F0895709561951B
S11329F07F4F08950F931F93CF93DF9382309105F8
S1132A0010F482E090E0E091D210F091D31020E035
S1132A1030E0C0E0D0E023C040815181481759071D
S1132A20A8F04817590761F482819381209719F01F
S1132A309B838A832EC09093D3108093D21029C095
S1132A402115310529F04217530710F0A90102C0DE
S1132A50BE01DF0102811381EF019A01F801309771
S1132A60D9F62115310509F1281B390B243031051C
S1132A7090F412968D919C9113976115710521F034
S1132A80FB019383828304C09093D3108093D2106C
S1132A90FD01329644C0FD01E20FF31F819391932F
S1132AA0225031092D933C933AC02091D01030919B
S1132AB0D110232B41F42091020130910301309372
S1132AC0D1102093D01020910001309101012115E3
S1132AD0310541F42DB73EB74091040150910501F1
S1132AE0241B350BE091D010F091D110E217F307BD
S1132AF0A0F42E1B3F0B2817390778F0AC014E5F6A
S1132B005F4F2417350748F04E0F5F1F5093D110C5
S1132B104093D0108193919302C0E0E0F0E0CF01A4
S1132B20DF91CF911F910F910895EF92FF920F9330
S1132B301F93CF93DF93009709F48FC0DC011297A2
S1132B4013961C921E921297E090D210F090D3101C
S1132B50E114F10489F42D913C911197280F391F48
S1132B608091D0109091D1108217930789F5B0937A
S1132B70D110A093D01071C0E70120E030E001C073
S1132B80EA01CA17DB0738F44A815B819E014115CB
S1132B905105B1F722C0BC0162507109FB01D38316
S1132BA0C28300811181AC01400F511F4C175D0796
S1132BB061F448815981400F511F4E5F5F4F51832B
S1132BC040834A815B81538342832115310529F473
S1132BD0B093D310A093D21040C0F901B383A28361
S1132BE0E90169917991C60FD71FAC17BD0779F434
S1132BF0DC015E914E91460F571F4E5F5F4F51832C
S1132C00408312968D919C91139793838283A0E0C5
S1132C10B0E002C0D7017C01F70182819381009763
S1132C20C9F7C701029620813181820F931F209139
S1132C30D0103091D1102817390779F4109729F45E
S1132C401092D3101092D21004C013961C921E92AC
S1132C501297F092D110E092D010DF91CF911F9192
S1132C600F91FF90EF900895FB01DC0102C00190E9
S1112C700D9241505040D8F70895F894FFCFCC
S1132C7E0000D41020000000891112239B32244638
S1132C8EAD573665BF74488CC19D5AAFD3BE6CCA5E
S1132C9EE5DB7EE9F7F88110080193331A22A55675
S1132CAE2C47B7753E64C99C408DDBBF52AEEDDA3E
S1132CBE64CBFFF976E802218B3010029913266754
S1132CCEAF763444BD554AADC3BC588ED19F6EEB1E
S1132CDEE7FA7CC8F5D983310A2091121803A77735
S1132CEE2E66B5543C45CBBD42ACD99E508FEFFBFE
S1132CFE66EAFDD874C904428D5316619F70200490
S1132D0EA9153227BB364CCEC5DF5EEDD7FC6888DD
S1132D1EE1997AABF3BA85520C4397711E60A114F4
S1132D2E2805B3373A26CDDE44CFDFFD56ECE998BD
S1132D3E6089FBBB72AA06638F7214409D512225D3
S1132D4EAB343006B9174EEFC7FE5CCCD5DD6AA99D
S1132D5EE3B8788AF19B87730E6295501C41A335B4
S1132D6E2A24B1163807CFFF46EEDDDC54CDEBB97D
S1132D7E62A8F99A708B088481951AA793B62CC20F
S1132D8EA5D33EE1B7F04008C919522BDB3A644E85
S1132D9EED5F766DFF7C899400859BB712A6ADD24C
S1132DAE24C3BFF136E0C1184809D33B5A2AE55E65
S1132DBE6C4FF77D7E6C0AA583B4188691972EE32B
S1132DCEA7F23CC0B5D14229CB38500AD91B666F45
S1132DDEEF7E744CFD5D8BB502A499961087AFF30C
S1132DEE26E2BDD034C1C3394A28D11A580BE77F25
S1132DFE6E6EF55C7C4D0CC685D71EE597F4288067
S1132E0EA1913AA3B3B2444ACD5B5669DF78600C04
S1132E1EE91D722FFB3E8DD604C79FF516E4A990CB
S1132E2E2081BBB332A2C55A4C4BD7795E68E11CE4
S1132E3E680DF33F7A2E0EE787F61CC495D52AA1AA
S1132E4EA3B03882B193466BCF7A5448DD59622DC4
S1132E5EEB3C700EF91F8FF706E69DD414C5ABB18B
S1132E6E22A0B9923083C77B4E6AD5585C49E33DA4
S1092E7E6A2CF11E780F1E
S9030000FC
