S00E000076696F6C65742E7372656383
S11300000C9496000C94B5000C94B5000C94B500B7
S11300100C94B5000C94B5000C94B5000C94B50088
S11300200C94B5000C94B5000C94B5000C94B50078
S11300300C94F6160C94B5000C94B5000C94C612EE
S11300400C94B5000C94B5000C948D160C94B5006A
S11300500C9436130C94E4120C94B5000C94B50073
S11300600C94B5000C94B5000C94B5000C94B50038
S11300700C94B5000C94B5000C94C1160C94B50006
S11300800C945F130C94B5000C94B50005A84CCDEA
S1130090B2D44EB93836A9020C50B9918688083CBE
S11300A0A6AAAA2ABE000000803F07634236B79B77
S11300B0D8A71A39685618AEBAAB558C1D3CB7CCC4
S11300C05763BD6DEDFD753EF6177231BF0000003C
S11300D0803F08000000BE922449123EABAAAA2A1F
S11300E0BECDCCCC4C3E00000080BEABAAAAAA3E3A
S11300F000000000BF000000803F00000000000876
S11301004178D3BB4387D1133D190E3CC3BD428212
S1130110AD2B3E68EC8276BED98FE1A93E4C80EFD0
S1130120FFBE01C4FF7F3F000000000011241FBE7A
S1130130CFEFD0E1DEBFCDBF13E0A0E0B1E0E8E84F
S1130140F9E300E00BBF02C007900D92A630B1079F
S1130150D9F71FE0A6E0B3E001C01D92A236B107B3
S1130160E1F70E944F0E0C94C21C0C9400003F92C5
S11301704F925F926F927F928F929F92AF92BF92B3
S1130180CF92DF92EF92FF920F931F9380E687B98D
S11301908FE886B9E5E3F3E01092350397E0C92EC2
S11301A0C092360391E09093370310923803109273
S11301B039038BE0882E80923A0321EE20933B038F
S11301C010923F03109240031092410316E01093E3
S11301D0420320934303109247031092480343E0E1
S11301E04093490310924A0310924E0390934F0395
S11301F0A8E0A093500390935103109252031092DD
S1130200530307E1602E6092540320935503109228
S1130210590310925A0310925B03C0925C0320931B
S11302205D03109261031092620390936303C09282
S113023064031092680362E06093690390936A0315
S113024090936B0310926C0390936D03B3E17B2E38
S113025070926E0320936F0316AE17AE90937503DE
S1130260109276032093770310927B0310927C0301
S113027040937D0310927E03109282034093830384
S1130280909384039093850310928603609387036D
S1130290FDE0F09388032093890310928D0310925C
S11302A08E0360938F035EE0509390032093910339
S11302B0109295031092960340939703109298031B
S11302C010929C0374E0B72EB0929D0360939E033A
S11302D090939F031092A0039093A10335E1932E72
S11302E09092A2032093A3031092A7031092A80351
S11302F09093A9039093AA032093AB031092AF03A6
S11303001092B0034093B1031092B2031092B6035B
S113031005E00093B7034093B8039093B903109298
S1130320BA039093BB038AE1382E3092BC03209326
S1130330BD031092C1031092C2039093C303609350
S1130340C4032093C5031092C9031092CA034093B7
S1130350CB031092CC031092D0031093D103B0922C
S1130360D2039093D3031092D4039093D5038DE1D9
S11303708093D6032093D7031092DB031092DC03FF
S11303809093DD034093DE032093DF031092E30395
S11303901092E4034093E5031092E6031092EA03FB
S11303A0C092EB030093EC039093ED031092EE03E1
S11303B09093EF035093F0032093F1031092F5030D
S11303C01092F6039093F7038FE18093F803209340
S11303D0F9031092FD031092FE034093FF03109261
S11303E0000410920404A09305041093060490934F
S11303F007041092080490930904BBE14B2E409229
S11304000A0420930B0410920F041092100490938A
S11304101104B09212042093130410921704109242
S113042018044093190410921A0410921E04E9E06F
S1130430EE2EE0921F04E092200490932104109287
S1130440220490932304BFE0B09324042093250452
S11304501092290410922A0490932B04A0932C0444
S113046020932D04109231041092320440933304EB
S113047010923404109238047AE0D72ED0923904C2
S1130480D0923A0490933B0410923C0490933D0420
S113049039E1532E50923E0420933F0410924304BA
S11304A01092440490934504E09246042093470438
S11304B010924B0410924C0440934D0410924E043D
S11304C01092520480925304809254041092550462
S11304D0109256049093570488E1A82EA0925804D1
S11304E02093590410925D0410925E0490935F046B
S11304F0D092600420936104109265041092660403
S1130500409367041092680410926C048CE080930A
S11305106D0480936E0410926F0410927004909393
S1130520710471E170937204209373041092770440
S1130530109278049093790430E130937A042093F4
S11305407B0410927F0410928004409381041092E3
S1130550820410928604F0938704F09388049093A5
S1130560890410928A0490938B04E6E1FE2EF092A3
S11305708C0420938D041092910410929204909311
S113058093048093940420939504109299041092F8
S11305909A0460939B04A0939C041092A00450932B
S11305A0A1045093A2049093A3041092A404109263
S11305B0A504B092A6042093A7041092AB04109251
S11305C0AC041092AD041093AE042093AF041092C7
S11305D0B3041092B4044093B5041092B60410927C
S11305E0BA04B093BB043093BC049093BD0410923E
S11305F0BE046093BF049092C0042093C10410927F
S1130600C5041092C6044093C7041092C8042093F2
S1130610C9041092CD041092CE044093CF041092DA
S1130620D0041092D4043093D504B093D60490939C
S1130630D7041092D8049093D904E2E1E093DA0449
S11306402093DB041092DF041092E0049093E10401
S1130650F093E2042093E3041092E7041092E80478
S11306604093E9041092EA041092EE047093EF04AC
S11306705FEF5093F0041092F1041092F2049093FF
S1130680F3048CE18093F4042093F5041092F904AC
S11306901092FA049093FB040093FC042093FD044D
S11306A0109201051092020540930305109204056F
S11306B010920805E093090550930A0510920B0562
S11306C010920C0560930D05B0930E0520930F0551
S11306D010921305109214056093150530931605B6
S11306E02093170510921B0510921C0540931D05BD
S11306F010921E0510922205709223055093240532
S113070010922505109226056093270570932805FD
S11307102093290510922D0510922E0560932F0524
S1130720E09330052093310510923505109236057B
S1130730409337051092380510923C0574E170938C
S11307403D0550933E0590933F051092400510924D
S1130750410590934205209343051092470510925A
S113076048051092490560934A0520934B05109261
S11307704F051092500560935105E0925205109276
S11307805605909257055093580590935905109229
S11307905A0560935B0570935C0520935D05109288
S11307A0610510926205609363058EE18093640590
S11307B0209365051092690510926A0560936B0594
S11307C080926C0510927005F09271055093720539
S11307D0909373051092740510927505C092760576
S11307E02093770510927B0510927C0510927D056D
S11307F040937E0520937F05109283051092840513
S1130800409385051092860510928A0560928B05A7
S11308100FEF50938C0511E090938D0510928E0587
S113082010928F05E093900531EE2093910510927C
S1130830950510929605109297057093980520934C
S1130840990510929D0510929E0572E0C72E609343
S11308509F051092A0051092A405A092A50550939F
S1130860A6059093A7051092A8051092A905709269
S1130870AA052093AB051092AF051092B005109213
S1130880B1059092B2052093B3051092B70510926A
S1130890B8056093B9059093BA051092BE055092BD
S11308A0BF055093C0059093C1051092C2051092E4
S11308B0C305D092C4052093C5051092C9051092B2
S11308C0CA051092CB05F092CC052093CD05109269
S11308D0D1051092D2056093D3056093D40510928C
S11308E0D8053092D9055093DA059093DB05109220
S11308F0DC051092DD05B093DE052093DF05109230
S1130900E3051092E4051092E5056092E605209354
S1130910E7051092EB051092EC056093ED0573E08A
S11309204093EE051092F2054092F3055093F405BE
S11309309093F5051092F6051092F705E092F805EC
S11309402093F9051092FD051092FE051092FF0503
S1130950A09200062093010610920506A6E0B6E0D8
S11309601092060660930706B092080610920C06D1
S11309709CE190930D06FD01389600930E061093AA
S11309800F0610921006109211068EE08093120644
S11309903093130610921706109218061092190637
S11309A089E180931A0630931B0610921F06109259
S11309B020067093210610922206109226065DE10D
S11309C050932706009328061093290610922A06AE
S11309D010922B0680E180932C0630932D06109202
S11309E0310610923206109233068AE1809334065F
S11309F0309335061092390610923A0670933B06EE
S1130A0010923C06109240064EE14093410600933A
S1130A104206DD961C93DD97DE961C92DE97DF96E8
S1130A201C9288E080AF31AF15AE16AE17AE8BE1E5
S1130A3080934E0630934F0610925306109254063C
S1130A40709355061092560610925A062FE1209381
S1130A505B0600935C0610935D0610925E0610928E
S1130A605F068DE080936006309361061092650600
S1130A701092660610926706909368063093690692
S1130A8010926D0610926E06C0926F0695E09093D8
S1130A9070061092740680E28093750600937606C1
S1130AA01093770610927806109279068CE0809362
S1130AB07A0630937B0610927F061092800610927D
S1130AC08106509382063093830610928706109213
S1130AD088067093890610928A0610928E0681E227
S1130AE080938F06009390061093910610929206BD
S1130AF0109293068BE0809394063093950610929F
S1130B00990610929A0610929B0640939C06309385
S1130B109D061092A1061092A2067093A30610924D
S1130B20A4061092A80682E28093A9060093AA065E
S1130B301093AB061092AC061092AD0681E180933F
S1130B40AE063093AF061092B3061092B40610921C
S1130B50B5062093B6063093B7061092BB061092E2
S1130B60BC067093BD061092BE061092C20683E2C4
S1130B708093C3060093C4061093C5061092C6065C
S1130B801092C7069093C8063093C9061092CD06FA
S1130B901092CE061092CF061092D0063093D10652
S1130BA01092D5061092D606C092D70686E080939E
S1130BB0D8061092DC061F910F91FF90EF90DF9002
S1130BC0CF90BF90AF909F908F907F906F905F90E9
S1130BD04F903F90089580E090E3AFE1B6E48093B6
S1130BE0290990932A09A0932B09B0932C098CE529
S1130BF09FE8A4E9B1E48093FD089093FE08A093D4
S1130C00FF08B09300098DEC9CECA8E3B3E4809357
S1130C10220390932303A0932403B093250386E631
S1130C2096EEA5E2B4E48093410D9093420DA09317
S1130C30430DB093440D86E696EAA1E5B4E48093AF
S1130C405B0D90935C0DA0935D0DB0935E0D81EEF2
S1130C509AEFACE9B2E480931E0990931F09A09324
S1130C602009B093210986E696ECA7E0B4E48093CA
S1130C70DD069093DE06A093DF06B093E00680E0E5
S1130C8090EBA7E1B5E480931A0990931B09A09314
S1130C901C09B0931D0980E098E9AEEAB5E480939D
S1130CA0510D9093520DA093530DB093540D08958C
S1130CB080E096E1A9E8B6E48093F2069093F30607
S1130CC0A093F406B093F50688EB93EC90933E0D55
S1130CD080933D0D8AEE98EB9093480D8093470DD9
S1130CE08FE69CE99093E2068093E10685E99CE215
S1130CF0909313098093120981E79AEA9093200351
S1130D0080931F038AEC98E3909308098093070962
S1130D1082E093E09093400D80933F0D8DEA97E03D
S1130D209093460D8093450D80E895E19093FC06E1
S1130D308093FB068EE49CEF9093FA068093F90669
S1130D408BE393E090933C0D80933B0D8CED9BE6FD
S1130D50AEE2B0E48093E8069093E906A093EA0635
S1130D60B093EB0680E895E5A2ECB1E180930E091F
S1130D7090930F09A0931009B093110980EA9CE3A2
S1130D80A3E7BCE080932A0390932B03A0932C0346
S1130D90B0932D0380EA96E6ACEFB9E180932F037C
S1130DA090933003A0933103B093320380E295EB28
S1130DB0A4EAB6EF80930A0990930B09A0930C0957
S1130DC0B0930D0980E992ECADEBBBE0809302098E
S1130DD090930309A0930409B093050988E89BE75D
S1130DE0A5E8BBEF8093490D90934A0DA0934B0D5A
S1130DF0B0934C0D8CED93ECA6E0BFEF80931B03F6
S1130E0090931C03A0931D03B0931E038AE69DEAEE
S1130E10A7EDBFEF8093320D9093330DA093340D63
S1130E20B093350D8CEB90EEA4E6BFEF80930603F0
S1130E3090930703A0930803B093090382EC96EC04
S1130E40AAEBBEE380932E0B90932F0BA093300B51
S1130E50B093310B08952F923F924F925F926F920D
S1130E607F928F929F92AF92BF92CF92DF92EF9236
S1130E70FF920F931F93DF93CF93CDB7DEB7E09725
S1130E800FB6F894DEBF0FBECDBF20912209229584
S1130E902695269523706091140970E0660F771FDC
S1130EA0660F771F620F711D6F5F7F4F80E090E0C8
S1130EB00E947A1821E03AE34EED5CE30E94BC19EB
S1130EC02AE134E343E35EE30E9475177B018C015E
S1130ED06093150970931609809317099093180964
S1130EE023E333E343E651E40E94B81918162CF4C3
S1130EF083E393E3A3E6B1E40EC0C801B70123E39F
S1130F0033E343E351E40E94DA17882364F483E370
S1130F1093E3A3E3B1E48093150990931609A09396
S1130F201709B09318098091ED0660901509709027
S1130F30160980901709909018098D3D09F0DAC2BE
S1130F40C401B30128E431EE46E451E40E94B81927
S1130F5018160CF077C18AE08093EC06A090E8069E
S1130F60B090E906C090EA06D090EB06C401B30144
S1130F70A60195010E94BC197B018C01C8010E9445
S1130F80DE176DA77EA78FA798ABB701C8010E9493
S1130F906B1A69A77AA78BA79CA7C401B301A40104
S1130FA093010E947617A60195010E94BC197B014A
S1130FB08C01C8010E94DE176DA37EA38FA398A79E
S1130FC0B701C8010E946B1A69A37AA38BA39CA3DF
S1130FD0C401B30120E030E040E450E40E94BC19B5
S1130FE0A60195010E94BC197B018C01C8010E94D5
S1130FF0DE176D8F7E8F8F8F98A3B701C8010E9473
S11310006B1A698F7A8F8B8F9C8FC401B30120E098
S113101030E040E850E40E94BC19A60195010E940A
S1131020BC197B018C01C8010E94DE176D8B7E8B7D
S11310308F8B988FB701C8010E946B1A1B012C017A
S1131040C401B30120E030E040EA50E40E94BC193E
S1131050A60195010E94BC197B018C01C8010E9464
S1131060DE173B014C01B701C8010E946B1A5B01FA
S11310706C0160913D0D70913E0D882777FD809540
S1131080982F0E947C187B018C016091470D709110
S1131090480D882777FD8095982F0E947C182DA5F0
S11310A03EA54FA558A90E94BC199B01AC01C801DB
S11310B0B7010E9476177B018C016091E106709163
S11310C0E206882777FD8095982F0E947C1829A531
S11310D03AA54BA55CA50E94BC199B01AC01C801B3
S11310E0B7010E9476177B018C01609112097091FF
S11310F01309882777FD8095982F0E947C182DA1CD
S11311003EA14FA158A50E94BC199B01AC01C80186
S1131110B7010E9476177B018C0160911F037091C7
S11311202003882777FD8095982F0E947C1829A199
S11311303AA14BA15CA10E94BC199B01AC01C8015E
S1131140B7010E9476177B018C01609107097091A9
S11311500809882777FD8095982F0E947C182D8D8B
S11311603E8D4F8D58A10E94BC199B01AC01C80152
S1131170B7010E9476177B018C0160913F0D70913D
S1131180400D882777FD8095982F0E947C18298D23
S11311903A8D4B8D5C8D0E94BC199B01AC01C8013A
S11311A0B7010E9476177B018C016091450D709107
S11311B0460D882777FD8095982F0E947C182D89ED
S11311C03E894F89588D0E94BC199B01AC01C8010E
S11311D0B7010E9476177B018C016091FB06709128
S11311E0FC06882777FD8095982F0E947C18A20121
S11311F091010E94BC199B01AC01C801B7010E9476
S113120076177B018C016091F9067091FA068827A4
S113121077FD8095982F0E947C18A40193010E9469
S1131220BC199B01AC01C801B7010E9476177B0170
S11312308C0160913B0D70913C0D882777FD809562
S1131240982F29C18BE08093EC06A0902E0BB090D0
S11312502F0BC090300BD090310BC401B301A60109
S113126095010E94BC197B018C01C8010E94DE1704
S1131270698B7A8B8B8B9C8BB701C8010E946B1A8C
S11312806D877E878F87988BC401B301A401930176
S11312900E947617A60195010E94BC197B018C015E
S11312A0C8010E94DE1769877A878B879C87B701FC
S11312B0C8010E946B1A6D837E838F839887C40153
S11312C0B30120E030E040E450E40E94BC19A601E0
S11312D095010E94BC197B018C01C8010E94DE1794
S11312E069837A838B839C83B701C8010E946B1A3C
S11312F01B012C01C401B30120E030E040E850E4BC
S11313000E94BC19A60195010E94BC197B018C01A5
S1131310C8010E94DE173B014C01B701C8010E94BD
S11313206B1A5B016C0160910E0970910F09809139
S11313301009909111090E947C187B018C01609125
S11313402A0370912B0380912C0390912D030E940A
S11313507C1829893A894B895C890E94BC199B01B4
S1131360AC01C801B7010E9476177B018C01609122
S11313702F037091300380913103909132030E94C6
S11313807C182D853E854F8558890E94BC199B0188
S1131390AC01C801B7010E9476177B018C016091F2
S11313A00A0970910B0980910C0990910D090E9412
S11313B07C1829853A854B855C850E94BC199B0164
S11313C0AC01C801B7010E9476177B018C016091C2
S11313D002097091030980910409909105090E9402
S11313E07C182D813E814F8158850E94BC199B0138
S11313F0AC01C801B7010E9476177B018C01609192
S1131400490D70914A0D80914B0D90914C0D0E94A5
S11314107C1829813A814B815C810E94BC199B0113
S1131420AC01C801B7010E9476177B018C01609161
S11314301B0370911C0380911D0390911E030E9455
S11314407C18A20191010E94BC199B01AC01C80146
S1131450B7010E9476177B018C016091320D709167
S1131460330D8091340D9091350D0E947C18A401A8
S113147093010E94BC199B01AC01C801B7010E94F1
S113148076177B018C0160910603709107038091AC
S11314900803909109030E947C18A60195010E94FB
S11314A0BC199B01AC01C801B7010E947617609377
S11314B02509709326098093270990932809609140
S11314C02509709126098091270990912809209176
S11314D0F2063091F3064091F4065091F5060E940D
S11314E0E1179B01AC0160E070E080E89FE30E949B
S11314F07517E6C0C401B3012AE939E945E551E4A9
S11315000E94DA1788230CF060C08CE08093EC060C
S1131510C401B3012BE734E142E551E40E9475179D
S11315202CEA30E746EB50E40E94BC193B014C0125
S113153020E030E040E450E40E941F1A5B016C019B
S1131540C401B301A40193010E94BC197B018C0165
S1131550C601B5012091FD083091FE084091FF08B5
S1131560509100090E94BC195B016C01C801B701CC
S113157020912203309123034091240350912503A9
S11315800E94BC199B01AC01C601B5010E947617EB
S11315907B018C01C401B3012091410D3091420DB6
S11315A04091430D5091440D0E94BC199B01AC0124
S11315B0C801B7010E94761720915B0D30915C0D34
S11315C040915D0D50915E0D5FC08DE08093EC06FF
S11315D0C401B30123E333E34BE551E40E947517DF
S11315E02BE334E64DEC50E40E94BC193B014C0162
S11315F020E030E040E450E40E941F1A5B016C01DB
S1131600C401B301A40193010E94BC197B018C01A4
S1131610C601B50120911E0930911F09409120098E
S1131620509121090E94BC195B016C01C801B701EA
S11316302091DD063091DE064091DF065091E006F0
S11316400E94BC199B01AC01C601B5010E9476172A
S11316507B018C01C401B30120911A0930911B094B
S113166040911C0950911D090E94BC199B01AC01B9
S1131670C801B7010E9476172091510D3091520D87
S11316804091530D5091540D0E9476176093250993
S1131690709326098093270990932809609125095E
S11316A07091260980912709909128092091290990
S11316B030912A0940912B0950912C090E94E1177D
S11316C020E030E048EC52E40E94BC196093E40648
S11316D07093E5068093E6069093E706E090E406AF
S11316E0F090E5060091E6061091E706C801B701FF
S11316F020E030E040E85FE30E94DA17882334F406
S113170080EA8093F80610925D0F24C0C801B701E7
S113171020E030E046EC52E40E94B81918163CF47C
S113172080EB8093F8068FEF80935D0F13C080ECFD
S11317308093F806C801B7010E944918882777FDED
S11317408095982F0E947C180E94B7180E944E180A
S113175060935D0FE0960FB6F894DEBF0FBECDBF69
S1131760CF91DF911F910F91FF90EF90DF90CF9079
S1131770BF90AF909F908F907F906F905F904F90AD
S11317803F902F900895FF920F931F93CF93DF9371
S1131790F82EEB0189812881233009F4A4C0243078
S11317A040F42130C1F1C82FD0E0223008F057C0F6
S11317B00DC0253009F49EC0253008F498C02630A9
S11317C009F4BEC0273009F0EBC0D2C08CE280938C
S11317D04E0D8AE190E0C89FF001C99FF00DD89F9B
S11317E0F00D1124EB5CFC4F81818F3F89F00E9446
S11317F0870F8DE090E0C89FF001C99FF00DD89F3E
S1131800F00D1124EE0FFF1FE95CFC4F81E0808393
S11318108F2D62E0C7C0C82FD0E08AE190E0C89F56
S1131820F001C99FF00DD89FF00D1124EB5CFC4F23
S113183081818F3F81F00E94D10F8DE090E0C89F9D
S1131840F001C99FF00DD89FF00D1124EE0FFF1F7A
S1131850E95CFC4F10828F2D62E041E0A4C08AE174
S113186090E0C89FF001C99FF00DD89FF00D11249E
S1131870EB5CFC4F81818F3F81F00E94D10F8DE0A2
S113188090E0C89FF001C99FF00DD89FF00D11247E
S1131890EE0FFF1FE95CFC4F108284E08A95F1F79C
S11318A08AE190E0C89FF001C99FF00DD89FF00D28
S11318B01124EB5CFC4F81818F3F89F00E94870FDC
S11318C08DE090E0C89FF001C99FF00DD89FF00D06
S11318D01124EE0FFF1FE95CFC4F81E080838F2D04
S11318E062E042E060C08F2D62E043E05CC08F2D77
S11318F060E058C0082F10E08AE190E0089FE00102
S1131900099FD00D189FD00D1124CB5CDC4F898129
S11319108F3F91F00E94870F8DE090E0089FF001C7
S1131920099FF00D189FF00D1124EE0FFF1FE95CC5
S1131930FC4F81E080838B838F2D62E045E033C0D0
S113194090E02AE130E0829FD001839FB00D929F06
S1131950B00D1124AB5CBC4F11968C9111978F3F45
S113196021F18A8116968C938A818093320B1DC053
S113197090E02AE130E0829FD001839FB00D929FD6
S1131980B00D1124AB5CBC4F11968C9111978F3F15
S113199061F08A811E968C938A8180932D0B05C0F9
S11319A08F2D61E040E00E94D715DF91CF911F9108
S11319B00F91FF900895EF92FF920F931F93CF938F
S11319C0DF93E090E406F090E5060091E6061091BE
S11319D0E706C801B70120E030E040E151E40E948D
S11319E0DA178823C4F581E0809306090BE013E03D
S11319F0BAE1FB2EF80181918F018F9DE001112442
S1131A00CB5CDC4F89810E94D10F1A82F3E00B3149
S1131A101F0781F71092F10410920B05109225050F
S1131A2081E10E94490F82E10E94490F83E10E94F3
S1131A30490F80910109882341F480912E03882362
S1131A4021F462E049E00E94D71581E080932E03DF
S1131A508093010924C0C801B70120E030E044EBC1
S1131A6052E40E94B8191816D4F410920609809111
S1131A7088040E94870F81E08093890480913A0D45
S1131A80882341F480912409882321F462E04AE503
S1131A900E94D71581E08093240980933A0DDF9149
S1131AA0CF911F910F91FF90EF9008958CE495E0F2
S1131AB00E941B108093500D833010F08DED01C0F7
S1131AC08CEC8093ED060895EF92FF920F931F9391
S1131AD09FEF9ABB87E08BBB97BB80EE88BB94BB20
S1131AE095BB8BEF81BB90EF92BB8EEF82B913B89D
S1131AF090936100109262008FE18093640084E00F
S1131B008093650082E087BF87E481BF8FE083BF55
S1131B1083E680932B0B87EC80932C0B80E890E773
S1131B209BBD8ABD8DE08EBD84E880934D0D8CE213
S1131B3080934E0D0E945311109227031092260396
S1131B4010922903109228031092F6061092F706B9
S1131B508AE090E00E94B41B8093550D9093560D3B
S1131B608AE090E00E94B41B8093570D9093580D27
S1131B708091550D9091560D64E37BE04FEF50E05A
S1131B800E947D118091570D9091580D63E37CE084
S1131B904FEF50E00E947D111092590D10925A0D92
S1131BA00E94B700789411E01093FC08109234035B
S1131BB084E080930909109219091092320B109253
S1131BC02D0B109206091092010910923A0D1092F1
S1131BD02E03109224090E94EB050E9458068FEFF1
S1131BE0809323098093330B8093ED061092500D5C
S1131BF0109233031092EC061092F80680E090E005
S1131C00A0E0B0E08093E4069093E506A093E60696
S1131C10B093E70610925D0F1092140910922209F6
S1131C201092E3061092210310930A038091160385
S1131C3090E01AE1E12EF12C8E9DF0018F9DF00DC4
S1131C409E9DF00D112405E313E0E00FF11F818147
S1131C500E94D10F8091170390E09C012E9DC0013A
S1131C602F9D900D3E9D900D1124080F191FF80112
S1131C7081810E94D10F1092F10410920B051092F1
S1131C80250581E10E94490F82E10E94490F83E109
S1131C900E94490F1F910F91FF90EF900895FF92BA
S1131CA00F931F930E94640D1092FB08FF24F3947A
S1131CB017EC0CE28091FB089F2D981B9093FB0876
S1131CC080912C0B882339F410932C0B81E060E075
S1131CD040E00E94D71580912B0B882331F4109398
S1131CE02B0B60E040E00E94D7158091590D8823AA
S1131CF0C9F08091590D81508093590DE091550D93
S1131D00F091560D6181728180E047810E94C30B7E
S1131D108091550D9091560D64E37BE04FEF50E0B8
S1131D200E947D1180915A0D8823C9F080915A0D2B
S1131D30815080935A0DE091570DF091580D6181B7
S1131D40728181E047810E94C30B8091570D90916D
S1131D50580D63E37CE04FEF50E00E947D118091C9
S1131D60FC08813091F41092FC080E9454100E94E7
S1131D702B078091E306882311F40E94DB0C8091E9
S1131D803403873111F40E94560D80912103813070
S1131D9009F090CF1092210300934E0D8BCF813028
S1131DA061F1813020F0823009F072C04CC0862F7E
S1131DB082958F7080FF02C0DF9A01C0DF98862F62
S1131DC086958695869580FF02C0DE9A01C0DE98CE
S1131DD0862F8695869580FF02C0DD9A01C0DD9826
S1131DE0862F869580FF02C0DC9A01C0DC9860FFD4
S1131DF002C0DB9A0895DB980895862F82958F7030
S1131E0080FF02C0C09A01C0C098862F869586952F
S1131E10869580FF02C0C19A01C0C198862F86951D
S1131E20869580FF02C0C29A01C0C298862F86950B
S1131E3080FF02C0C39A01C0C39860FF02C0C49A65
S1131E400895C4980895862F82958F7080FF02C0EC
S1131E501B9A01C01B98862F86958695869580FFD0
S1131E6002C01C9A01C01C98862F8695869580FF17
S1131E7002C01D9A01C01D98862F869580FF02C05E
S1131E801E9A01C01E9860FF02C01F9A08951F98F1
S1131E900895823159F0833181F08131C1F4A898D9
S1131EA0809165008D7F8093650008958091650021
S1131EB08E7F809365009098089580916500877F58
S1131EC080936500809165008F7E809365000895FE
S1131ED0823159F0833181F08131C1F4A89A809123
S1131EE0650082608093650008958091650081603B
S1131EF080936500909A089580916500886080932E
S1131F006500809165008061809365000895883044
S1131F1091F1893080F4843031F1853038F48230A5
S1131F20F1F08330F0F48130D9F517C08630F9F040
S1131F308730F8F41AC08C3051F18D3028F48A308F
S1131F4011F18B3010F519C08E3029F18E3008F163
S1131F508F3019F1803121F522C0D89A0895D99A89
S1131F600895DA9A0895C59A0895C69A0895C79A65
S1131F700895949A0895959A0895809165008460CF
S1131F80809365000895AF9A0895AE9A0895AD9A26
S1131F900895AC9A0895AB9A0895AA9A0895A99AB7
S1131FA00895883091F1893080F4843031F185309E
S1131FB038F48230F1F08330F0F48130D9F517C071
S1131FC08630F9F08730F8F41AC08C3051F18D3036
S1131FD028F48A3011F18B3010F519C08E3029F1B4
S1131FE08E3008F18F3019F1803121F522C0D89854
S1131FF00895D9980895DA980895C5980895C698CB
S11320000895C7980895949808959598089580918F
S113201065008B7F809365000895AF980895AE980E
S11320200895AD980895AC980895AB980895AA982A
S11320300895A9980895FC012081818190E0820F80
S1132040911D2281820F911D63E070E00E948D1B1F
S1132050862F08959AE1899FF0011124EB5CFC4FCF
S11320608389882311F0138A0895CF010F960E9463
S11320701B1008959AE1899FF0011124EB5CFC4F39
S11320808385882311F013860895CF0107960E9453
S11320901B10089590E697B997B19C7F97B997B1B3
S11320A0982B97B9369A08950F931F93CF93DF9384
S11320B080910909823009F45EC0833020F48130B4
S11320C009F0D5C004C0833009F0D1C0AAC0809102
S11320D034039AE1899FE0011124CB5CDC4F8A85AB
S11320E0E82FF0E0CF01019663E070E00E94A11BAD
S11320F08A878881843169F480911909809323093E
S1132100809119098093140980914F0D80932209BD
S113211006C0853121F4809119098093330B809195
S11321201909EC0FFD1F8783909119098E81891776
S1132130D8F48B818130C1F089818F3F19F00E94DE
S1132140D10F0EC08881823131F0833131F0813179
S113215039F481E103C082E101C083E10E94490FA7
S11321601A82809119098B8782E0809309091C8562
S1132170812F6D858AC0909134038AE1989FE00194
S11321801124CB5CDC4FEA89F0E0CF01019663E0D7
S113219070E00E94A11B8A8B80911909EC0FFD1F2E
S11321A08787909119098E858917D8F48B8181309E
S11321B0C1F089818F3F19F00E94D10F0EC0888130
S11321C0823131F0833131F0813139F481E103C05E
S11321D082E101C083E10E94490F1A8280911909AA
S11321E08B8B1C89133029F083E0809309096D8956
S11321F016C081E0809309098091340390E0019630
S113220064E270E00E94A11BE82F809334038AE10A
S1132210E89FF0011124EB5CFC4F14816581812F50
S113222034C0009134034AE1049FF0011124EB5CB3
S1132230FC4F218D30E0C901019663E070E00E94FB
S1132240A11B818F80911909E20FF31F868B81E016
S11322508093090910E0C801019664E270E00E94CD
S1132260A11B80933403849FF001112409C081E0F1
S113227080930909E09134038AE1E89FF001112475
S1132280EB5CFC4F1481812F65810E94CF0E83E3A8
S113229093E70197F1F7812F0E944A10DF91CF91C4
S11322A01F910F910895E9E9F0E087E08083808130
S11322B089B988E18AB9EAE9F0E0808380818064A1
S11322C08083808180688083569A579A0895DB01C1
S11322D02D913C911197E82FF0E0E227F327F0705D
S11322E0EE0FFF1FEA5FFE4F232F3327808191817A
S11322F0822793278D939C930895FC011082728307
S11323006183568345831086178214821382118653
S11323100895CF92DF92EF92FF920F931F93CF9382
S1132320DF93EC01E981FA81309711F485E082C0F2
S11323302F8138858D819E8101972817390710F0E8
S113234083E078C08985823049F1833018F488238A
S113235031F039C0803131F08032A9F50BC0603CD6
S113236099F50EC06C3020F0683311F086E062C03D
S1132370688326C0603C31F4232B11F081E021C036
S113238080E11FC06B3D11F482E01BC0E20FF31F1C
S113239060832F5F3F4F38872F8316C06C3D21F435
S11323A0E20FF31F80EC07C06D3D11F087E042C0DF
S11323B0E20FF31F8BED80832F5F3F4F38872F830E
S11323C080E2898701C019868985813091F5E98188
S11323D0FA818F819885E80FF91F3297C190D080D8
S11323E0029798878F8383E0E82EF12CEC0EFD1E74
S11323F08881B7010E94671100E010E00AC0E981FA
S1132400FA81E00FF11F8081B7010E9467110F5F0D
S11324101F4F8F8198850817190788F39C2D80E03A
S11324208D0D911D2B813C812817390711F084E013
S113243001C08985DF91CF911F910F91FF90EF909B
S1132440DF90CF9008954F925F926F927F929F9208
S1132450AF92BF92CF92DF92EF92FF920F931F93AE
S1132460DF93CF9300D0CDB7DEB77C012B01942E40
S113247059016801009709F476C02115310509F462
S113248072C08BE0841728F4E8E34E1711F086E05D
S11324906BC03E010894611C711C1A821982892D3B
S11324A0B3010E94671100E010E009C0F501E00FDC
S11324B0F11F8081B3010E9467110F5F1F4F0C153C
S11324C01D05A0F3F501EC0DFD1D8A8180839601A5
S11324D02F5F3F4FF501E20FF31F8981808389014C
S11324E00F5F1F4F80ECF7018083918260E070E002
S11324F042E050E09DEDD92E3BED2CED25C0F501D9
S1132500E60FF71FE081E03C59F4F701E40FF51FF3
S11325103083CA010196F701E80FF91F20830CC02C
S1132520D701A40FB51FCA010196EB3D49F4EC9302
S1132530F701E80FF91FD082AC014F5F5F4F02C073
S1132540EC93AC016F5F7F4F60177107C0F2E40E2C
S1132550F51E80ECF70180834F5F5F4FF2015183DA
S1132560408381E001C085E00F900F90CF91DF910F
S11325701F910F91FF90EF90DF90CF90BF90AF909D
S11325809F907F906F905F904F9008951F920F924D
S11325900FB60F9211248F9380912B0B882329F06F
S11325A080912B0B815080932B0B80912C0B8823D3
S11325B029F080912C0B815080932C0B8F910F90DC
S11325C00FBE0F901F9018951F920F920FB60F9287
S11325D011248F9384B180934F0D85B18093190991
S11325E081E08093FC088F910F900FBE0F901F9095
S11325F01895682F8230C8F5482F50E0DA01AA50A8
S1132600B94F8C91FA01EE0FFF1FEA5DFC4F208158
S1132610318190E08217930740F5662399F42C9159
S11326208FEF90E0489FF001499FF00D589FF00D07
S11326301124E20FF11DE350F94F80818CB92F5F13
S11326402C9308952C918FEF90E0489FF001499FBF
S1132650F00D589FF00D1124E20FF11DE350F94FD6
S1132660808180939C002F5F2C9308951F920F927A
S11326700FB60F920BB60F9211242F933F934F93E3
S11326805F936F937F938F939F93AF93BF93EF93D6
S1132690FF9380E00E94F912FF91EF91BF91AF91F7
S11326A09F918F917F916F915F914F913F912F9166
S11326B00F900BBE0F900FBE0F901F9018951F9296
S11326C00F920FB60F920BB60F9211242F933F93D4
S11326D04F935F936F937F938F939F93AF93BF9326
S11326E0EF93FF9381E00E94F912FF91EF91BF9164
S11326F0AF919F918F917F916F915F914F913F9196
S11327002F910F900BBE0F900FBE0F901F90189536
S11327100F931F938C01FC01108290913B04990F3D
S113272080915504880F880F892B90912104892B5F
S113273090916F04990F990F990F982B8091BD0474
S11327408295807F892B4091D7044295440F407E27
S1132750482B90910B05990F80912505880F880FC0
S1132760892B9091F104892B30918904330F330F15
S1132770330F382B90915103990F80916B03880F7D
S1132780880F892B90913703892B90919F03990F80
S1132790990F990F982B8091B9038295807F892B8B
S11327A09091D3039295990F907E982B2091ED03ED
S11327B02295220F220F207C292B809107048795D4
S11327C088278795822B81834283338389E9848395
S11327D0809189048583809135030E943A10F80121
S11327E0868380914F030E943A10F8018783809179
S11327F069030E943A10F8018087809183030E9444
S11328003A10F801818780919D030E943A10F801E3
S113281082878091D1030E943A10F80183878091C6
S1132820EB030E943A10F8018487809105040E940A
S11328303A10F801858780911F040E943A10F8012C
S11328408687809139040E943A10F8018787809125
S113285053040E943A10F801808B80916D040E9409
S11328603A10F801818B8091BB040E943A10F80160
S1132870828B8091D5040E943A10F801838B809159
S1132880EF040E943A10F801848B809109050E949C
S11328903A10F801858B809123050E943A10F801C3
S11328A0868B80913D050E943A10F801878B8091B8
S11328B057050E943A10F801808F809171050E949B
S11328C03A10F801818F80918B050E943A10F8012B
S11328D0828F8091A5050E943A10F801838F809120
S11328E0BF050E943A10F801848F8091D9050E9497
S11328F03A10F801858F8091F3050E943A10F8018F
S1132900868F80910D060E943A10F801878F80917E
S113291027060E943A10F80180A3809141060E9484
S11329203A10F80181A380915B060E943A10F801E5
S113293082A3809175060E943A10F80183A38091C6
S11329408F060E943A10F80184A38091A9060E9480
S11329503A10F80185A38091C3060E943A10F80149
S113296086A317A210A611A612A613A6809135035A
S11329700E942A10F80184A780914F030E942A1014
S1132980F80185A7809169030E942A10F80186A79F
S1132990809183030E942A10F80187A780919D03E8
S11329A00E942A10F80180AB8091D1030E942A1062
S11329B0F80181AB8091EB030E942A10F80182ABED
S11329C0809105040E942A10F80183AB80911F04B2
S11329D00E942A10F80184AB809139040E942A10C5
S11329E0F80185AB809153040E942A10F80186AB4C
S11329F080916D040E942A10F80187AB8091BB047A
S1132A000E942A10F80180AF8091D5040E942A10F8
S1132A10F80181AF8091EF040E942A10F80182AF7F
S1132A20809109050E942A10F80183AF8091230543
S1132A300E942A10F80184AF80913D050E942A105B
S1132A40F80185AF809157050E942A10F80186AFDE
S1132A50809171050E942A10F80187AF80918B053F
S1132A600E942A10005C1F4FF80181938F0180910E
S1132A70A5050E942A10F80181938F018091BF055A
S1132A800E942A10F80181938F018091D9050E9438
S1132A902A10F80181938F018091F3050E942A1076
S1132AA0F80181938F0180910D060E942A10F8018C
S1132AB081938F01809127060E942A10F801819347
S1132AC08F01809141060E942A10F80181938F01A1
S1132AD080915B060E942A10F80181938F018091F6
S1132AE075060E942A10F80181938F0180918F0648
S1132AF00E942A10F80181938F018091A9060E94F7
S1132B002A10F80181939FEF919380912309819377
S1132B1080915D0F81931192119211928091EC0634
S1132B20819391938F018DE695E00E941B10F8012B
S1132B3081938F0181EA95E00E941B10F801819333
S1132B408F018BEB95E00E941B10F80181938F019C
S1132B5085ED95E00E941B10F80181938F018FEEA3
S1132B6095E00E941B10F80181938F0189E096E0A3
S1132B700E941B10F80181938F0181E796E00E9467
S1132B801B10F80181938F0189ED96E00E941B10C0
S1132B90F80181938091320B1092320B81938091D2
S1132BA02D0B10922D0B80831F910F9108957F920E
S1132BB08F929F92AF92BF92CF92DF92EF92FF9249
S1132BC00F931F93CF93DF93782E6130C9F0613058
S1132BD020F0623009F093C028C08FEF789EC001C6
S1132BE01124815A924F0E948813E72DF0E0EE0FD2
S1132BF0FF1FE251F94F80E690E0918380832CC05F
S1132C00A82FB0E08FEF90E0A89FF001A99FF00DEE
S1132C10B89FF00D1124E15AF24F6083AA0FBB1F35
S1132C20A251B94F81E090E015C0A82FB0E08FEF1A
S1132C3090E0A89FF001A99FF00DB89FF00D11241A
S1132C40E15AF24F60834183AA0FBB1FA251B94FCF
S1132C5082E090E08D939C93C72CDD248FEF90E06D
S1132C60C89E7001C99EF00CD89EF00C11244DE250
S1132C70A42E49E0B42EAE0CBF1CE601CC0FDD1F20
S1132C8026E3822E2DE0922E8C0E9D1E9701215A52
S1132C90324FFE01E251F94F00811181C501B401A7
S1132CA041E00E942312813051F5F4018081918129
S1132CB0FE01EA5DFC4F918380830190F081E02D59
S1132CC097012350394FC901B501AF010E94B91CC6
S1132CD086EF96E0C80ED91EF6011082F1E07F1649
S1132CE031F480919B00882351F081E006C0772065
S1132CF031F48BB1882319F080E00E94F912DF913E
S1132D00CF911F910F91FF90EF90DF90CF90BF90E4
S1132D10AF909F908F907F9008951F920F920FB65F
S1132D200F920BB60F9211242F933F934F935F93FF
S1132D306F937F938F939F93AF93BF93EF93FF937F
S1132D406CB18091550D9091560D0E94891181307E
S1132D5029F48091590D8F5F8093590DFF91EF9164
S1132D60BF91AF919F918F917F916F915F914F919F
S1132D703F912F910F900BBE0F900FBE0F901F909D
S1132D8018951F920F920FB60F920BB60F92112443
S1132D902F933F934F935F936F937F938F939F935F
S1132DA0AF93BF93EF93FF9360919C008091570D75
S1132DB09091580D0E948911813029F480915A0D07
S1132DC08F5F80935A0DFF91EF91BF91AF919F91C7
S1132DD08F917F916F915F914F913F912F910F90C0
S1132DE00BBE0F900FBE0F901F9018951F920F925D
S1132DF00FB60F920BB60F9211241F932F933F938C
S1132E004F935F936F937F938F939F93AF93BF93EE
S1132E10EF93FF9380914D0D882389F580910A03E8
S1132E20882369F184E880934D0D809154040E94B5
S1132E30870F11E01093550480916E040E94870F50
S1132E4010936F048091F0040E94870F1093F10493
S1132E5080910A050E94870F10930B058091240529
S1132E600E94870F1093250581E10E94680F82E17B
S1132E700E94680F83E10E94680F10920A038091F8
S1132E804E0D882339F480912103882319F481E0BD
S1132E908093210385B391E0892785BB88E893E17A
S1132EA020E731E0F9013197F1F70197D9F78091E3
S1132EB04D0D815080934D0D80914E0D8150809326
S1132EC04E0DFF91EF91BF91AF919F918F917F91A3
S1132ED06F915F914F913F912F911F910F900BBE76
S1132EE00F900FBE0F901F9018955058BB27AA271C
S1132EF00ED0DCC1A5D130F0AAD120F031F49F3F2F
S1132F0011F41EF49AC10EF4E095E7FB67C1E92FB2
S1132F10EFD180F3BA17620773078407950718F097
S1132F2071F49EF51EC20EF4E0950B2EBA2FA02D5F
S1132F300B01B90190010C01CA01A0011124FF2762
S1132F40591B99F0593F50F4503E68F11A16F0405D
S1132F50A22F232F342F4427585FF3CF469537955C
S1132F602795A795F0405395C9F77EF41F16BA0B21
S1132F70620B730B840BBAF09150A1F0FF0FBB1FCF
S1132F80661F771F881FC2F70EC0BA0F621F731F18
S1132F90841F48F4879577956795B795F7959E3F75
S1132FA008F0B3CF9395880F08F09927EE0F979503
S1132FB087950895EFD008F481E0089550D1E39502
S1132FC086C10CD073C143D140F03AD130F021F422
S1132FD05F3F19F003C15111C5C12FC189D198F3C5
S1132FE09923C9F35523B1F3951B550BBB27AA2786
S1132FF062177307840738F09F5F5F4F220F331FF8
S1133000441FAA1FA9F333D00E2E3AF0E0E830D0C3
S113301091505040E695001CCAF729D0FE2F27D0C6
S1133020660F771F881FBB1F261737074807AB0794
S1133030B0E809F0BB0B802DBF01FF2793585F4F09
S11330402AF09E3F510568F0C9C08CC15F3FECF384
S1133050983EDCF3869577956795B795F7959F5FCE
S1133060C9F7880F911D9695879597F90895E1E022
S1133070660F771F881FBB1F621773078407BA0781
S113308020F0621B730B840BBA0BEE1F88F7E095DC
S1133090089504D06894B11165C1089531D188F0C0
S11330A09F5790F0B92F9927B751A0F0D1F0660F30
S11330B0771F881F991F1AF0BA95C9F712C0B1304B
S11330C081F04FD1B1E008954CC1672F782F882744
S11330D0B85F39F0B93FCCF3869577956795B3958A
S11330E0D9F73EF490958095709561957F4F8F4FF9
S11330F09F4F0895E89409C097FB3EF490958095FE
S1133100709561957F4F8F4F9F4F9923A9F0F92FA9
S113311096E9BB279395F695879577956795B79527
S1133120F111F8CFFAF4BB0F11F460FF1BC06F5F0D
S11331307F4F8F4F9F4F16C0882311F096E911C01F
S1133140772321F09EE8872F762F05C0662371F040
S113315096E8862F70E060E02AF09A95660F771F54
S1133160881FDAF7880F9695879597F90895E2D026
S113317080F09F3740F491110EF0F4C060E070E0ED
S113318080E89FEB089526F41B16611D711D811DB7
S11331902BC045C0990F0008550FAA0BE0E8FEEFBD
S11331A016161706E807F907C0F012161306E40707
S11331B0F50798F0621B730B840B950B39F40A2600
S11331C061F0232B242B252B21F408950A2609F4DE
S11331D0A140A6958FEF811D811D089597F99F67E2
S11331E080E870E060E00895882371F4772321F08B
S11331F09850872B762F07C0662311F499270DC0AA
S11332009051862B70E060E02AF09A95660F771F44
S1133210881FDAF7880F9695879597F908959F3F49
S113322031F0915020F4879577956795B795880F7D
S1133230911D9695879597F908959FEF80EC0895D1
S113324000240A9416161706180609060895002481
S11332500A9412161306140605060895EECF50D0EC
S1133260E8F3E894E0E0BB279F57F0F02AED3FE055
S113327049EC06C0EE0FBB0F661F771F881F28F0AE
S1133280B23A62077307840728F0B25A620B730BD1
S1133290840BE3959A9572F7803830F49A95BB0FB6
S11332A0661F771F881FD2F79048BBCF092E03945F
S11332B0000C11F4882352F0BB0F40F4BF2B11F41F
S11332C060FF04C06F5F7F4F8F4F9F4F0895EF9350
S11332D0E0FF06C0A2EA2AED3FE049EC5FEB17DE0F
S11332E0E5DF0F90039401FC9058ECE8F0E04FC147
S11332F057FD9058440F551F59F05F3F71F04795A3
S1133300880F97FB991F61F09F3F79F08795089587
S1133310121613061406551FF2CF4695F1DF08C0A6
S1133320161617061806991FF1CF869571056105C3
S113333008940895E5DFA0F0BEE7B91788F4BB2729
S11333409F3860F41616B11D672F782F8827985F71
S1133350F7CF869577956795B11D93959639C8F300
S11333600895E894BB2766277727CB0197F908953A
S113337011DF08F48FEF08950BD098CF61DF28F0A8
S113338066DF18F0952309F029CF57CF1124EACF2F
S1133390AFDFA0F3959FD1F3950F50E0551F629FC7
S11333A0F001729FBB27F00DB11D639FAA27F00D9A
S11333B0B11DAA1F649F6627B00DA11D661F829FC1
S11333C02227B00DA11D621F739FB00DA11D621FA6
S11333D0839FA00D611D221F749F3327A00D611DC3
S11333E0231F849F600D211D822F762F6A2F1124A5
S11333F09F5750408AF0E1F088234AF0EE0FFF1FF8
S1133400BB1F661F771F881F91505040A9F79E3F2E
S1133410510570F0E3CEA6CF5F3FECF3983EDCF3AA
S1133420869577956795B795F795E7959F5FC1F76B
S1133430FE2B880F911D9695879597F90895FA01AB
S1133440EE0FFF1F30962105310599F161157105C5
S113345061F48038BFE39B0749F168949038810593
S113346061F08038BFEF9B0741F0992342F5FF3F9D
S1133470E1053105210511F1E8940894E795D90196
S1133480AA2329F4AB2FBE2FF85FD0F310C0FF5F3F
S113349070F4A695E0F7F73950F019F0FF3A38F4D4
S11334A09F779F930CD00F9007FC905808953EF09F
S11334B0C4CE60E070E080E89FE308954FE79F7713
S11334C05F934F933F932F93B5D02F913F914F919B
S11334D05F9152DF0BC09F93C2DE0F9007FCEE5F3B
S11334E0F6CE19F40EF07ACE3CCFA7CE09DFC8F39E
S11334F09638C0F707F80F92E8942BE33AEA48EBC2
S11335005FE748DF0F920F920F924DB75EB70F92AD
S1133510D1D0EAEAF0E016D04F915F91EF91FF919C
S1133520E595EE1FFF1F49F0FE57E0684427EE0FB4
S1133530441FFA95E1F74195550B43D00F9007FED0
S113354037C00895DF93CF931F930F93FF92EF92A9
S1133550DF927B018C01689405C0DA2EEF0118DF3D
S1133560FE01E894A5912591359145915591AEF3CD
S1133570EF01CDDCFE019701A801DA9479F7DF9021
S1133580EF90FF900F911F91CF91DF9108959F933A
S11335908F937F936F93FF93EF939B01AC01ECDECA
S11335A0EF91FF91CFDF2F913F914F915F91E4CE47
S11335B09B01AC0160E070E080E89FE302CD0ECE99
S11335C02ECE9EDEE8F39923D9F3940F511DBBF35D
S11335D09150504094F059F0882332F0660F771FD1
S11335E0881F91505040C1F79E3F510544F7880F02
S11335F0911D9695879597F908955F3FACF0983E95
S11336009CF0BB27869577956795B79508F4B160CC
S11336109395C1F7BB0F58F711F460FFE8CF6F5FC4
S11336207F4F8F4F9F4FE3CF9DCE0EF0F8CD05CE49
S11336306894D4CD65DEC8F39923D1F3C6F3DF9340
S1133640CF931F930F93FF92C92FDD2788232AF06E
S11336502197660F771F881FDAF720E030E040E8F3
S11336605FEB9FE3883920F0803E30F021968F771E
S11336703DDCE2EDF0E003C039DCEFEFF0E062DFC7
S11336808B01BE01EC01FB2E6F5771097595771FF5
S1133690880B990B31DD28E132E741E35FE378DE03
S11336A0AF2D9801AE01FF900F911F91CF91DF9143
S11336B02EDCFCCDFA01DC01AA0FBB1F9B01AC017F
S11336C0BF5728F422273327442750781FC0B75107
S11336D088F4AB2F0024469537952795011CA395B4
S11336E0D2F3002069F0220F331F441FB395DAF39D
S11336F00DD0FBCB61307105A0E88A07B94630F4E0
S11337009B01AC016627772788279078309621F0B3
S113371020833183428353830895AA1BBB1B51E149
S113372007C0AA1FBB1FA617B70710F0A61BB70B2D
S1133730881F991F5A95A9F780959095BC01CD01D2
S1133740089597FB092E07260AD077FD04D0E5DFFC
S113375006D000201AF4709561957F4F0895F6F70E
S1133760909581959F4F0895CF93DF93BC0182304C
S1133770910510F462E070E0A091600FB091610FC8
S1133780ED01E0E0F0E040E050E021C08881998163
S11337908617970769F48A819B81309719F0938380
S11337A0828304C09093610F8093600FFE0134C044
S11337B06817790738F44115510519F084179507EE
S11337C008F4AC01FE018A819B819C01E9012097E8
S11337D0E9F641155105A9F1CA01861B970B049717
S11337E008F4BA01E0E0F0E02AC08D919C911197B1
S11337F084179507F9F46417750781F412968D916F
S11338009C911397309719F09383828304C090930B
S1133810610F8093600FFD0132964FC0CA01861B71
S1133820970BFD01E80FF91F6193719302978D9334
S11338309C9343C0FD01828193819C01D90110971F
S1133840A1F680915E0F90915F0F892B41F48091D6
S113385002019091030190935F0F80935E0F40915A
S11338600401509105014115510541F44DB75EB76E
S11338708091000190910101481B590B20915E0F2A
S113388030915F0F24173507B0F4CA01821B930BE4
S11338908617970780F0AB014E5F5F4F841795073B
S11338A050F0420F531F50935F0F40935E0FF90186
S11338B06193719302C0E0E0F0E0CF01DF91CF911A
S11338C00895CF93DF93009709F450C0EC01229739
S11338D01B821A82A091600FB091610F109709F1B9
S11338E040E050E0AC17BD0708F1BB83AA83FE019A
S11338F021913191E20FF31FAE17BF0779F48D9137
S11339009C911197280F391F2E5F3F4F39832883CD
S113391012968D919C9113979B838A83411551052F
S113392071F4D093610FC093600F20C012968D91F3
S11339309C911397AD01009711F0DC01D3CFFA01EC
S1133940D383C28321913191E20FF31FCE17DF0796
S113395069F488819981280F391F2E5F3F4FFA013E
S1133960318320838A819B8193838283DF91CF91EA
S11339700895FB01DC0102C001900D9241505040BA
S10B3980D8F70895F894FFCF75
S11339882000620F00000000891112239B32244694
S1133998AD573665BF74488CC19D5AAFD3BE6CCA47
S11339A8E5DB7EE9F7F88110080193331A22A5565E
S11339B82C47B7753E64C99C408DDBBF52AEEDDA27
S11339C864CBFFF976E802218B301002991326673D
S11339D8AF763444BD554AADC3BC588ED19F6EEB07
S11339E8E7FA7CC8F5D983310A2091121803A7771E
S11339F82E66B5543C45CBBD42ACD99E508FEFFBE7
S1133A0866EAFDD874C904428D5316619F70200478
S1133A18A9153227BB364CCEC5DF5EEDD7FC6888C6
S1133A28E1997AABF3BA85520C4397711E60A114DD
S1133A382805B3373A26CDDE44CFDFFD56ECE998A6
S1133A486089FBBB72AA06638F7214409D512225BC
S1133A58AB343006B9174EEFC7FE5CCCD5DD6AA986
S1133A68E3B8788AF19B87730E6295501C41A3359D
S1133A782A24B1163807CFFF46EEDDDC54CDEBB966
S1133A8862A8F99A708B088481951AA793B62CC2F8
S1133A98A5D33EE1B7F04008C919522BDB3A644E6E
S1133AA8ED5F766DFF7C899400859BB712A6ADD235
S1133AB824C3BFF136E0C1184809D33B5A2AE55E4E
S1133AC86C4FF77D7E6C0AA583B4188691972EE314
S1133AD8A7F23CC0B5D14229CB38500AD91B666F2E
S1133AE8EF7E744CFD5D8BB502A499961087AFF3F5
S1133AF826E2BDD034C1C3394A28D11A580BE77F0E
S1133B086E6EF55C7C4D0CC685D71EE597F428804F
S1133B18A1913AA3B3B2444ACD5B5669DF78600CED
S1133B28E91D722FFB3E8DD604C79FF516E4A990B4
S1133B382081BBB332A2C55A4C4BD7795E68E11CCD
S1133B48680DF33F7A2E0EE787F61CC495D52AA193
S1133B58A3B03882B193466BCF7A5448DD59622DAD
S1133B68EB3C700EF91F8FF706E69DD414C5ABB174
S1133B7822A0B9923083C77B4E6AD5585C49E33D8D
S1093B886A2CF11E780F07
S9030000FC
